:020000040800F2
:1000000000280020F5480008D5470008D747000819
:10001000D9470008DB470008DD4700080000000062
:10002000000000000000000000000000DF470008A2
:10003000E147000800000000E3470008E54700082A
:100040003D4900083D4900083D4900083D49000878
:100050003D490008F1470008F3470008FD47000844
:10006000074800083D4900083D49000811480008BC
:100070003D4900083D490008214800083148000872
:100080003D4900083D490008414800083D49000835
:100090003D4900083D4900083D4900083D49000828
:1000A0003D49000859480008694800087948000897
:1000B000894800083D490008000000003D4900084B
:1000C0003D49000800000000000000003D49000814
:1000D00000000000994800083D49000800000000A9
:1000E0003D4900083D4900083D4900080000000066
:1000F0000000000000000000000000000000000000
:0C01000000000000000000005FF808F1A3
:1001100010B5054C237833B9044B13B10448AFF341
:1001200000800123237010BD70000020000000003B
:10013000544E000808B5034B1BB103490348AFF305
:10014000008008BD0000000074000020544E00082C
:1001500081F0004102E000BF83F0004330B54FEA78
:1001600041044FEA430594EA050F08BF90EA020FE5
:100170001FBF54EA000C55EA020C7FEA645C7FEA78
:10018000655C00F0E2804FEA5454D4EB5555B8BF9B
:100190006D420CDD2C4480EA020281EA030382EA0C
:1001A000000083EA010180EA020281EA0303362D9E
:1001B00088BF30BD11F0004F4FEA01314FF4801C71
:1001C0004CEA113102D0404261EB410113F0004F83
:1001D0004FEA03334CEA133302D0524263EB43033A
:1001E00094EA050F00F0A780A4F10104D5F1200ED8
:1001F0000DDB02FA0EFC22FA05F2801841F1000133
:1002000003FA0EF2801843FA05F359410EE0A5F106
:1002100020050EF1200E012A03FA0EFC28BF4CF037
:10022000020C43FA05F3C01851EBE37101F00045ED
:1002300007D54FF0000EDCF1000C7EEB00006EEBFA
:100240000101B1F5801F1BD3B1F5001F0CD3490884
:100250005FEA30004FEA3C0C04F101044FEA4452DB
:1002600012F5800F80F09A80BCF1004F08BF5FEA62
:10027000500C50F1000041EB045141EA050130BD42
:100280005FEA4C0C404141EB010111F4801FA4F1E5
:100290000104E9D191F0000F04BF01460020B1FA3A
:1002A00081F308BF2033A3F10B03B3F120020CDA72
:1002B0000C3208DD02F1140CC2F10C0201FA0CF050
:1002C00021FA02F10CE002F11402D8BFC2F1200CB5
:1002D00001FA02F120FA0CFCDCBF41EA0C0190406B
:1002E000E41AA2BF01EB0451294330BD6FEA0404B4
:1002F0001F3C1CDA0C340EDC04F11404C4F120029F
:1003000020FA04F001FA02F340EA030021FA04F3B0
:1003100045EA030130BDC4F10C04C4F1200220FA07
:1003200002F001FA04F340EA0300294630BD21FA45
:1003300004F0294630BD94F0000F83F4801306BF0B
:1003400081F480110134013D4EE77FEA645C18BFFF
:100350007FEA655C29D094EA050F08BF90EA020F96
:1003600005D054EA000C04BF1946104630BD91EA8E
:10037000030F1EBF0021002030BD5FEA545C05D191
:100380004000494128BF41F0004130BD14F58004D0
:100390003CBF01F5801130BD01F0004545F0FE4144
:1003A00041F470014FF0000030BD7FEA645C1ABF79
:1003B000194610467FEA655C1CBF0B46024650EAB0
:1003C000013406BF52EA033591EA030F41F40021DC
:1003D00030BD00BF90F0000F04BF0021704730B562
:1003E0004FF4806404F132044FF000054FF0000137
:1003F00050E700BF90F0000F04BF0021704730B5F8
:100400004FF4806404F1320410F0004548BF4042CC
:100410004FF000013EE700BF42004FEAE2014FEA21
:1004200031014FEA02701FBF12F07F4393F07F4FFC
:1004300081F06051704732F07F4208BF704793F0FF
:100440007F4F04BF41F40021704730B54FF4607412
:1004500001F0004521F000411CE700BF50EA010215
:1004600008BF704730B54FF000050AE050EA0102BE
:1004700008BF704730B511F0004502D5404261EB2E
:1004800041014FF4806404F132045FEA915C3FF46F
:10049000D8AE4FF003025FEADC0C18BF03325FEA0C
:1004A000DC0C18BF033202EBDC02C2F1200300FABD
:1004B00003FC20FA02F001FA03FE40EA0E0021FAE2
:1004C00002F11444BDE600BF70B54FF0FF0C4CF4D0
:1004D000E06C1CEA11541DBF1CEA135594EA0C0F82
:1004E00095EA0C0F00F0DEF82C4481EA030621EABD
:1004F0004C5123EA4C5350EA013518BF52EA0335F8
:1005000041F4801143F4801338D0A0FB02CE4FF0A9
:100510000005E1FB02E506F00042E0FB03E54FF0D9
:100520000006E1FB03569CF0000F18BF4EF0010ED1
:10053000A4F1FF04B6F5007F64F5407404D25FEACD
:100540004E0E6D4146EB060642EAC62141EA555180
:100550004FEAC52040EA5E504FEACE2EB4F1FD0CC2
:1005600088BFBCF5E06F1ED8BEF1004F08BF5FEA40
:10057000500E50F1000041EB045170BD06F00046F2
:1005800046EA010140EA020081EA0301B4EB5C049F
:10059000C2BFD4EB0C0541EA045170BD41F4801197
:1005A0004FF0000E013C00F3AB8014F1360FDEBFBC
:1005B000002001F0004170BDC4F10004203C35DA98
:1005C0000C341BDC04F11404C4F1200500FA05F31B
:1005D00020FA04F001FA05F240EA020001F00042BC
:1005E00021F0004110EBD37021FA04F642EB060132
:1005F0005EEA430E08BF20EAD37070BDC4F10C045C
:10060000C4F1200500FA04F320FA05F001FA04F21F
:1006100040EA020001F0004110EBD37041F100010B
:100620005EEA430E08BF20EAD37070BDC4F1200516
:1006300000FA05F24EEA020E20FA04F301FA05F27E
:1006400043EA020321FA04F001F0004121FA04F226
:1006500020EA020000EBD3705EEA430E08BF20EAF6
:10066000D37070BD94F0000F0FD101F00046400030
:1006700041EB010111F4801F08BF013CF7D041EAB2
:10068000060195F0000F18BF704703F000465200B6
:1006900043EB030313F4801F08BF013DF7D043EA87
:1006A0000603704794EA0C0F0CEA135518BF95EA3D
:1006B0000C0F0CD050EA410618BF52EA4306D1D1C4
:1006C00081EA030101F000414FF0000070BD50EAE3
:1006D000410606BF1046194652EA430619D094EA6D
:1006E0000C0F02D150EA013613D195EA0C0F05D157
:1006F00052EA03361CBF104619460AD181EA0301AB
:1007000001F0004141F0FE4141F470014FF0000062
:1007100070BD41F0FE4141F4780170BD70B54FF0FD
:10072000FF0C4CF4E06C1CEA11541DBF1CEA13557D
:1007300094EA0C0F95EA0C0F00F0A7F8A4EB05045F
:1007400081EA030E52EA03354FEA013100F0888056
:100750004FEA03334FF0805545EA131343EA12631F
:100760004FEA022245EA111545EA10654FEA0026D4
:100770000EF000419D4208BF964244F1FD0404F58D
:10078000407402D25B084FEA3202B61A65EB0305E9
:100790005B084FEA32024FF480104FF4002CB6EBA6
:1007A000020E75EB030E22BFB61A754640EA0C0026
:1007B0005B084FEA3202B6EB020E75EB030E22BF66
:1007C000B61A754640EA5C005B084FEA3202B6EBA7
:1007D000020E75EB030E22BFB61A754640EA9C0066
:1007E0005B084FEA3202B6EB020E75EB030E22BF36
:1007F000B61A754640EADC0055EA060E18D04FEAF4
:10080000051545EA16754FEA06164FEAC30343EA93
:1008100052734FEAC2025FEA1C1CC0D111F4801F60
:100820000BD141EA00014FF000004FF0004CB6E759
:1008300011F4801F04BF01430020B4F1FD0C88BFF8
:10084000BCF5E06F3FF6AFAEB5EB030C04BFB6EB03
:10085000020C5FEA500C50F1000041EB045170BDF6
:100860000EF0004E4EEA113114EB5C04C2BFD4EB23
:100870000C0541EA045170BD41F480114FF0000EA7
:10088000013C90E645EA060E8DE60CEA135594EA23
:100890000C0F08BF95EA0C0F3FF43BAF94EA0C0F26
:1008A0000AD150EA01347FF434AF95EA0C0F7FF49B
:1008B00025AF104619462CE795EA0C0F06D152EAEF
:1008C00003353FF4FDAE1046194622E750EA4106D3
:1008D00018BF52EA43067FF4C5AE50EA41047FF4E4
:1008E0000DAF52EA43057FF4EBAE12E74A0011D296
:1008F00012F5001211D20DD56FF47873B3EB62527A
:100900000ED44FEAC12343F0004343EA505323FA85
:1009100002F070474FF00000704750EA013002D1FA
:100920004FF0FF3070474FF0000070474FEA410230
:10093000B2F1E04324BFB3F5001CDCF1FE5C0DD93D
:1009400001F0004C4FEAC0024CEA5070B2F1004F87
:1009500040EB830008BF20F00100704711F0804F8A
:1009600021D113F13872BCBF01F00040704741F44F
:1009700080114FEA5252C2F11802C2F1200C10FA53
:100980000CF320FA02F018BF40F001004FEAC12337
:100990004FEAD32303FA0CFC40EA0C0023FA02F3DB
:1009A0004FEA4303CCE77FEA625307D150EA0133B1
:1009B0001EBF4FF0FE4040F44000704701F0004081
:1009C00040F0FE4040F40000704700BF80F000405F
:1009D00002E000BF81F0004142001FBF5FEA410317
:1009E00092EA030F7FEA226C7FEA236C6AD04FEA17
:1009F0001262D2EB1363C1BFD2184140484041405C
:100A0000B8BF5B42192B88BF704710F0004F40F40D
:100A1000000020F07F4018BF404211F0004F41F429
:100A2000000121F07F4118BF494292EA030F3FD0F5
:100A3000A2F1010241FA03FC10EB0C00C3F1200308
:100A400001FA03F100F0004302D5494260EB400097
:100A5000B0F5000F13D3B0F1807F06D340084FEA02
:100A6000310102F10102FE2A51D2B1F1004F40EBF7
:100A7000C25008BF20F0010040EA0300704749005F
:100A800040EB000010F4000FA2F10102EDD1B0FA2A
:100A900080FCACF1080CB2EB0C0200FA0CF0AABF1F
:100AA00000EBC25052421843BCBFD04018437047BD
:100AB00092F0000F81F4000106BF80F400000132C3
:100AC000013BB5E74FEA41037FEA226C18BF7FEA9A
:100AD000236C21D092EA030F04D092F0000F08BFDC
:100AE0000846704790EA010F1CBF0020704712F0C3
:100AF0007F4F04D1400028BF40F00040704712F102
:100B000000723CBF00F50000704700F0004343F066
:100B1000FE4040F4000070477FEA226216BF08469C
:100B20007FEA23630146420206BF5FEA412390EA5F
:100B3000010F40F4800070474FF0000304E000BF55
:100B400010F0004348BF40425FEA000C08BF704706
:100B500043F0964301464FF000001CE050EA0102CA
:100B600008BF70474FF000030AE000BF50EA0102DF
:100B700008BF704711F0004302D5404261EB4101CC
:100B80005FEA010C02BF84460146002043F0B643F1
:100B900008BFA3F18053A3F50003BCFA8CF2083A16
:100BA000A3EBC25310DB01FA02FC634400FA02FC1F
:100BB000C2F12002BCF1004F20FA02F243EB020026
:100BC00008BF20F00100704702F1200201FA02FC88
:100BD000C2F1200250EA4C0021FA02F243EB02007B
:100BE00008BF20EADC7070474FF0FF0C1CEAD052BF
:100BF0001EBF1CEAD15392EA0C0F93EA0C0F6FD080
:100C00001A4480EA010C400218BF5FEA41211ED05D
:100C10004FF0006343EA501043EA5111A0FB013149
:100C20000CF00040B1F5000F3EBF490041EAD3711E
:100C30005B0040EA010062F17F02FD2A1DD8B3F19A
:100C4000004F40EBC25008BF20F00100704790F009
:100C5000000F0CF0004C08BF49024CEA502040EA5B
:100C600051207F3AC2BFD2F1FF0340EAC250704721
:100C700040F400004FF00003013A5DDC12F1190F5F
:100C8000DCBF00F000407047C2F10002410021FAD1
:100C900002F1C2F1200200FA02FC5FEA310040F1E9
:100CA000000053EA4C0308BF20EADC70704792F062
:100CB000000F00F0004C02BF400010F4000F013A9A
:100CC000F9D040EA0C0093F0000F01F0004C02BF95
:100CD000490011F4000F013BF9D041EA0C018FE704
:100CE0000CEAD15392EA0C0F18BF93EA0C0F0AD00A
:100CF00030F0004C18BF31F0004CD8D180EA010030
:100D000000F00040704790F0000F17BF90F0004FC8
:100D1000084691F0000F91F0004F14D092EA0C0FAA
:100D200001D142020FD193EA0C0F03D14B0218BF3D
:100D3000084608D180EA010000F0004040F0FE4083
:100D400040F40000704740F0FE4040F4400070471F
:100D50004FF0FF0C1CEAD0521EBF1CEAD15392EA9E
:100D60000C0F93EA0C0F69D0A2EB030280EA010C8E
:100D700049024FEA402037D04FF0805343EA111127
:100D800043EA10130CF000408B4238BF5B0042F185
:100D90007D024FF4000C8B4224BF5B1A40EA0C002A
:100DA000B3EB510F24BFA3EB510340EA5C00B3EB5C
:100DB000910F24BFA3EB910340EA9C00B3EBD10F4A
:100DC00024BFA3EBD10340EADC001B0118BF5FEA9C
:100DD0001C1CE0D1FD2A3FF650AF8B4240EBC250C5
:100DE00008BF20F0010070470CF0004C4CEA502086
:100DF0007F32C2BFD2F1FF0340EAC250704740F4D5
:100E000000004FF00003013A37E792F0000F00F0C6
:100E1000004C02BF400010F4000F013AF9D040EA44
:100E20000C0093F0000F01F0004C02BF490011F4D8
:100E3000000F013BF9D041EA0C0195E70CEAD153D0
:100E400092EA0C0F08D142027FF47DAF93EA0C0FB7
:100E50007FF470AF084676E793EA0C0F04D14B029B
:100E60003FF44CAF08466EE730F0004C18BF31F04D
:100E7000004CCAD130F000427FF45CAF31F0004347
:100E80007FF43CAF5FE700BF4FF0FF3C06E000BFE0
:100E90004FF0010C02E000BF4FF0010C4DF804CD03
:100EA0004FEA40024FEA41037FEA226C18BF7FEA13
:100EB000236C11D001B052EA530C18BF90EA010F15
:100EC00058BFB2EB030088BFC81738BF6FEAE170A4
:100ED00018BF40F0010070477FEA226C02D15FEA40
:100EE000402C05D17FEA236CE4D15FEA412CE1D0AC
:100EF0005DF8040B704700BF844608466146FFE773
:100F00000FB5FFF7C9FF002848BF10F1000F0FBD54
:100F10004DF808EDFFF7F4FF0CBF012000205DF84D
:100F200008FB00BF4DF808EDFFF7EAFF34BF0120D2
:100F300000205DF808FB00BF4DF808EDFFF7E0FF6B
:100F400094BF012000205DF808FB00BF4DF808EDBC
:100F5000FFF7D2FF94BF012000205DF808FB00BF1F
:100F60004DF808EDFFF7C8FF34BF012000205DF801
:100F700008FB00BF4FEA4002B2F1FE4F0FD34FF023
:100F80009E03B3EB12620DD94FEA002343F00043F6
:100F900010F0004F23FA02F018BF404270474FF0A4
:100FA0000000704712F1610F01D1420205D110F02B
:100FB000004008BF6FF0004070474FF000007047DE
:100FC00042000ED2B2F1FE4F0BD34FF09E03B3EBB3
:100FD000126209D44FEA002343F0004323FA02F0DF
:100FE00070474FF00000704712F1610F01D14202CB
:100FF00002D14FF0FF3070474FF00000704700BF44
:1010000010B50446074B1868074BA3FB0030800956
:1010100000F048FD002221464FF0FF3000F002FDB5
:10102000002010BD04000020D34D621008B5074A0F
:10103000136843F010031360032000F0E1FC00206C
:10104000FFF7DEFF03F014FA002008BD0020024085
:10105000024A136801331360704700BFBC000020D0
:10106000014B1868704700BFBC00002030B583B04A
:101070000190FFF7F5FF0546019CB4F1FF3F00D05A
:101080000134FFF7EDFF401BA042FAD303B030BD9F
:101090000368D86C7047704710B5044603685A68F7
:1010A00012F0200F18D01A6812F0020F14D0826AC2
:1010B00012F0100F03D1826A42F4007282629A68C1
:1010C00002F46022B2F5602F38D0204602F004FD11
:1010D00023686FF012021A6023685A6812F0800FBA
:1010E00022D01A6812F0040F1ED0A26A12F0100F5C
:1010F00003D1A26A42F40052A2629A6802F4E0426A
:10110000B2F5E04F31D05A6812F4806F05D19A6879
:1011100002F46022B2F5602F24D0204602F0E4FCF5
:1011200023686FF00C021A6023685A6812F0400FAF
:1011300003D01B6813F0010F28D110BDE268002A0C
:10114000C3D15A6822F020025A60A36A23F4807344
:10115000A362A36A13F4805FB7D1A36A43F00103CB
:10116000A362B2E7E268002AD7D15A6822F080026F
:101170005A60A36A23F48053A362A36A13F4807FA6
:10118000CBD1A36A43F00103A362C6E7A36A43F489
:101190008033A3622046FFF77EFF23686FF00102D1
:1011A0001A60CAE730B482B00023019390F824306B
:1011B000012B00F08B800246012380F824304B681D
:1011C000062B29D80568686B03EB8303053B1F24B6
:1011D0009C4020EA04000C6804FA03F303436B63A9
:1011E0000B68092B38D91568E86803EB43031E3BED
:1011F00007249C4020EA04008C6804FA03F30343AC
:10120000EB600B68103B012B34D90020002382F8DF
:10121000243002B030BC70470C2B0ED80568286B08
:1012200003EB8303233B1F249C4020EA04000C684B
:1012300004FA03F303432B63D2E70568E86A03EB80
:101240008303413B1F249C4020EA04000C6804FAFD
:1012500003F30343EB62C3E71568286903EB430319
:1012600007249C4020EA04008C6804FA03F303433B
:101270002B61C6E713681648834205D0936A43F092
:10128000200393620120C1E7986810F4000F1BD17E
:10129000986840F4000098600B68102B01D0002083
:1012A000B4E70C4B1B680C49A1FB03139B0C03EB2D
:1012B00083035900019102E0019B013B0193019BD3
:1012C000002BF9D10020A1E700209FE70220A0E732
:1012D000002401400400002083DE1B4330B583B0AE
:1012E0000023019303689A6812F0010F2ED19A68C7
:1012F00042F001029A60174B1B68174AA2FB0323B6
:101300009B0C019302E0019B013B0193019B002B8D
:10131000F9D10446FFF7A4FE054623689B6813F045
:10132000010F11D1FFF79CFE401B0228F5D9A36ADB
:1013300043F01003A362E36A43F00103E362002376
:1013400084F82430012002E0002000E0002003B0F7
:1013500030BD00BF0400002083DE1B4390F8243022
:10136000012B6FD010B50446012380F82430FFF71D
:10137000B5FF0246002860D1A36A23F4706323F00E
:10138000010343F48073A362236830498B422CD05D
:10139000A16A21F48011A162596811F4806F05D00F
:1013A000A16A21F4405141F48051A162A16A11F473
:1013B000805F30D0E16A21F00601E162002184F80B
:1013C00024106FF00201196021684B6843F020037C
:1013D0004B602368996801F46021B1F5602F1DD03E
:1013E000996841F4801199602AE0A1F5806149680B
:1013F00011F4702FCCD0A16A41F48011A16214497C
:10140000496811F4806FD1D0A16A21F4405141F4B0
:101410008051A162CAE70021E162CFE70B498B420C
:1014200004D0996841F4A001996009E0A1F58061B8
:10143000496811F4702FD3D1F3E7002384F82430E6
:10144000104610BD02221046704700BF0028014020
:101450000024014038B503689A6812F0010F01D1E9
:10146000002038BD04469A6822F001029A60FFF716
:10147000F7FD054623689B6813F0010F0ED0FFF7B8
:10148000EFFD401B0228F5D9A36A43F01003A362C5
:10149000E36A43F00103E3620120E2E70020E0E7B2
:1014A00000287FD038B50446836A002B33D020460D
:1014B000FFF7D0FFA36A13F010036DD100286BD1A2
:1014C000A26A22F4885222F0020242F00202A262D0
:1014D0006268E1690A43E56842EA4502A168B1F53C
:1014E000807F21D001291CD0616901291FD0256886
:1014F000696821F469410B436B6021688D682A4B50
:101500002B4013438B60A368B3F5807F20D0012B61
:101510001ED000211FE0C36280F8243003F002F8DF
:10152000C5E74FF48073DFE74FF48073DCE735B92C
:10153000A169013943EA413343F40063D7E7A16A63
:1015400041F02001A162E16A41F00101E162CEE7D0
:101550002369013B19052568EB6A23F470030B43EB
:10156000EB6223689968114B0B409A420BD0A36A37
:1015700023F0120343F01003A362E36A43F0010374
:10158000E36201200DE00023E362A36A23F003037A
:1015900043F00103A36204E0A36A43F01003A362D3
:1015A000012038BD01207047FDF7E1FFFE0E1FFF4F
:1015B00070B582B00023019390F82430012B68D0DD
:1015C0000446012380F82430FFF744FF054628B184
:1015D000002384F82430284602B070BDA36A23F4A7
:1015E000885323F0020343F00203A3622A4B1E68D0
:1015F000022001F0A3F8B6FBF0F04000019002E0F9
:10160000019B013B0193019B002BF9D12046FFF781
:1016100065FE2268936843F008039360FFF720FD9E
:10162000064623689A6812F0080F0FD0FFF718FDDE
:10163000801B0A28F5D9A36A23F0120343F0100394
:10164000A362002384F824300125C4E79A6842F09D
:1016500004029A60FFF704FD064623689B6813F0B6
:10166000040F0FD0FFF7FCFC801B0A28F5D9A36AF2
:1016700023F0120343F01003A362002384F8243004
:101680000125A8E7A36A23F0030343F00103A36243
:101690009EE702259FE700BF0400002090F8243059
:1016A000012B59D010B50446012380F82430FFF7F0
:1016B00015FE024600284AD1A36A23F4405323F0C2
:1016C000010343F48053A3622168254B994224D03F
:1016D000A36A23F48013A362A36A13F4807F01D169
:1016E0000023E362002384F824306FF004030B60CE
:1016F00021684B6843F080034B602368596811F4FC
:10170000806F27D1996801F4E041B1F5E04F0FD027
:10171000996841F4004199601CE0A3F580635B681F
:1017200013F4702FD4D0A36A43F48013A362D3E7D9
:101730000B498B4204D0996841F40211996009E089
:10174000A1F58061496811F4702FE1D1F3E700231E
:1017500084F82430104610BD02221046704700BFA6
:1017600000280140032909D0042904D0022908D007
:101770000368D86B70470368986C70470368586CAF
:1017800070470368186C7047F0B482B003460022BB
:101790000192806893F82420012A00F0FC80012245
:1017A00083F8242000284CD14A68012A3FD09A6A45
:1017B00042F020029A6201201C68A26812F0010F18
:1017C00007D1A26822F4E04222F00102CD692A4347
:1017D000A2608A69012A5ED04A69012A6BD00A6830
:1017E000092A76D91E68F46802EB42021E3A0725E0
:1017F000954024EA05048D6805FA02F22243F2605E
:101800000A68103A012A72D94A68022A00F08880D0
:10181000032A00F08F80012A6FD01C68226A22F40C
:101820007F6222F00F02CD682A4322626EE01868C0
:10183000826B920D92050C6842EAC43282630020EA
:10184000BAE74A680C69A24215D81F68BD6B101B25
:1018500000EB80000F301F22824042F4401225EA44
:101860000205621E0E6806FA00F040EA02522A43A0
:10187000BA630020A0E71E68B56B121B02EB820260
:101880000F321F2000FA02F242F4401225EA02024F
:10189000B263002090E7CA69B2F5E04F05D09A6ABA
:1018A00042F020029A62012096E71C68626842F4C6
:1018B0008062626090E78A692AB91C68626842F4B3
:1018C000805262608BE79A6A42F020029A6201209D
:1018D00085E71E68346902EB42020725954024EA39
:1018E00005048D6805FA02F22243326188E71C681C
:1018F000A26842F40002A26086E71C68626922F4D2
:101900007F6222F00F02CD682A4362610A68103AB2
:10191000012A19D9002283F8242002B0F0BC7047B4
:101920001C68A26922F47F6222F00F02CD682A436C
:10193000A261EBE71C68E26922F47F6222F00F02E9
:10194000CD682A43E261E1E71A68144CA24205D04F
:101950009A6A42F020029A620120DBE7946814F44C
:10196000000FD7D1946844F4000494600A68102AE8
:10197000D0D10B4A12680B49A1FB0212920C02EB68
:1019800082025100019102E0019A013A0192019A0A
:10199000002AF9D1BEE70220BFE700BF00240140C2
:1019A0000400002083DE1B43034690F82420012A14
:1019B00020D0012280F824200268906810F0010FE6
:1019C00007D10D48806810F0010F02D10B48824208
:1019D00008D09A6A42F020029A620120002283F81D
:1019E00024207047506820F470200968014351603A
:1019F0000020F3E702207047002801400024014046
:101A0000074AD36823F4E0631B041B0C000200F4B4
:101A1000E060184340F0BF6040F40030D060704791
:101A200000ED00E030B4174BDB68C3F30223C3F1D1
:101A30000704042C28BF04241D1D062D18D9033BC0
:101A40004FF0FF3505FA04F421EA0401994005FA44
:101A500003F322EA0303194300280BDB0901C9B28F
:101A600000F1604000F5614080F8001330BC704721
:101A70000023E5E700F00F000901C9B2024B195439
:101A8000F4E700BF00ED00E014ED00E000F01F02FD
:101A9000400901239340024A42F82030704700BFBA
:101AA00000E100E00138B0F1807F0AD2064B5860B7
:101AB000064AF02182F823100020986007221A605D
:101AC00070470120704700BF10E000E000ED00E02B
:101AD000042805D0054A136823F0040313607047F7
:101AE000024A136843F004031360704710E000E0FB
:101AF000704708B5FFF7FCFF08BD70B4066CC56BF6
:101B00000124B4406C60046863604368102B05D006
:101B1000036899600368DA6070BC704703689A6074
:101B20000368D960F8E70000002830D010B40346FD
:101B30000168184A0A441848A0FB020212099200E0
:101B40001A64164ADA63022283F82120086820F416
:101B50007F5020F030005A689C682243DC682243A2
:101B60001C6922435C6922439C692243DC6922434D
:101B700002430A6000209862D86218635863986331
:101B8000012283F8212083F8200010BC7047012037
:101B9000704700BFF8FFFDBFCDCCCCCC00000240A9
:101BA00038B590F82040012C32D0012480F8204034
:101BB00090F82140012C04D0002380F8203002202E
:101BC00038BD0446022084F821000020A063256867
:101BD000286820F0010028602046FFF78EFFE36AA6
:101BE0005BB12268136843F00E0313602268136828
:101BF00043F0010313600020E2E72268136823F03A
:101C0000040313602268136843F00A031360EDE7CE
:101C10000220D5E708B590F82130022B03D0042329
:101C20008363012008BD0268136823F00E0313606C
:101C30000268136823F0010313600368194A934292
:101C400014D0143293421FD0143293421ED0143257
:101C500093421ED0143293421ED01432934202D0CB
:101C60004FF0807203E04FF4801200E001220E4B2F
:101C70005A60012380F82130002380F82030436B24
:101C80006BB198470020CDE71022F0E74FF4807247
:101C9000EDE74FF48052EAE74FF48032E7E70020A7
:101CA000C0E700BF080002400000024038B5C36B27
:101CB0001A6804682568016C04238B40134235D0F0
:101CC00015F0040F32D0236813F0200F03D12368DE
:101CD00023F0040323600368434A934214D0143270
:101CE000934218D01432934217D01432934217D033
:101CF0001432934217D01432934202D04FF08062D4
:101D000003E04FF4800200E00422384B5A60C36ABB
:101D100003B1984738BD4022F7E74FF48062F4E7FB
:101D20004FF48042F1E74FF48022EEE702238B402C
:101D300013423CD015F0020F39D0236813F0200F66
:101D400006D1236823F00A032360012380F82130A1
:101D50000368254A934214D0143293421CD01432A3
:101D600093421BD0143293421BD0143293421BD0A7
:101D70001432934202D04FF0007203E04FF400128D
:101D800000E00222194B5A60002380F82030836A59
:101D9000002BBFD09847BDE72022F3E74FF4007235
:101DA000F0E74FF40052EDE74FF40032EAE7082382
:101DB00003FA01F11142ADD015F0080FAAD0236843
:101DC00023F00E032360026CC16B012303FA02F2BD
:101DD0004A60836380F82130002380F82030036B51
:101DE000002B97D0984795E708000240000002407A
:101DF000F0B482B00026354668E0002C00F09680F2
:101E0000012C00D1CE68FF2B00F2A4808446FF2B6A
:101E100000F2A380AC00DCF800200F27A74022EAE4
:101E2000070206FA04F42243CCF800204A6812F0B4
:101E3000805F4AD05B4A946944F0010494619269DE
:101E400002F001020192019AAC08A71C564A52F80E
:101E5000272005F00307BF004FF00F0C0CFA07FC1A
:101E600022EA0C0C514A90427DD002F580629042E9
:101E70007BD002F58062904273D00322BA4042EADE
:101E80000C020234484F47F824204A6812F4803F7D
:101E90006DD0474C22681A4322604A6812F4003F12
:101EA0006BD0434C62681A4362604A6812F4801F28
:101EB00069D03F4CA2681A43A2604A6812F4001F1E
:101EC00067D03B4CE2681343E36001350F2D66D8C1
:101ED0000122AA400B6813409A42F6D14C68122C9A
:101EE0002ED009D8022C28D087D9032C2ED0112C23
:101EF00089D1CE68043686E72E4FBC4216D00CD965
:101F00002D4FBC4212D007F58037BC420ED0A7F54A
:101F10008017BC427FF477AF08E0A7F58017BC427A
:101F200004D007F58037BC427FF46DAF8C687CB17C
:101F3000012C08D04261082665E7CE68083662E7C2
:101F4000CE680C365FE7026108265CE700265AE798
:101F5000042658E700F1040C59E7A5F10804A40091
:101F600059E702228AE7002288E7012286E7104C1F
:101F7000226822EA030222608FE70D4C626822EA9F
:101F80000302626091E70A4CA26822EA0302A2609F
:101F900093E7074CE26822EA0303E36095E702B0A7
:101FA000F0BC7047001002400000014000080140F2
:101FB00000040140000021100000311012B9090492
:101FC0000161704701617047C3685940C160704743
:101FD00008B5054B5B69034200D108BD024B58614F
:101FE00001F0D8FDF9E700BF0004014082B0084BC2
:101FF0001B68084AA2FB03235B0A00FB03F0019065
:1020000000BF019B5A1E0192002BF9D102B070470C
:1020100004000020D34D621070B582B004460368FE
:1020200013F0010F2CD0AB4B5B6803F00C03042BB7
:102030001DD0A84B5B6803F00C03082B12D063681B
:10204000B3F5803F41D0002B55D103F1804303F518
:1020500004331A6822F480321A601A6822F480224B
:102060001A6037E09B4B5B6813F4803FE7D0994BD5
:102070001B6813F4003F03D06368002B00F0AE81AF
:10208000236813F0020F76D0924B5B6813F00C0FAD
:102090005FD0904B5B6803F00C03082B54D023698E
:1020A000002B00F08A808C4B01221A60FEF7D8FFCB
:1020B0000546884B1B6813F0020F75D1FEF7D0FF61
:1020C000401B0228F5D903208BE1824A136843F4B0
:1020D00080331360636843B3FEF7C2FF05467D4B50
:1020E0001B6813F4003FCBD1FEF7BAFF401B6428F6
:1020F000F5D9032075E1B3F5A02F09D0754B1A6807
:1021000022F480321A601A6822F480221A60E1E711
:1021100003F18043A3F53C331A6842F480221A602D
:102120001A6842F480321A60D4E7FEF799FF054638
:10213000684B1B6813F4003FA2D0FEF791FF401BD1
:102140006428F5D903204CE1624B5B6813F4803FAF
:10215000A5D1604B1B6813F0020F04D02369012B3B
:1021600001D001203DE15B4A136823F0F803616967
:1021700043EAC1031360236813F0080F32D0A36948
:10218000002B5BD0554B01221A60FEF769FF054614
:10219000504B5B6A13F0020F21D1FEF761FF401B29
:1021A0000228F5D903201CE14A4A136823F0F803FA
:1021B000616943EAC1031360DDE7474B00221A60FF
:1021C000FEF74EFF0546434B1B6813F0020FD2D0BB
:1021D000FEF746FF401B0228F5D9032001E101204C
:1021E000FFF704FF236813F0040F00F09780394BCA
:1021F000DB6913F0805F33D1364BDA6942F08052ED
:10220000DA61DB6903F080530193019B0125344BB4
:102210001B6813F4807F25D0E368012B36D0002B98
:102220004CD103F1804303F504331A6A22F0010212
:102230001A621A6A22F004021A622CE0274B00226A
:102240001A60FEF70DFF0546224B5B6A13F0020F82
:10225000C8D0FEF705FF401B0228F5D90320C0E0D7
:102260000025D4E71E4A136843F480731360FEF719
:10227000F7FE06461A4B1B6813F4807FCCD1FEF79D
:10228000EFFE801B6428F5D90320AAE0114A136AE7
:1022900043F001031362E36873B3FEF7E1FE064601
:1022A0000C4B1B6A13F0020F37D1FEF7D9FE801BCF
:1022B00041F288339842F3D9032092E0052B11D0E4
:1022C000044B1A6A22F001021A621A6A22F004020E
:1022D0001A62E0E7001002400000424280044242DD
:1022E00000700040414B1A6A42F004021A621A6AF6
:1022F00042F001021A62CEE7FEF7B2FE06463B4B01
:102300001B6A13F0020F08D0FEF7AAFE801B41F2F1
:1023100088339842F3D9032063E0E5B9E369002BE1
:102320005ED0324A526802F00C02082A5BD0022BBF
:1023300017D02F4B00221A60FEF792FE04462B4B5B
:102340001B6813F0007F47D0FEF78AFE001B0228AF
:10235000F5D9032045E0254AD36923F08053D361A2
:10236000DCE7234B00221A60FEF77AFE05461F4B7E
:102370001B6813F0007F06D0FEF772FE401B022898
:10238000F5D903202DE0236AB3F5803F1AD0174911
:102390004B6823F47413226A606A024313434B6050
:1023A000134B01221A60FEF75BFE04460F4B1B68BD
:1023B00013F0007F0ED1FEF753FE001B0228F5D963
:1023C00003200EE0094A536823F40033A1680B434D
:1023D0005360DCE7002004E0002002E0012000E080
:1023E000002002B070BD0120FBE700BF00100240DA
:1023F0006000424210B487B0164C94E80F000DF113
:10240000180C0CE90F00238AADF80430124B5B68FE
:1024100003F00C02082A1AD1C3F38342624412F873
:10242000100C13F4803F05D10C4B03FB00F007B0F8
:1024300010BC7047084B5B68C3F34043634413F818
:10244000142C074BB3FBF2F300FB03F0EFE7044857
:10245000EDE700BF6C4E00080010024000093D008F
:1024600000127A00594B1B6803F007038B420CD211
:10247000564A136823F007030B431360136803F0F5
:1024800007038B4201D00120704770B5036813F039
:10249000020F06D04E4A536823F0F00384682343AA
:1024A00053600C460546036813F0010F52D0436891
:1024B000012B23D0022B28D0454A126812F0020FBC
:1024C00000F0828042494A6822F0030213434B60C5
:1024D000FEF7C6FD06466B68012B1DD0022B2AD0E5
:1024E0003B4B5B6813F00C0F34D0FEF7B9FD801B3B
:1024F00041F288339842F3D9032064E0344A1268E9
:1025000012F4003FDED101205DE0314A126812F082
:10251000007FD7D1012056E02D4B5B6803F00C0300
:10252000042B17D0FEF79CFD801B41F288339842A4
:10253000F2D9032047E0264B5B6803F00C03082B1D
:1025400008D0FEF78DFD801B41F288339842F2D906
:10255000032038E01D4B1B6803F00703A3420CD98E
:102560001A4A136823F0070323431360136803F028
:102570000703A34201D0012025E02B6813F0040FCC
:1025800006D0134A536823F4E063E9680B435360B1
:102590002B6813F0080F07D00D4A536823F46053DB
:1025A000296943EAC1035360FFF724FF084B5B68C6
:1025B000C3F30313074AD35CD840074B18600020CD
:1025C000FEF71EFD002070BD0120FCE70020024048
:1025D00000100240944E000804000020014B1868CF
:1025E000704700BF0400002008B5FFF7F7FF044B59
:1025F0005B68C3F30223034AD35CD84008BD00BF25
:1026000000100240A44E000808B5FFF7E7FF044B96
:102610005B68C3F3C223034AD35CD84008BD00BF44
:1026200000100240A44E000870B582B00446036852
:1026300013F0010F34D03E4BDB6913F0805F48D1BB
:102640003B4BDA6942F08052DA61DB6903F0805378
:102650000193019B0125374B1B6813F4807F3AD00F
:10266000334B1B6A13F4407311D0626802F440725A
:102670009A420CD02E4A136A23F440702E49012648
:102680000E6000260E60106213F0010F37D1284A49
:10269000136A23F4407361680B431362002D3FD12A
:1026A000236813F0020F06D0214A536823F44043F5
:1026B000A1680B435360236813F0100F35D01C4AF8
:1026C000536823F48003E1680B435360002002B099
:1026D00070BD0025BFE7174A136843F48073136089
:1026E000FEF7BEFC0646134B1B6813F4807FB7D180
:1026F000FEF7B6FC801B6428F5D90320E7E7FEF758
:10270000AFFC06460A4B1B6A13F0020FBFD1FEF75F
:10271000A7FC801B41F288339842F3D90320D6E707
:10272000D36923F08053D361BAE70020CFE700BF1D
:1027300000100240007000404004424230B587B0B3
:102740000546384C94E80F000DF1180C0CE90F0009
:10275000238AADF80430022D50D0102D03D0012D66
:102760002BD0002054E0304B5A681B6813F0807F58
:1027700050D0C2F3834306A90B4413F8100C12F493
:10278000803F16D0284B5B68C3F340430B4413F8DB
:10279000142C264BB3FBF2F300FB03F0224B5B68D7
:1027A00013F4800F34D14000214BA3FB00304008CC
:1027B0002EE0204B03FB00F0F0E71B4B1B6A40F2BE
:1027C00002321A40B2F5817F26D003F44073B3F58C
:1027D000007F04D0B3F5407F09D0002018E0124AF2
:1027E000526A12F0020FF5D049F6404010E00E4B4D
:1027F0001B6813F4003F12D1002009E0FFF704FF2B
:10280000094B5B68C3F3813301335B00B0FBF3F02A
:1028100007B030BD0020FBE74FF40040F8E74FF26F
:102820002440F5E7804E00080010024000127A00B4
:10283000ABAAAAAA00093D0070B4036A23F0010301
:102840000362036A4268846924F073040D6845EAF0
:10285000040623F002048B6823430D4DA84209D0DF
:102860000B4DA8420DD0426086614A684263036204
:1028700070BC704723F00803CC68234323F00403A3
:10288000EEE722F440724C6914438A692243EAE776
:10289000002C014030B4036A23F480730362036A9E
:1028A0004268C46924F073040D682C4323F4007358
:1028B0008D6843EA05230F4DA84209D00D4DA8426B
:1028C0000ED04260C4614A68C263036230BC704784
:1028D00023F40063CD6843EA052323F48063EDE726
:1028E00022F440524D6942EA05128D6942EA05120E
:1028F000E7E700BF002C014030B4036A23F48053A3
:102900000362036A4468C26922F4E6420D6842EA3F
:10291000052223F400538D6843EA0533074DA8428E
:1029200006D04460C2614A680264036230BC7047EA
:1029300024F480444D6944EA8514F2E7002C0140F8
:1029400010B4036A046A24F001040462846924F068
:10295000F00444EA021223F00A030B43826103628B
:1029600010BC704710B4036A23F01003036284693B
:10297000036A24F4704444EA023223F0A00343EAD9
:1029800001138261036210BC7047836823F07003F7
:1029900041F0070119438160704710B4846824F442
:1029A0007F4442EA03230B432343836010BC7047F8
:1029B0000268D36843F00103D3600268136843F0F0
:1029C0000103136000207047704790F83C30012BE2
:1029D0007DD010B50446012380F83C30022380F8F6
:1029E0003D300268936823F47F4323F077039360BC
:1029F0000B68402B57D010D9702B3ED01FD8502BCE
:102A000047D0602B32D1CA6849680068FFF7AAFF37
:102A100060212068FFF7B9FF28E0102B4DD008D9BE
:102A2000202B4FD0302B21D130210068FFF7ADFF94
:102A30001CE0DBB900210068FFF7A7FF16E0B3F543
:102A4000805F0ED0B3F5005F10D1CB684A6889680B
:102A50000068FFF7A2FF2268936843F48043936005
:102A600004E00268936823F007039360012384F86D
:102A70003D30002084F83C0010BDCB684A6889686E
:102A80000068FFF78AFF2268936843F0770393603A
:102A9000ECE7CA6849680068FFF752FF50212068D8
:102AA000FFF773FFE2E7CA6849680068FFF748FF6D
:102AB00040212068FFF769FFD8E710210068FFF781
:102AC00064FFD3E720210068FFF75FFFCEE7022015
:102AD000704770477047704710B5044603681A691D
:102AE00012F0020F11D0DA6812F0020F0DD06FF061
:102AF00002021A610123037703689B6913F0030F35
:102B000070D0FFF7E7FF0023237723681A6912F0DC
:102B1000040F12D0DA6812F0040F0ED06FF0040226
:102B20001A610223237723689B6913F4407F5FD0E7
:102B30002046FFF7CFFF0023237723681A6912F09E
:102B4000080F12D0DA6812F0080F0ED06FF00802EA
:102B50001A61042323772368DB6913F0030F4ED037
:102B60002046FFF7B7FF0023237723681A6912F086
:102B7000100F12D0DA6812F0100F0ED06FF01002A2
:102B80001A61082323772368DB6913F4407F3DD063
:102B90002046FFF79FFF0023237723681A6912F06E
:102BA000010F03D0DA6812F0010F36D123681A69D9
:102BB00012F0800F03D0DA6812F0800F34D123684E
:102BC0001A6912F0400F03D0DA6812F0400F32D1C8
:102BD00023681A6912F0200F03D0DA6812F0200F70
:102BE00030D110BDFFF775FF204600F055FF8AE792
:102BF0002046FFF76EFF204600F04EFF9BE7204681
:102C0000FFF767FF204600F047FFACE72046FFF7DD
:102C100060FF204600F040FFBDE76FF001021A613F
:102C2000204600F045FFC1E76FF080021A612046A0
:102C300000F094F9C3E76FF040021A612046FFF7F5
:102C40004AFFC5E76FF020021A61204600F085F9BF
:102C5000C7E700000368174A904206D0B0F1804FE2
:102C600003D0A2F59432904203D123F070034A6856
:102C70001343104A904206D0B0F1804F03D0A2F522
:102C80009432904203D123F44073CA68134323F073
:102C900080034A69134303608B68C3620B688362D5
:102CA000044B984202D00123436170470B690363D0
:102CB000F9E700BF002C0140A8B110B5044690F818
:102CC0003D305BB1022384F83D30211D2068FFF7C1
:102CD000C1FF012384F83D30002010BD80F83C3056
:102CE00001F08EFCEEE701207047A8B110B5044654
:102CF00090F83D305BB1022384F83D30211D2068FF
:102D0000FFF7A8FF012384F83D30002010BD80F8B4
:102D10003C30FFF759FEEEE70120704730B4036AFC
:102D200023F010030362036A4468826922F4E642D6
:102D30000D6842EA052223F020038D6843EA05135B
:102D40000E4DA84209D00D4DA8420ED044608261BC
:102D50004A688263036230BC704723F08003CD6809
:102D600043EA051323F04003EDE724F440644D6982
:102D700044EA85048D6944EA8504E7E7002C0140B4
:102D800090F83C30012B28D010B50446012380F880
:102D90003C30022380F83D300C2A0BD8DFE802F0EB
:102DA000070A0A0A110A0A0A150A0A0A190000681B
:102DB000FFF742FD012384F83D30002084F83C00F9
:102DC00010BD0068FFF7AAFFF4E70068FFF762FD97
:102DD000F0E70068FFF790FDECE70220704710B4C1
:102DE000012303FA01F4036A23EA04030362036A7A
:102DF0008A401343036210BC7047000010B50446BC
:102E00000C290DD8DFE801F0070C0C0C1B0C0C0C86
:102E1000210C0C0C27000268D36843F00203D36036
:102E200001222068FFF7DBFF2368104A934218D085
:102E30002268136843F001031360002010BD02688C
:102E4000D36843F00403D360EAE70268D36843F031
:102E50000803D360E4E70268D36843F01003D3604B
:102E6000DEE75A6C42F400425A64E1E7002C01406C
:102E700010B4042303FA01F4036A23EA040303628F
:102E8000036A8A401343036210BC704710B50446BE
:102E900004220068FFF7ECFF2268536C43F4004300
:102EA00053642268136843F001031360002010BDCF
:102EB00090F83C30012B25D0012380F83C30CB68C2
:102EC00023F440738A68134323F480634A681343EE
:102ED00023F400630A68134323F480530A691343FD
:102EE00023F400534A69134323F480438A6913434C
:102EF00023F40043134302685364002380F83C30FA
:102F0000184670470220704790F83C30012B22D0C1
:102F100030B4012280F83C20022380F83D30046860
:102F2000636823F070036360046863680D682B4373
:102F300063600468A36823F08003A3600468A36847
:102F400049680B43A36080F83D20002380F83C30A3
:102F5000184630BC704702207047704770470268BF
:102F6000D36823F0C003D360202380F83930704742
:102F70000268D36823F49073D3600268536923F026
:102F800001035361202380F83A30704790F83930BC
:102F9000DBB2212B2AD18368B3F5805F16D0036A98
:102FA0005A1C02621A7803685A60C38C013B9BB2B8
:102FB000C384EBB90268D36823F08003D36002684E
:102FC000D36843F04003D36000207047036A1B8836
:102FD0000268C3F30803536003691BB9036A023331
:102FE0000362E2E7036A01330362DEE7022070470F
:102FF000002070472DE9F84305460268136923F461
:103000004053C1680B4313618368026913434269EB
:1030100013430168CA6822F4B05222F00C02134331
:10302000CB600268536923F4407381690B43536199
:103030000268594B9A4257D0FFF7D6FA00EB80004E
:1030400000EB80006C68A400B0FBF4F4534FA7FBC6
:10305000043464092601FFF7C7FA00EB800000EB97
:1030600080006C68A400B0FBF4F9FFF7BDFA00EB38
:10307000800000EB80006C68A400B0FBF4F4A7FBB8
:10308000043464094FF0640808FB149424013234BA
:10309000A7FB0434640904F0F0043444FFF7A4FAF5
:1030A00000EB800000EB80006E68B600B0FBF6F627
:1030B000FFF79AFA00EB800000EB80006B689B0042
:1030C000B0FBF3F0A7FB0030400908FB10684FEAA3
:1030D000081808F13208A7FB0837C7F343172B6815
:1030E00027449F60BDE8F883FFF78EFA00EB80006D
:1030F00000EB80006C68A400B0FBF4F4274FA7FB42
:10310000043464092601FFF77FFA00EB800000EB2E
:1031100080006C68A400B0FBF4F9FFF775FA00EBCF
:10312000800000EB80006C68A400B0FBF4F4A7FB07
:10313000043464094FF0640808FB14942401323409
:10314000A7FB0434640904F0F0043444FFF75CFA8C
:1031500000EB800000EB80006E68B600B0FBF6F676
:10316000FFF752FA00EB800000EB80006B689B00D9
:10317000B0FBF3F0A7FB0030400908FB10684FEAF2
:10318000081808F13208A7FB0837C7F343172B6864
:1031900027449F60A6E700BF003801401F85EB5120
:1031A00058B310B5044690F839300BB3242384F893
:1031B00039302268D36823F40053D3602046FFF7E8
:1031C00019FF2268136923F490431361226853693D
:1031D00023F02A0353612268D36843F40053D36079
:1031E0000020E063202384F8393084F83A3010BDA1
:1031F00080F8383001F078FAD8E7012070470000F5
:1032000038B590F83940E4B2202C31D1002931D0C2
:10321000002A31D090F83830012B2FD013460446C5
:10322000012280F8382001628384C3840025C563AD
:10323000212280F83920026B11489062226B1148DC
:10324000D062226B10481063226B556322680432EF
:10325000206BFEF7A5FC23686FF040021A6084F82B
:1032600038502268536943F080035361284600E0D8
:10327000022038BD0120FCE70120FAE70220F8E730
:103280008F320008DB32000885330008704708B52C
:10329000436A0268126812F0200F0CD10022DA840F
:1032A00019684A6922F080024A611A68D36843F0BB
:1032B0004003D36008BD1846FFF7E8FFFAE708B5FA
:1032C0000168CB6823F04003CB60202380F83930BD
:1032D000FFF7DCFF002008BD704708B5406AFFF724
:1032E000FBFF08BD704708B590F83A30DBB2222BDF
:1032F00045D18368B3F5805F0ED0036903BB0368D3
:103300005A68836A591C81621A70C38D013B9BB253
:10331000C385F3B1002033E0826A036943B90368CF
:103320005B68C3F308031380836A02338362ECE7AC
:1033300003685B68DBB21380836A01338362E4E76E
:1033400003685B68826A511C816203F07F0313701B
:10335000DBE70268D36823F02003D3600268D368F8
:1033600023F48073D3600268536923F0010353612F
:10337000202380F83A30FFF7B5FF002000E002205C
:1033800008BD704710B5446A23685A6994F839300B
:10339000DBB2212B10D023685A6902F0400294F866
:1033A0003A30DBB2222B11D0E36B43F01003E3631E
:1033B0002046FFF7E6FF10BD02F08002002AEAD0A7
:1033C0000023E3842046FFF7CAFDE4E7002AEBD0A0
:1033D0000023E3852046FFF7CBFDE5E710B5044663
:1033E00002681368D168526913F00F0005D113F019
:1033F000200F02D011F0200F53D1002867D012F017
:10340000010202D111F4907F61D013F0010F06D0B8
:1034100011F4807F03D0E06B40F00100E06313F013
:10342000040F04D01AB1E06B40F00200E06313F027
:10343000020F04D01AB1E06B40F00400E06313F017
:10344000080F04D01AB1E26B42F00802E263E26BAB
:10345000002A48D013F0200F02D011F0200F24D101
:1034600023685B6903F04003E26B12F0080F00D1A0
:103470003BB32046FFF77CFD23685A6912F0400FEA
:103480001BD05A6922F040025A61636B8BB11A4A11
:103490005A63606BFEF7BEFB28B3606B436B9847C3
:1034A00021E02046FFF71FFF1DE02046FFF71BFF2E
:1034B000D6E72046FFF765FF15E02046FFF761FFDE
:1034C00011E02046FFF75DFF0023E3630BE013F0FC
:1034D000800F02D011F0800F06D113F0400F02D000
:1034E00011F0400F04D110BD2046FFF74FFDFAE761
:1034F0002046FFF7E4FEF6E7FD34000808B5406A11
:103500000023C385C384FFF73CFF08BD0000000013
:10351000F8B50B4601461846FDF75CFAFCF77CFF50
:1035200006460F4620A3D3E90023FCF7CDFFFDF7A5
:10353000FDF905461EA3D3E9002330463946FCF7C2
:10354000C3FF06460F461C4C2068FCF765FF324659
:103550003B46FCF703FEFDF7E9F920602946FDF73D
:103560003BFA0546646815492046FDF735FA0646DC
:1035700001462846FDF7F4FC60B910492046FDF7E6
:1035800029FA044601462846FDF7CCFC38B90A4B17
:103590005D6001E0084B5E60074B5868F8BD064B64
:1035A0005C60F9E7AFF300802D431CEBE2361A3F75
:1035B0008DEDB5A0F7C6B03E8C0000200000A04005
:1035C0002DE9F8430C46FCF727FF93A3D3E900232A
:1035D000FCF77AFFFDF7AAF905462046FCF71CFF29
:1035E0008FA3D3E90023FCF76FFFFDF79FF9064691
:1035F00001462846FDF7F0F94FF07C51FDF7F4FA4B
:10360000044629463046FDF7E5F94FF07C51FDF7B9
:10361000EBFA054600212046FDF798FC28B1002171
:103620002846FDF77FFC002859D100212046FDF7F0
:1036300079FC002840F08C8000212046FDF786FCB4
:10364000002800F0948000212846FDF77FFC002828
:1036500000F08D802046FCF7DFFE73A3D3E9002342
:10366000FCF77CFD804689462846FCF7D5FE0246DD
:103670000B4640464946FCF76FFD00226E4BFCF7B7
:1036800023FF6BA3D3E90023FCF768FDFDF72EF9B8
:1036900080B26A4F3880FDF753FA80462946FDF71D
:1036A0009BF9FDF78DFC788021464046FDF792F9A5
:1036B000FDF786FCB88000212046FDF733FC00288A
:1036C00062D100212046FDF741FC30B1002128469F
:1036D000FDF728FC002840F09680BDE8F883002123
:1036E0003046FDF73DFC00289FD03046FCF794FEA5
:1036F0004DA3D3E90023FCF731FD804689462846D7
:10370000FCF78AFE02460B4640464946FCF724FD7C
:103710000022494BFCF7D8FE45A3D3E90023FCF770
:103720001DFDFDF7E3F880B2444F3880FDF708FA3D
:103730002946FDF751F9FDF743FC80B27880FDF78B
:10374000FFF93146FDF746F9FDF73AFCB88073E71B
:1037500000212846FDF7FAFB00283FF46DAF002159
:103760003046FDF7E9FB00283FF466AFBDE70021D6
:103770002046FDF7D7FB00289DD000212846FDF705
:10378000D1FB002897D065E700212846FDF7DEFB36
:10379000002896D000213046FDF7E2FB002890D0AB
:1037A0002046FCF739FE20A3D3E90023FCF7D6FC22
:1037B000804689463046FCF72FFE02460B464046BF
:1037C0004946FCF7C9FC00221B4BFCF77DFE18A301
:1037D000D3E90023FCF7C2FCFDF788F880B2174D4F
:1037E0002880FDF7ADF92146FDF7F4F8FDF7E8FB79
:1037F00080B2A880FDF7A4F93146FDF7EDF8FDF79A
:10380000DFFB688069E700213046FDF795FB002863
:103810003FF463AFC4E700BF119B5F65BF601C3F0F
:10382000FCA9F1D24D6210BFFCA9F1D24D62003F5C
:10383000FCA9F1D24D62F03E0000E03FF80000200C
:103840002DE9F04F83B0884616469B46002501952A
:1038500002AF47F8085DFDF773F904464046FDF7EF
:103860006FF9814646492046FDF7BEF98046454935
:103870004846FDF7B9F901464046FDF7ADF88046E8
:103880003A4601A9304601F05BF8DDF80490009F4C
:1038900039462046FDF7A8F9824641464846FDF7DD
:1038A000A3F901465046FDF797F8824604F100411E
:1038B0004846FDF799F9044641463846FDF794F924
:1038C00001462046FDF788F804465846FDF738F9CA
:1038D00001462046FFF71CFE044629465046FFF7E6
:1038E00017FE05460146204601F004F90746264921
:1038F000FDF736FB70B139462348FDF729FA074634
:1039000001462046FDF770F9044639462846FDF782
:103910006BF90546DDF80480009F29463846FDF71F
:1039200063F9814621464046FDF75EF90146484667
:10393000FDF750F8814629464046FDF755F9054602
:1039400021463846FDF750F901462846FDF744F870
:1039500004463046FCF760FD07A3D3E90023FCF7DB
:10396000B3FDFCF7E3FF024621464846FFF728FE79
:1039700003B0BDE8F08F00BF11E7FAA146DF913F29
:103980003ACD133F3ACD933F0078FF46F0B587B06C
:10399000284B9A6942F004029A619A6902F0040283
:1039A0000092009A9A6942F008029A619B6903F0BA
:1039B00008030193019B204E002204213046FEF7AC
:1039C000FDFA072502951D4B03930127049702A9D1
:1039D0001B48FEF70DFA0423029303970024049476
:1039E0000223059302A93046FEF702FA4FF48073D2
:1039F00002930394049702A93046FEF7F9F9224690
:103A000021460620FEF70EF80620FEF73FF8224674
:103A100021462846FEF706F82846FEF737F82246E4
:103A200021460820FDF7FEFF0820FEF72FF807B01B
:103A3000F0BD00BF00100240000C0140000031103A
:103A40000008014000B583B0124B5A6942F00102F0
:103A50005A615B6903F001030193019B0022114647
:103A60000B20FDF7DFFF0B20FEF710F800221146B8
:103A70000E20FDF7D7FF0E20FEF708F800221146B2
:103A80000F20FDF7CFFF0F20FEF700F803B05DF821
:103A900004FB00BF00100240037F082B00D07047DA
:103AA000024A936843F402139360F8E7002401404C
:103AB00008B5064B834200D008BD04210448FEF738
:103AC00083FA044A136801331360F5E7E00200202B
:103AD000000C01409C00002008B5FDF7D9FA014B0D
:103AE000188008BD00000020F8B501212048FDF72E
:103AF00039FE204CA08001211F48FDF733FE06B29D
:103B0000E680A3680133A3601C4B1B685D6AADB2FD
:103B1000A581E489A54202D2164B1B7CABB1154BA3
:103B200001221A740023164A126831461148B0F96E
:103B30000400FFF785FE134B1B68134A1188596375
:103B4000518899639288DA63F8BD1049104B186860
:103B5000FCF742FF0746C5EB0515A80090FBF4F003
:103B6000FCF7EEFF3946FCF737FF054B1860D9E745
:103B7000440100209C000020C4000020E00200203E
:103B8000C0000020A0020020F80000200000A0419A
:103B9000F4000020431E9BB2012B02D9042800D060
:103BA0007047184B9B6803F0070317494B74174A7B
:103BB0001068426A92B28A81642A03D9CA810022BB
:103BC00042620A74013B052BEAD8DFE803F0070FD5
:103BD0000B1703130E4B00221A6070470C4B0D4A53
:103BE0001A6070470A4B0C4A1A607047084B0B4A20
:103BF0001A607047064B0A4A1A607047044B094A1C
:103C00001A60CDE7000801409C000020E00200207F
:103C1000F4000020000070420000F0420000344335
:103C20000000704300009643FEE7000008B50B4813
:103C30000B4B03604FF4E133436000238360C360A8
:103C400003610C2242618361C361FFF7A9FA00B9E5
:103C500008BD40F22D210348FFF7E6FFB801002020
:103C600000380140AC4E000800B595B04748484BBD
:103C7000036000234360202282604FF4FA62C26036
:103C8000036143618361FFF717F8002851D114A93C
:103C90004FF4805341F8103D3C48FEF796FE002853
:103CA0004CD13A48FFF721F800284CD170230E93ED
:103CB00000230F930EA93548FFF726F9002847D1B6
:103CC00000220792089209920A920B920C920D928E
:103CD00007A92E48FFF754F800283ED1042207A96F
:103CE0002A48FFF74DF800283CD1082207A92748A9
:103CF000FFF746F800283AD10C2207A92348FFF71E
:103D00003FF8002838D10023009301930293052245
:103D1000039204934FF400520592069369461B48A0
:103D2000FFF7C6F868BB194800F0B2FC15B05DF8A3
:103D300004FB4FF4DF711748FFF776FF4FF4E27191
:103D40001448FFF771FF40F2C9111248FFF76CFFEA
:103D50004FF4E8710F48FFF767FF4FF4EE710D481D
:103D6000FFF762FF40F2E1110A48FFF75DFF4FF4F1
:103D7000F3710848FFF758FF40F2EB110548FFF7D1
:103D800053FF40F2F7110348FFF74EFFA002002057
:103D9000002C0140AC4E000800B58DB02648274BE2
:103DA000036000238360C36043614FF46022C261FB
:103DB000436001230361FDF773FB40BB0CA94FF483
:103DC000803341F8043D1C48FDF7EEFD20BB042381
:103DD0000393012304930793002305934FF4E042D8
:103DE0000A9209930893069303A91348FDF7CCFCA4
:103DF000B8B903230093012301930023029369467A
:103E00000D48FDF7CFF988B90DB05DF804FB40F21D
:103E100061110B48FFF708FF40F269110848FFF7EE
:103E200003FF4FF4BC710648FFF7FEFE4FF4C1716B
:103E30000348FFF7F9FE00BF4401002000240140C1
:103E4000AC4E000800B589B01748184B036000233A
:103E50008360C36043614FF46022C2614360012309
:103E60000361FDF71DFBA0B9052300930123019316
:103E70000493002302934FF4E042079206930593C4
:103E8000039369460848FDF77FFC38B909B05DF82F
:103E900004FB4FF4CC710648FFF7C6FE40F2A711B1
:103EA0000348FFF7C1FE00BFC40000200028014006
:103EB000AC4E000800B587B019484FF0804303604E
:103EC00010234360002383604FF47A42C260036191
:103ED0008361FEF7F1FE98B906A94FF4805341F8CB
:103EE000103D0F48FEF771FD78B900230093019350
:103EF00069460B48FFF708F860B907B05DF804FBA6
:103F000040F20D210748FFF78FFE40F213210548CC
:103F1000FFF78AFE40F21A210248FFF785FE00BF34
:103F2000E0020020AC4E000800B585B001900123EE
:103F300002930023039301A90548FDF733F910B953
:103F400005B05DF804FB40F283210248FFF76CFEE8
:103F500044010020AC4E000800B595B002230A933E
:103F600001220E9210220F921193002312934FF40C
:103F7000601313930AA8FEF74FF850BB0F23059365
:103F800002210691002307934FF48062089209935F
:103F900005A8FEF767FA08BB022301934FF400431C
:103FA000039301A8FEF740FBE8B9FEF717FB104B9F
:103FB000A3FB00308009FDF775FD0420FDF788FDA7
:103FC000002211464FF0FF30FDF72CFD15B05DF8D3
:103FD00004FB4FF495710748FFF726FE4FF49C71E0
:103FE0000448FFF721FE40F23F110248FFF71CFE94
:103FF000D34D6210AC4E000808B5FDF717F8FFF777
:10400000ABFFFFF7C3FCFFF71DFDFFF70FFEFFF748
:104010002BFEFFF7C1FEFFF715FFFFF74BFF664CC6
:104020002046FDF7C5FA6548FDF7C2FA0420FFF700
:104030007BFF2046FDF792F9002834D1604B1B88A6
:10404000B3F5805FFAD85F4A53615D4B41F2883225
:104050001A800520FFF768FF5748FDF77FF930BB4E
:10406000574B1B88B3F5805FFAD8574A5361544BBE
:1040700041F288321A800620FFF756FF4E48FDF7BE
:104080006DF9C0B94E4B1B88B3F5805FFAD84C4B25
:1040900041F288321A804D48FEF78AFC78B1CE2171
:1040A0004B48FFF7C1FDA1214948FFF7BDFDB021F5
:1040B0004748FFF7B9FDC0214548FFF7B5FD434C20
:1040C00000212046FEF79AFE04212046FEF796FEC8
:1040D00008212046FEF792FE0C212046FEF78EFEB8
:1040E00000212046FEF7D2FE04212046FEF7CEFE38
:1040F00008212046FEF7CAFE236800225A634FF4C7
:10410000FA521A643348FEF753FC18B1E2213048E2
:10411000FFF78AFD304B5A6942F010025A615A6922
:1041200042F040025A61274A936843F40043936087
:104130000120FFF72FFD294B1A68294B1A601F48F1
:10414000FDF7ACFA18B1EE212148FFF76DFD2548C7
:1041500000F064F915E0FF211D48FFF765FD4FF4FD
:1041600082711B48FFF760FD01321F4B5A821E4BC4
:104170005A8A1E4B9B5C002BF6D11C491C48FFF74A
:104180003FF80D48FDF7EAF80028E4D10A48FDF7AA
:1041900085FA0028E3D14FF47A70FCF767FF124CE0
:1041A000B4F90630B4F904201249104800F048F977
:1041B00000236382DBE700BF44010020C40000202D
:1041C000000000200024014000280140A00200203F
:1041D000AC4E0008E0020020002C0140F40000205A
:1041E000C0000020BC4E00089C000020F801002008
:1041F000B8010020D04E00080A2807D0084B1B68E1
:1042000013F0800FFAD0064B58607047044B1B68C0
:1042100013F0800FFAD0024B0D225A60EEE700BF78
:1042200000380140034B1A6810701A6801321A6096
:10423000704700BF200300202DE9F04186B01D46E5
:10424000002909DB4FF00008002A0FDB4FF0200E99
:10425000142A47DC002618E04942002802DB4FF010
:104260000008F1E740424FF02D08EDE752424FF0D1
:10427000300EEDE73030C0B2741C06AB334403F8A7
:10428000140CBCFBF7F060B1264684460F46B0FB29
:10429000F1F301FB1300C0B20928EBD93730C0B2EB
:1042A000EAE7B8F1000F0DD0BEF1300F0AD006AB2F
:1042B0001C4404F8148CB41C04E006AB234403F83B
:1042C00014EC0134A242F8DCB8F1000F02D0BEF1C8
:1042D000300F0AD0013C06AB234413F8140CA84756
:1042E000002CF7D106B0BDE8F08106AB234403F8FB
:1042F000148C0134EEE770B582B006460C4601928C
:10430000651C2078002800F08680252802D0B04760
:104310002C46F5E7A21C60780346252807D1B04754
:10432000A3780334302B04D0002500220DE014467E
:10433000F8E7237801340125F7E702EB820041001A
:10434000303B0B441A4423780134A3F1300109298E
:10435000F3D905B15242732B07D0632B0FD1019BC8
:104360001A1D01921878B047CAE7019B1A1D0192E5
:104370001D6828780028C3D00135B047F9E7752BB0
:1043800013D000216C2B14D00020002B43D0752BB0
:1043900019D0642B14D0692B12D0582B22D0782B33
:1043A00022D0622B22D0013C0BE0237801340A2179
:1043B000E8E709B96FF00901237801340120E4E747
:1043C00069B109B99CE70A21D0B9002910DD01982B
:1043D000031D019333460068FFF72EFF90E76FF04F
:1043E0000901F1E71021EFE71021EDE70221EBE7EA
:1043F0000198031D019333460068FFF71DFF7FE717
:1044000000283FF47DAF0198031D019333460068F7
:10441000FFF712FF74E7002002B070BD0FB400B5C3
:1044200083B004AA52F8041B01920448FFF763FF0B
:10443000002003B05DF804EB04B07047F9410008B8
:104440000EB410B583B005AA52F8041B064C2060C8
:1044500001920648FFF74FFF23680020187003B051
:10446000BDE8104003B0704720030020254200083B
:1044700000B583B0294B9A6942F001029A619A69AA
:1044800002F001020092009ADA6942F08052DA6189
:10449000DB6903F080530193019B0320FDF7B0FA21
:1044A000002211466FF00B00FDF7BCFA0022114606
:1044B0006FF00A00FDF7B6FA002211466FF009000E
:1044C000FDF7B0FA002211466FF00400FDF7AAFADA
:1044D000002211466FF00300FDF7A4FA00221146F6
:1044E0006FF00100FDF79EFA002211464FF0FF30F9
:1044F000FDF798FA002211460520FDF793FA0520F2
:10450000FDF7C4FA064B5A6822F0E0625A605A6816
:1045100042F000725A6003B05DF804FB00100240E4
:104520000000014010B586B003682E4A934204D0C3
:104530002D4A93423AD006B010BD04462B4B9A69DF
:1045400042F400729A619B6903F400730093009B2C
:10455000782302930323039302A92548FDF748FC1F
:104560002448254B03600023436083608022C2609F
:104570004FF4807202614FF48062426183614FF4B4
:104580008053C361FDF7D0FA58B91A4B23625C62BD
:10459000002211461220FDF745FA1220FDF776FAA7
:1045A000C9E783211548FFF73FFBEEE70F4B9A69F8
:1045B00042F480629A619B6903F480630193019BDA
:1045C000702302930323039302A90948FDF710FC0B
:1045D000002211461220FDF725FA1220FDF756FAA7
:1045E000A9E700BF0024014000280140001002405C
:1045F000000801405C02002008000240FC4E000858
:1046000000B583B00368204A934205D0B3F1804FD0
:1046100025D003B05DF804FB1C4B9A6942F400629C
:104620009A619B6903F400630093009B002211468A
:104630001920FDF7F7F91920FDF728FA0022114695
:104640001A20FDF7EFF91A20FDF720FA0022114693
:104650001B20FDF7E7F91B20FDF718FAD9E703F552
:104660000433DA6942F00102DA61DB6903F0010325
:104670000193019B002211461C20FDF7D3F91C2059
:10468000FDF704FAC5E700BF002C0140001002400E
:104690000268114B9A4200D0704710B584B04FF4B5
:1046A000F063009302240194039469460B48FDF7DC
:1046B0009FFB032300930194039469460848FDF788
:1046C00097FB084B5A6822F0C0025A605A6842F0C1
:1046D00040025A6004B010BD002C014000080140A7
:1046E000000C0140000001400268324B9A4200D0A9
:1046F0007047F0B587B0044603F558439A6942F411
:1047000080429A619B6903F480430193019B40239B
:1047100002930223039303230593274F02A93846EC
:10472000FDF766FB8026029600250395049502A9F5
:104730003846FDF75DFB214A536843F0040353609C
:104740001F48204B0360102343608560C6600561ED
:1047500045618561C561FDF7E7F9F0B9184B236341
:104760005C621948194B0360002343608360802218
:10477000C260036143618361C361FDF7D5F990B9FC
:10478000114B63635C62002211462520FDF74AF954
:104790002520FDF77BF907B0F0BD4FF4C2710C483E
:1047A000FFF742FADAE74FF4CA710948FFF73CFA1B
:1047B000E6E700BF00380140000C01400000014066
:1047C0000001002044000240740100205800024013
:1047D000FC4E00087047FEE7FEE7FEE7FEE7704785
:1047E0007047704708B5FCF733FCFDF782F908BD48
:1047F000704708B50120FDF7EBFB08BD08B50220A6
:10480000FDF7E6FB08BD08B50420FDF7E1FB08BD98
:1048100008B50248FDF74AFA08BD00BF5C02002057
:1048200008B50248FDF742FA08BD00BF00010020AC
:1048300008B50248FDF73AFA08BD00BF7401002030
:1048400008B50348FCF728FC0248FCF725FC08BD26
:1048500044010020C400002008B50248FEF73CF9DE
:1048600008BD00BFA002002008B50248FEF734F9D9
:1048700008BD00BFA002002008B50248FEF72CF9D1
:1048800008BD00BFA002002008B50248FEF724F9C9
:1048900008BD00BFE002002008B50248FEF79EFDFB
:1048A00008BD00BFB80100200F4B1A6842F001029A
:1048B0001A6059680D4A0A405A601A6822F08472D8
:1048C00022F480321A601A6822F480221A605A6830
:1048D00022F4FE025A604FF41F029A60044B4FF01C
:1048E00000629A60704700BF001002400000FFF8AD
:1048F00000ED00E0002103E00B4B5B584350043116
:104900000A480B4B42189A42F6D30A4A02E00023A7
:1049100042F8043B084B9A42F9D3FFF7C5FF00F079
:1049200075FAFFF769FB70472C570008000000205C
:10493000700000207000002024030020FEE700002B
:104940002DE9F04F85B00391664993460090FCF73E
:104950004BF900210446FCF7E5FA002840F0BE8040
:104960002046FCF707FBFCF7EBF801462046FCF776
:1049700031F84FF08841FCF737F90446FCF720FB8B
:10498000C0F308063046FCF7D7F801462046FCF78E
:1049900021F806F18002544BC2F30802511C53F86F
:1049A000225053F8218053F82670044601362946D8
:1049B000404653F82690FCF70DF807F10046824672
:1049C00049463046FCF706F84849FCF70DF95146D0
:1049D00001905046FCF700F8019A01461046FBF79B
:1049E000F9FF2146FCF700F9414902905046FCF7D7
:1049F000FBF8314601903046FBF7EEFF4946FBF7E6
:104A0000E9FF3A49FCF7F0F8019B01461846FBF72D
:104A1000E1FF029A1146FBF7DFFF2146FCF7E4F8BD
:104A2000324901903046FCF7DFF8019B1946FBF74D
:104A3000D3FF2146FCF7D8F82946FBF7CDFF3946CE
:104A4000CBF800004846FBF7C5FF4146064628461E
:104A5000FBF7C2FF2549FCF7C7F8314681463046CF
:104A6000FBF7BAFF01464846FBF7B4FF2146FCF7C7
:104A7000BBF81F4981463046FCF7B6F82946064682
:104A80002846FBF7A9FF4146FBF7A6FF1749FCF7AD
:104A9000ABF801463046FBF79DFF4946FBF79CFF0C
:104AA0002146FCF7A1F8064610492846FCF79CF879
:104AB0003146FBF791FF2146FCF796F83946FBF7A4
:104AC0008BFF002104460098FCF72CFA08B104F192
:104AD0000044039B1C6005B0BDE8F08F04F1004466
:104AE0003EE700BF610B363B184F0008DB0F493C27
:104AF000000040402DE9F0418AB006460F4600F024
:104B000055F8264D044695F90030013303D000F0E6
:104B10006FF9804618B120460AB0BDE8F0813046F2
:104B200000F066F90028F6D0384600F061F9002858
:104B3000F1D003221A4B3046CDE90023CDF8208076
:104B4000FBF76AFCCDE902013846FBF765FC95F9F5
:104B50000030CDE9040183B94FF06042114BCDE93B
:104B60000623684600F042F968B1089B83B9DDE985
:104B70000601FBF7DBFE0446CDE700200A49022BC5
:104B8000CDE90601EDD100F03BF922230360ECE70B
:104B900000F036F9089B0360E9E700BF0800002039
:104BA0001C570008FFFFEF470000F07F2DE9F0479A
:104BB00020F0004421F00045AC4202DA23462C46A6
:104BC0001D46631BB3F1706F26462F466ADCB4F1B5
:104BD000B14F58DC4FF00008B5F11A5F13DA002D21
:104BE0004ED0B5F5000F80F2A18038464FF0FD4160
:104BF000FBF7FAFF4FF0FD4107463046FBF7F4FFA5
:104C00000646A8F17E0839463046FBF7E3FE8146AA
:104C100001463846FCF786F900284BD024F47F641F
:104C200024F00F0421462046FBF7DEFF39460546F7
:104C300007F10040FBF7D8FF214607463046FBF757
:104C4000CBFE214681463046FBF7C4FE014648466E
:104C5000FBF7CAFF01463846FBF7BCFE0146284673
:104C6000FBF7B8FE00F06EF80646B8F1000F07D06B
:104C70004FEAC851304601F17E51FBF7B5FF0646B9
:104C80003046BDE8F087B4F1FF4F46DB57D02946E8
:104C90002046FBF7A1FE0646B5F1FF4FF0D14FF0DD
:104CA000FF46EDE729462046FBF796FE06463046CE
:104CB000BDE8F08725F47F6504F5000425F00F05B5
:104CC00021462846FBF790FF4946824609F10040FD
:104CD000FBF78AFF314681463046FBF77DFE2146D1
:104CE000FBF778FE3946FBF77FFF29460646384634
:104CF000FBF770FE2146FBF777FF01463046FBF7D6
:104D00006BFE01464846FBF765FE01465046FBF741
:104D100061FE00F017F80646A7E704F15E4405F1CE
:104D20005E4526462F464FF0440855E704F10854E7
:104D300005F1085526462F46A8F1440863E74FF0D1
:104D4000FF46A9E720F00042B2F1FF4FF8B5044654
:104D50003AD2C2B3002803463DDBB2F5000F4FEA5A
:104D6000E0500AD214F4000201D03BE00A465B0096
:104D70001C0202F10101F9D5801A0026C3F31603C3
:104D80007F3843F40002C1074FEA42034FF0190491
:104D900048BF930031464FF0807247108D189D42F6
:104DA00002DC5B1BA9181644013C4FEA43034FEA9F
:104DB0005202F3D113B1013626F00106701000F152
:104DC0007C5000EBC750F8BD0146FBF70DFF2146B4
:104DD000FBF702FEF8BD0146FBF7FCFD0146FBF7C1
:104DE000B7FFF8BD4FF0FF32C6E700BF00207047A5
:104DF00020F00040B0F1FF4FACBF00200120704711
:104E0000014B1868704700BF0C00002070B50025EA
:104E10000C4E0D4CA41BA410A54209D100F01AF8A9
:104E200000250A4E0A4CA41BA410A54205D170BD52
:104E300056F8253098470135EEE756F82530984763
:104E40000135F2E7245700082457000824570008CA
:104E500028570008F8B500BFF8BC08BC9E4670474C
:0C4E6000F8B500BFF8BC08BC9E467047C7
:104E6C0002030405060708090A0B0C0D0E0F10109F
:104E7C000102000002030405060708090A0B0C0DC9
:104E8C000E0F1010010200000000000000000000D6
:104E9C0001020304060708090000000001020304D4
:104EAC002E2E2F5372632F6D61696E2E63000000DE
:104EBC004C697368756920464F432076302E30203C
:104ECC000D0A000063757272656E742070686173F0
:104EDC006520312025642C2063757272656E7420F8
:104EEC00706861736520322025640D0A0000000093
:104EFC002E2E2F5372632F73746D33326631787884
:104F0C005F68616C5F6D73702E63000000000000C1
:104F1C00920E493CB10AC93C2BC3163D2EFB483DB1
:104F2C00752B7B3D04A9963D80B6AF3D36BDC83D83
:104F3C002FBCE13D73B2FA3D87CF093E8340163E4C
:104F4C00B5AB223EA2102F3ECF6E3B3EC2C5473EB4
:104F5C000115543E135C603E7F9A6C3ECCCF783E7C
:104F6C00C07D823E938E883E229A8E3E32A0943E25
:104F7C0086A09A3EE59AA03E128FA63ED47CAC3E0B
:104F8C00EF63B23E2A44B83E491DBE3E15EFC33E08
:104F9C0053B9C93ECA7BCF3E4136D53E80E8DA3E96
:104FAC004F92E03E7533E63EBBCBEB3EEA5AF13E08
:104FBC00CBE0F63E275DFC3EE4E7003F3D9C033F23
:104FCC00824B063F9BF5083F6B9A0B3FDA390E3F3D
:104FDC00CDD3103F2A68133FD9F6153FC07F183F39
:104FEC00C6021B3FD17F1D3FCBF61F3F9967223F67
:104FFC0025D2243F5636273F1594293F4AEB2B3FA9
:10500C00DE3B2E3FBB85303FC9C8323FF304353FF2
:10501C00233A373F4268393F3B8F3B3FF9AE3D3F28
:10502C0067C73F3F70D8413F01E2433F03E4453F30
:10503C0065DE473F12D1493FF8BB4B3F029F4D3FC6
:10504C00207A4F3F3D4D513F4918533F31DB543F80
:10505C00E595563F5348583F6AF2593F1A945B3FC7
:10506C00532D5D3F05BE5E3F2146603F97C5613FB6
:10507C005A3C633F59AA643F880F663FD86B673F21
:10508C003CBF683FA7096A3F0C4B6B3F5E836C3F8C
:10509C0093B26D3F9ED86E3F73F56F3F0809713F19
:1050AC005213723F4714733FDD0B743F0BFA743F7E
:1050BC00C6DE753F07BA763FC58B773FF853783F0E
:1050CC009812793F9DC7793F02737A3FBE147B3F9C
:1050DC00CDAC7B3F283B7C3FC9BF7C3FAC3A7D3F8E
:1050EC00CCAB7D3F23137E3FB0707E3F6DC47E3FC3
:1050FC00580E7F3F6D4E7F3FAB847F3F0FB17F3F9C
:10510C0097D37F3F43EC7F3F11FB7F3F0000803FF5
:10511C0011FB7F3F43EC7F3F97D37F3F0FB17F3F26
:10512C00AB847F3F6D4E7F3F580E7F3F6DC47E3FFB
:10513C00B0707E3F23137E3FCCAB7D3FAC3A7D3FBE
:10514C00C9BF7C3F283B7C3FCDAC7B3FBE147B3F33
:10515C0002737A3F9DC7793F9812793FF853783F95
:10516C00C58B773F07BA763FC6DE753F0BFA743FA7
:10517C00DD0B743F4714733F5213723F0809713FA4
:10518C0073F56F3F9ED86E3F93B26D3F5E836C3F5D
:10519C000C4B6B3FA7096A3F3CBF683FD86B673F1E
:1051AC00880F663F59AA643F5A3C633F97C5613FDD
:1051BC002146603F05BE5E3F532D5D3F1A945B3F19
:1051CC006AF2593F5348583FE595563F31DB543FFF
:1051DC004918533F3D4D513F207A4F3F029F4D3F61
:1051EC00F8BB4B3F12D1493F65DE473F03E4453FD7
:1051FC0001E2433F70D8413F67C73F3FF9AE3D3FA7
:10520C003B8F3B3F4268393F233A373FF304353FEE
:10521C00C9C8323FBB85303FDE3B2E3F4AEB2B3FAC
:10522C001594293F5636273F25D2243F9967223FB4
:10523C00CBF61F3FD17F1D3FC6021B3FC07F183FDF
:10524C00D9F6153F2A68133FCDD3103FDA390E3FFC
:10525C006B9A0B3F9BF5083F824B063F3D9C033FEF
:10526C00E4E7003F275DFC3ECBE0F63EEA5AF13E18
:10527C00BBCBEB3E7533E63E4F92E03E80E8DA3E28
:10528C004136D53ECA7BCF3E53B9C93E15EFC33E1E
:10529C00491DBE3E2A44B83EEF63B23ED47CAC3EC0
:1052AC00128FA63EE59AA03E86A09A3E32A0943E6E
:1052BC00229A8E3E938E883EC07D823ECCCF783E25
:1052CC007F9A6C3E135C603E0115543EC2C5473E4E
:1052DC00CF6E3B3EA2102F3EB5AB223E8340163E16
:1052EC0087CF093E73B2FA3D2FBCE13D36BDC83DB8
:1052FC0080B6AF3D04A9963D752B7B3D2EFB483DFA
:10530C002BC3163DB10AC93C920E493C000000006B
:10531C00920E49BCB10AC9BC2BC316BD2EFB48BDAD
:10532C00752B7BBD04A996BD80B6AFBD36BDC8BD7F
:10533C002FBCE1BD73B2FABD87CF09BE834016BE48
:10534C00B5AB22BEA2102FBECF6E3BBEC2C547BEB0
:10535C00011554BE135C60BE7F9A6CBECCCF78BE78
:10536C00C07D82BE938E88BE229A8EBE32A094BE21
:10537C0086A09ABEE59AA0BE128FA6BED47CACBE07
:10538C00EF63B2BE2A44B8BE491DBEBE15EFC3BE04
:10539C0053B9C9BECA7BCFBE4136D5BE80E8DABE92
:1053AC004F92E0BE7533E6BEBBCBEBBEEA5AF1BE04
:1053BC00CBE0F6BE275DFCBEE4E700BF3D9C03BF1F
:1053CC00824B06BF9BF508BF6B9A0BBFDA390EBF39
:1053DC00CDD310BF2A6813BFD9F615BFC07F18BF35
:1053EC00C6021BBFD17F1DBFCBF61FBF996722BF63
:1053FC0025D224BF563627BF159429BF4AEB2BBFA5
:10540C00DE3B2EBFBB8530BFC9C832BFF30435BFEE
:10541C00233A37BF426839BF3B8F3BBFF9AE3DBF24
:10542C0067C73FBF70D841BF01E243BF03E445BF2C
:10543C0065DE47BF12D149BFF8BB4BBF029F4DBFC2
:10544C00207A4FBF3D4D51BF491853BF31DB54BF7C
:10545C00E59556BF534858BF6AF259BF1A945BBFC3
:10546C00532D5DBF05BE5EBF214660BF97C561BFB2
:10547C005A3C63BF59AA64BF880F66BFD86B67BF1D
:10548C003CBF68BFA7096ABF0C4B6BBF5E836CBF88
:10549C0093B26DBF9ED86EBF73F56FBF080971BF15
:1054AC00521372BF471473BFDD0B74BF0BFA74BF7A
:1054BC00C6DE75BF07BA76BFC58B77BFF85378BF0A
:1054CC00981279BF9DC779BF02737ABFBE147BBF98
:1054DC00CDAC7BBF283B7CBFC9BF7CBFAC3A7DBF8A
:1054EC00CCAB7DBF23137EBFB0707EBF6DC47EBFBF
:1054FC00580E7FBF6D4E7FBFAB847FBF0FB17FBF98
:10550C0097D37FBF43EC7FBF11FB7FBF000080BFF1
:10551C0011FB7FBF43EC7FBF97D37FBF0FB17FBF22
:10552C00AB847FBF6D4E7FBF580E7FBF6DC47EBFF7
:10553C00B0707EBF23137EBFCCAB7DBFAC3A7DBFBA
:10554C00C9BF7CBF283B7CBFCDAC7BBFBE147BBF2F
:10555C0002737ABF9DC779BF981279BFF85378BF91
:10556C00C58B77BF07BA76BFC6DE75BF0BFA74BFA3
:10557C00DD0B74BF471473BF521372BF080971BFA0
:10558C0073F56FBF9ED86EBF93B26DBF5E836CBF59
:10559C000C4B6BBFA7096ABF3CBF68BFD86B67BF1A
:1055AC00880F66BF59AA64BF5A3C63BF97C561BFD9
:1055BC00214660BF05BE5EBF532D5DBF1A945BBF15
:1055CC006AF259BF534858BFE59556BF31DB54BFFB
:1055DC00491853BF3D4D51BF207A4FBF029F4DBF5D
:1055EC00F8BB4BBF12D149BF65DE47BF03E445BFD3
:1055FC0001E243BF70D841BF67C73FBFF9AE3DBFA3
:10560C003B8F3BBF426839BF233A37BFF30435BFEA
:10561C00C9C832BFBB8530BFDE3B2EBF4AEB2BBFA8
:10562C00159429BF563627BF25D224BF996722BFB0
:10563C00CBF61FBFD17F1DBFC6021BBFC07F18BFDB
:10564C00D9F615BF2A6813BFCDD310BFDA390EBFF8
:10565C006B9A0BBF9BF508BF824B06BF3D9C03BFEB
:10566C00E4E700BF275DFCBECBE0F6BEEA5AF1BE14
:10567C00BBCBEBBE7533E6BE4F92E0BE80E8DABE24
:10568C004136D5BECA7BCFBE53B9C9BE15EFC3BE1A
:10569C00491DBEBE2A44B8BEEF63B2BED47CACBEBC
:1056AC00128FA6BEE59AA0BE86A09ABE32A094BE6A
:1056BC00229A8EBE938E88BEC07D82BECCCF78BE21
:1056CC007F9A6CBE135C60BE011554BEC2C547BE4A
:1056DC00CF6E3BBEA2102FBEB5AB22BE834016BE12
:1056EC0087CF09BE73B2FABD2FBCE1BD36BDC8BDB4
:1056FC0080B6AFBD04A996BD752B7BBD2EFB48BDF6
:10570C002BC316BDB10AC9BC920E49BC0000008067
:08571C006879706F74660000EB
:045724003501000843
:045728001101000863
:10572C008813000000A24A040100000010000020B1
:10573C00000000000000000000000000000000005D
:10574C00000000000000000000000000000000004D
:10575C00000000000000000000000000000000003D
:10576C00000000000000000000000000000000002D
:10577C00000000000000000000000000000000001D
:10578C00000000000000000000000000000000000D
:04000005080048F5B2
:00000001FF
