:020000040800F2
:1000000000280020AD240008112400081324000853
:100010001524000817240008192400080000000017
:100020000000000000000000000000001B24000889
:100030001D240008000000001F24000821240008DF
:10004000F5240008F5240008F5240008F52400082C
:10005000F52400082D240008F5240008F5240008E4
:10006000F5240008F5240008F524000831240008D0
:10007000F5240008F5240008F5240008F5240008FC
:10008000F5240008F5240008F5240008F5240008EC
:10009000F5240008F5240008F5240008F5240008DC
:1000A000F524000841240008F5240008F524000880
:1000B000F5240008F524000800000000F5240008DD
:1000C000F52400080000000000000000F5240008EE
:1000D0000000000051240008F52400080000000082
:1000E000F5240008F5240008F524000800000000AD
:1000F0000000000000000000000000000000000000
:0C01000000000000000000005FF808F1A3
:10010C0010B5054C237833B9044B13B10448AFF345
:10011C0000800123237010BD0400002000000000AB
:10012C004025000808B5034B1BB103490348AFF346
:10013C00008008BD000000000800002040250008D9
:10014C0010B50446074B1868074BA3FB0030800919
:10015C0000F006FA002221464FF0FF3000F0C0F903
:10016C00002010BD00000020D34D621008B5074AD6
:10017C00136843F010031360032000F09FF9002074
:10018C00FFF7DEFF02F000F8002008BD002002405F
:10019C00024A136801331360704700BF200000202F
:1001AC00014B1868704700BF2000002030B583B0A9
:1001BC000190FFF7F5FF0546019CB4F1FF3F00D01D
:1001CC000134FFF7EDFF401BA042FAD303B030BD62
:1001DC0030B482B00023019390F82430012B00F04E
:1001EC008B800246012380F824304B68062B29D8DB
:1001FC000568686B03EB8303053B1F249C4020EAD6
:10020C0004000C6804FA03F303436B630B68092BBB
:10021C0038D91568E86803EB43031E3B07249C4060
:10022C0020EA04008C6804FA03F30343EB600B68C8
:10023C00103B012B34D90020002382F8243002B06B
:10024C0030BC70470C2B0ED80568286B03EB83036E
:10025C00233B1F249C4020EA04000C6804FA03F39F
:10026C0003432B63D2E70568E86A03EB8303413B46
:10027C001F249C4020EA04000C6804FA03F3034397
:10028C00EB62C3E71568286903EB430307249C4022
:10029C0020EA04008C6804FA03F303432B61C6E7DD
:1002AC0013681648834205D0936A43F02003936287
:1002BC000120C1E7986810F4000F1BD1986840F436
:1002CC00000098600B68102B01D00020B4E70C4B99
:1002DC001B680C49A1FB03139B0C03EB8303590014
:1002EC00019102E0019B013B0193019B002BF9D191
:1002FC000020A1E700209FE70220A0E70024014096
:10030C000000002083DE1B4338B503689A6812F0A6
:10031C00010F01D1002038BD04469A6822F0010279
:10032C009A60FFF73DFF054623689B6813F0010FA9
:10033C000ED0FFF735FF401B0228F5D9A36A43F016
:10034C001003A362E36A43F00103E3620120E2E7D6
:10035C000020E0E700287FD038B50446836A002BE4
:10036C0033D02046FFF7D0FFA36A13F010036DD1F2
:10037C0000286BD1A26A22F4885222F0020242F0C9
:10038C000202A2626268E1690A43E56842EA450238
:10039C00A168B1F5807F21D001291CD061690129A8
:1003AC001FD02568696821F469410B436B60216893
:1003BC008D682A4B2B4013438B60A368B3F5807F69
:1003CC0020D0012B1ED000211FE0C36280F8243006
:1003DC0001F034FFC5E74FF48073DFE74FF480730F
:1003EC00DCE735B9A169013943EA413343F40063D1
:1003FC00D7E7A16A41F02001A162E16A41F0010155
:10040C00E162CEE72369013B19052568EB6A23F409
:10041C0070030B43EB6223689968114B0B409A42B3
:10042C000BD0A36A23F0120343F01003A362E36A18
:10043C0043F00103E36201200DE00023E362A36AB1
:10044C0023F0030343F00103A36204E0A36A43F027
:10045C001003A362012038BD01207047FDF7E1FFB6
:10046C00FE0E1FFF034690F82420012A20D0012203
:10047C0080F824200268906810F0010F07D10D4815
:10048C00806810F0010F02D10B48824208D09A6AA2
:10049C0042F020029A620120002283F82420704747
:1004AC00506820F470200968014351600020F3E784
:1004BC00022070470028014000240140074AD368FD
:1004CC0023F4E0631B041B0C000200F4E0601843EF
:1004DC0040F0BF6040F40030D060704700ED00E0A9
:1004EC0030B4174BDB68C3F30223C3F10704042CAD
:1004FC0028BF04241D1D062D18D9033B4FF0FF35D2
:10050C0005FA04F421EA0401994005FA03F322EAFE
:10051C000303194300280BDB0901C9B200F1604049
:10052C0000F5614080F8001330BC70470023E5E70C
:10053C0000F00F000901C9B2024B1954F4E700BFD7
:10054C0000ED00E014ED00E000F01F024009012373
:10055C009340024A42F82030704700BF00E100E0AF
:10056C000138B0F1807F0AD2064B5860064AF02160
:10057C0082F823100020986007221A60704701202F
:10058C00704700BF10E000E000ED00E0042805D04B
:10059C00054A136823F0040313607047024A13687A
:1005AC0043F004031360704710E000E0704708B597
:1005BC00FFF7FCFF08BD0000002830D010B4034644
:1005CC000168184A0A441848A0FB0202120992005A
:1005DC001A64164ADA63022283F82120086820F490
:1005EC007F5020F030005A689C682243DC6822431C
:1005FC001C6922435C6922439C692243DC692243C7
:10060C0002430A6000209862D862186358639863AA
:10061C00012283F8212083F8200010BC70470120B0
:10062C00704700BFF8FFFDBFCDCCCCCC0000024022
:10063C0008B590F82130022B03D0042383630120EA
:10064C0008BD0268136823F00E0313600268136878
:10065C0023F0010313600368194A934214D0143237
:10066C0093421FD0143293421ED0143293421ED0A8
:10067C00143293421ED01432934202D04FF0807247
:10068C0003E04FF4801200E001220E4B5A6001236C
:10069C0080F82130002380F82030436B6BB19847F1
:1006AC000020CDE71022F0E74FF48072EDE74FF415
:1006BC008052EAE74FF48032E7E70020C0E700BF42
:1006CC00080002400000024038B5C36B1A68046889
:1006DC002568016C04238B40134235D015F0040FB0
:1006EC0032D0236813F0200F03D1236823F00403C6
:1006FC0023600368434A934214D01432934218D0B7
:10070C001432934217D01432934217D014329342BE
:10071C0017D01432934202D04FF0806203E04FF4B2
:10072C00800200E00422384B5A60C36A03B1984738
:10073C0038BD4022F7E74FF48062F4E74FF4804273
:10074C00F1E74FF48022EEE702238B4013423CD0BA
:10075C0015F0020F39D0236813F0200F06D123684F
:10076C0023F00A032360012380F821300368254A13
:10077C00934214D0143293421CD0143293421BD0A7
:10078C00143293421BD0143293421BD01432934236
:10079C0002D04FF0007203E04FF4001200E002228E
:1007AC00194B5A60002380F82030836A002BBFD08D
:1007BC009847BDE72022F3E74FF40072F0E74FF4BF
:1007CC000052EDE74FF40032EAE7082303FA01F197
:1007DC001142ADD015F0080FAAD0236823F00E03F8
:1007EC002360026CC16B012303FA02F24A6083633B
:1007FC0080F82130002380F82030036B002B97D039
:10080C00984795E70800024000000240F0B482B01F
:10081C000026354668E0002C00F09680012C00D1B3
:10082C00CE68FF2B00F2A4808446FF2B00F2A3803D
:10083C00AC00DCF800200F27A74022EA070206FADA
:10084C0004F42243CCF800204A6812F0805F4AD0AE
:10085C005B4A946944F001049461926902F00102CC
:10086C000192019AAC08A71C564A52F8272005F0B1
:10087C000307BF004FF00F0C0CFA07FC22EA0C0C1C
:10088C00514A90427DD002F5806290427BD002F5B5
:10089C008062904273D00322BA4042EA0C020234C6
:1008AC00484F47F824204A6812F4803F6DD0474CDB
:1008BC0022681A4322604A6812F4003F6BD0434C02
:1008CC0062681A4362604A6812F4801F69D03F4C18
:1008DC00A2681A43A2604A6812F4001F67D03B4C0E
:1008EC00E2681343E36001350F2D66D80122AA405C
:1008FC000B6813409A42F6D14C68122C2ED009D8B2
:10090C00022C28D087D9032C2ED0112C89D1CE685B
:10091C00043686E72E4FBC4216D00CD92D4FBC4264
:10092C0012D007F58037BC420ED0A7F58017BC4219
:10093C007FF477AF08E0A7F58017BC4204D007F529
:10094C008037BC427FF46DAF8C687CB1012C08D031
:10095C004261082665E7CE68083662E7CE680C3639
:10096C005FE7026108265CE700265AE7042658E791
:10097C0000F1040C59E7A5F10804A40059E7022280
:10098C008AE7002288E7012286E7104C226822EAD7
:10099C00030222608FE70D4C626822EA0302626058
:1009AC0091E70A4CA26822EA0302A26093E7074C83
:1009BC00E26822EA0303E36095E702B0F0BC7047FB
:1009CC0000100240000001400008014000040140FA
:1009DC00000021100000311012B9090401617047A8
:1009EC0001617047C3685940C160704782B0084BC1
:1009FC001B68084AA2FB03235B0A00FB03F001906F
:100A0C0000BF019B5A1E0192002BF9D102B0704716
:100A1C0000000020D34D621070B582B0044603680C
:100A2C0013F0010F2CD0AB4B5B6803F00C03042BC1
:100A3C001DD0A84B5B6803F00C03082B12D0636825
:100A4C00B3F5803F41D0002B55D103F1804303F522
:100A5C0004331A6822F480321A601A6822F4802255
:100A6C001A6037E09B4B5B6813F4803FE7D0994BDF
:100A7C001B6813F4003F03D06368002B00F0AE81B9
:100A8C00236813F0020F76D0924B5B6813F00C0FB7
:100A9C005FD0904B5B6803F00C03082B54D0236998
:100AAC00002B00F08A808C4B01221A60FFF778FB38
:100ABC000546884B1B6813F0020F75D1FFF770FBCE
:100ACC00401B0228F5D903208BE1824A136843F4BA
:100ADC0080331360636843B3FFF762FB05467D4BBD
:100AEC001B6813F4003FCBD1FFF75AFB401B642863
:100AFC00F5D9032075E1B3F5A02F09D0754B1A6811
:100B0C0022F480321A601A6822F480221A60E1E71B
:100B1C0003F18043A3F53C331A6842F480221A6037
:100B2C001A6842F480321A60D4E7FFF739FB0546A5
:100B3C00684B1B6813F4003FA2D0FFF731FB401B3E
:100B4C006428F5D903204CE1624B5B6813F4803FB9
:100B5C00A5D1604B1B6813F0020F04D02369012B45
:100B6C0001D001203DE15B4A136823F0F803616971
:100B7C0043EAC1031360236813F0080F32D0A36952
:100B8C00002B5BD0554B01221A60FFF709FB054681
:100B9C00504B5B6A13F0020F21D1FFF701FB401B96
:100BAC000228F5D903201CE14A4A136823F0F80304
:100BBC00616943EAC1031360DDE7474B00221A6009
:100BCC00FFF7EEFA0546434B1B6813F0020FD2D029
:100BDC00FFF7E6FA401B0228F5D9032001E10120BA
:100BEC00FFF704FF236813F0040F00F09780394BD4
:100BFC00DB6913F0805F33D1364BDA6942F08052F7
:100C0C00DA61DB6903F080530193019B0125344BBE
:100C1C001B6813F4807F25D0E368012B36D0002BA2
:100C2C004CD103F1804303F504331A6A22F001021C
:100C3C001A621A6A22F004021A622CE0274B002274
:100C4C001A60FFF7ADFA0546224B5B6A13F0020FF0
:100C5C00C8D0FFF7A5FA401B0228F5D90320C0E045
:100C6C000025D4E71E4A136843F480731360FFF722
:100C7C0097FA06461A4B1B6813F4807FCCD1FFF70A
:100C8C008FFA801B6428F5D90320AAE0114A136A55
:100C9C0043F001031362E36873B3FFF781FA06466E
:100CAC000C4B1B6A13F0020F37D1FFF779FA801B3C
:100CBC0041F288339842F3D9032092E0052B11D0EE
:100CCC00044B1A6A22F001021A621A6A22F0040218
:100CDC001A62E0E7001002400000424280044242E7
:100CEC0000700040414B1A6A42F004021A621A6A00
:100CFC0042F001021A62CEE7FFF752FA06463B4B6E
:100D0C001B6A13F0020F08D0FFF74AFA801B41F25E
:100D1C0088339842F3D9032063E0E5B9E369002BEB
:100D2C005ED0324A526802F00C02082A5BD0022BC9
:100D3C0017D02F4B00221A60FFF732FA04462B4BC8
:100D4C001B6813F0007F47D0FFF72AFA001B02281C
:100D5C00F5D9032045E0254AD36923F08053D361AC
:100D6C00DCE7234B00221A60FFF71AFA05461F4BEB
:100D7C001B6813F0007F06D0FFF712FA401B022805
:100D8C00F5D903202DE0236AB3F5803F1AD017491B
:100D9C004B6823F47413226A606A024313434B605A
:100DAC00134B01221A60FFF7FBF904460F4B1B682B
:100DBC0013F0007F0ED1FFF7F3F9001B0228F5D9D1
:100DCC0003200EE0094A536823F40033A1680B4357
:100DDC005360DCE7002004E0002002E0012000E08A
:100DEC00002002B070BD0120FBE700BF00100240E4
:100DFC006000424210B487B0164C94E80F000DF11D
:100E0C00180C0CE90F00238AADF80430124B5B6808
:100E1C0003F00C02082A1AD1C3F38342624412F87D
:100E2C00100C13F4803F05D10C4B03FB00F007B002
:100E3C0010BC7047084B5B68C3F34043634413F822
:100E4C00142C074BB3FBF2F300FB03F0EFE7044861
:100E5C00EDE700BF582500080010024000093D00D6
:100E6C0000127A00594B1B6803F007038B420CD21B
:100E7C00564A136823F007030B431360136803F0FF
:100E8C0007038B4201D00120704770B5036813F043
:100E9C00020F06D04E4A536823F0F00384682343B4
:100EAC0053600C460546036813F0010F52D043689B
:100EBC00012B23D0022B28D0454A126812F0020FC6
:100ECC0000F0828042494A6822F0030213434B60CF
:100EDC00FFF766F906466B68012B1DD0022B2AD052
:100EEC003B4B5B6813F00C0F34D0FFF759F9801BA8
:100EFC0041F288339842F3D9032064E0344A1268F3
:100F0C0012F4003FDED101205DE0314A126812F08C
:100F1C00007FD7D1012056E02D4B5B6803F00C030A
:100F2C00042B17D0FFF73CF9801B41F28833984211
:100F3C00F2D9032047E0264B5B6803F00C03082B27
:100F4C0008D0FFF72DF9801B41F288339842F2D973
:100F5C00032038E01D4B1B6803F00703A3420CD998
:100F6C001A4A136823F0070323431360136803F032
:100F7C000703A34201D0012025E02B6813F0040FD6
:100F8C0006D0134A536823F4E063E9680B435360BB
:100F9C002B6813F0080F07D00D4A536823F46053E5
:100FAC00296943EAC1035360FFF724FF084B5B68D0
:100FBC00C3F30313074AD35CD840074B18600020D7
:100FCC00FFF7BEF8002070BD0120FCE700200240B6
:100FDC00001002406C25000800000020014B18682E
:100FEC00704700BF0000002008B5FFF7F7FF044B67
:100FFC005B68C3F30223034AD35CD84008BD00BF2F
:10100C00001002407C25000808B5FFF7E7FF044BF1
:10101C005B68C3F3C223034AD35CD84008BD00BF4E
:10102C00001002407C25000870B582B004460368AD
:10103C0013F0010F34D03E4BDB6913F0805F48D1C5
:10104C003B4BDA6942F08052DA61DB6903F0805382
:10105C000193019B0125374B1B6813F4807F3AD019
:10106C00334B1B6A13F4407311D0626802F4407264
:10107C009A420CD02E4A136A23F440702E49012652
:10108C000E6000260E60106213F0010F37D1284A53
:10109C00136A23F4407361680B431362002D3FD134
:1010AC00236813F0020F06D0214A536823F44043FF
:1010BC00A1680B435360236813F0100F35D01C4A02
:1010CC00536823F48003E1680B435360002002B0A3
:1010DC0070BD0025BFE7174A136843F48073136093
:1010EC00FFF75EF80646134B1B6813F4807FB7D1ED
:1010FC00FFF756F8801B6428F5D90320E7E7FFF7C4
:10110C004FF806460A4B1B6A13F0020FBFD1FFF7CC
:10111C0047F8801B41F288339842F3D90320D6E775
:10112C00D36923F08053D361BAE70020CFE700BF27
:10113C0000100240007000404004424270B4036A48
:10114C0023F001030362036A4268846924F0730488
:10115C000D6845EA040623F002048B6823430D4D09
:10116C00A84209D00B4DA8420DD0426086614A6856
:10117C004263036270BC704723F00803CC682343BE
:10118C0023F00403EEE722F440724C6914438A699D
:10119C002243EAE7002C014030B4036A23F4807345
:1011AC000362036A4268C46924F073040D682C431B
:1011BC0023F400738D6843EA05230F4DA84209D030
:1011CC000D4DA8420ED04260C4614A68C2630362EE
:1011DC0030BC704723F40063CD6843EA052323F445
:1011EC008063EDE722F440524D6942EA05128D69A5
:1011FC0042EA0512E7E700BF002C014030B4036A55
:10120C0023F480530362036A4468C26922F4E64201
:10121C000D6842EA052223F400538D6843EA053336
:10122C00074DA84206D04460C2614A68026403625A
:10123C0030BC704724F480444D6944EA8514F2E7CD
:10124C00002C014010B4036A046A24F00104046207
:10125C00846924F0F00444EA021223F00A030B43DD
:10126C008261036210BC704710B4036A23F0100350
:10127C0003628469036A24F4704444EA023223F062
:10128C00A00343EA01138261036210BC70478368B8
:10129C0023F0700341F0070119438160704710B4CB
:1012AC00846824F47F4442EA03230B432343836082
:1012BC0010BC7047704790F83C30012B7DD010B5B6
:1012CC000446012380F83C30022380F83D3002684C
:1012DC00936823F47F4323F0770393600B68402BD0
:1012EC0057D010D9702B3ED01FD8502B47D0602B25
:1012FC0032D1CA6849680068FFF7B6FF60212068E0
:10130C00FFF7C5FF28E0102B4DD008D9202B4FD06C
:10131C00302B21D130210068FFF7B9FF1CE0DBB97D
:10132C0000210068FFF7B3FF16E0B3F5805F0ED025
:10133C00B3F5005F10D1CB684A6889680068FFF785
:10134C00AEFF2268936843F48043936004E0026824
:10135C00936823F007039360012384F83D30002049
:10136C0084F83C0010BDCB684A6889680068FFF7B8
:10137C0096FF2268936843F077039360ECE7CA68A2
:10138C0049680068FFF75EFF50212068FFF77FFF78
:10139C00E2E7CA6849680068FFF754FF40212068FB
:1013AC00FFF775FFD8E710210068FFF770FFD3E750
:1013BC0020210068FFF76BFFCEE7022070477047D3
:1013CC00704770477047704710B5044603681A6938
:1013DC0012F0020F11D0DA6812F0020F0DD06FF07C
:1013EC0002021A610123037703689B6913F0030F50
:1013FC0070D0FFF7E6FF0023237723681A6912F0F9
:10140C00040F12D0DA6812F0040F0ED06FF0040241
:10141C001A610223237723689B6913F4407F5FD002
:10142C002046FFF7CEFF0023237723681A6912F0BA
:10143C00080F12D0DA6812F0080F0ED06FF0080205
:10144C001A61042323772368DB6913F0030F4ED052
:10145C002046FFF7B6FF0023237723681A6912F0A2
:10146C00100F12D0DA6812F0100F0ED06FF01002BD
:10147C001A61082323772368DB6913F4407F3DD07E
:10148C002046FFF79EFF0023237723681A6912F08A
:10149C00010F03D0DA6812F0010F36D123681A69F4
:1014AC0012F0800F03D0DA6812F0800F34D1236869
:1014BC001A6912F0400F03D0DA6812F0400F32D1E3
:1014CC0023681A6912F0200F03D0DA6812F0200F8B
:1014DC0030D110BDFFF774FF2046FFF773FF8AE78A
:1014EC002046FFF76DFF2046FFF76CFF9BE7204679
:1014FC00FFF766FF2046FFF765FFACE72046FFF7D6
:10150C005FFF2046FFF75EFFBDE76FF001021A6137
:10151C002046FFF754FFC1E76FF080021A612046A6
:10152C0000F052F9C3E76FF040021A612046FFF752
:10153C004AFFC5E76FF020021A61204600F043F91C
:10154C00C7E700000368174A904206D0B0F1804FFD
:10155C0003D0A2F59432904203D123F070034A6871
:10156C001343104A904206D0B0F1804F03D0A2F53D
:10157C009432904203D123F44073CA68134323F08E
:10158C0080034A69134303608B68C3620B688362F0
:10159C00044B984202D00123436170470B690363EB
:1015AC00F9E700BF002C0140A8B110B5044690F833
:1015BC003D305BB1022384F83D30211D2068FFF7DC
:1015CC00C1FF012384F83D30002010BD80F83C3071
:1015DC0000F090FEEEE701207047A8B110B504466C
:1015EC0090F83D305BB1022384F83D30211D20681A
:1015FC00FFF7A8FF012384F83D30002010BD80F8D0
:10160C003C30FFF757FEEEE70120704730B4036A19
:10161C0023F010030362036A4468826922F4E642F1
:10162C000D6842EA052223F020038D6843EA051376
:10163C000E4DA84209D00D4DA8420ED044608261D7
:10164C004A688263036230BC704723F08003CD6824
:10165C0043EA051323F04003EDE724F440644D699D
:10166C0044EA85048D6944EA8504E7E7002C0140CF
:10167C0090F83C30012B28D010B50446012380F89B
:10168C003C30022380F83D300C2A0BD8DFE802F006
:10169C00070A0A0A110A0A0A150A0A0A1900006836
:1016AC00FFF74CFD012384F83D30002084F83C000A
:1016BC0010BD0068FFF7AAFFF4E70068FFF76CFDA8
:1016CC00F0E70068FFF79AFDECE70220704710B4D2
:1016DC00012303FA01F4036A23EA04030362036A95
:1016EC008A401343036210BC7047000010B50446D7
:1016FC0001220068FFF7EBFF2368074A934206D0EC
:10170C002268136843F001031360002010BD5A6C6B
:10171C0042F400425A64F3E7002C014090F83C304C
:10172C00012B25D0012380F83C30CB6823F4407387
:10173C008A68134323F480634A68134323F40063D9
:10174C000A68134323F480530A69134323F40053A8
:10175C004A69134323F480438A69134323F40043F7
:10176C00134302685364002380F83C3018467047DA
:10177C000220704790F83C30012B22D030B401226B
:10178C0080F83C20022380F83D300468636823F025
:10179C0070036360046863680D682B4363600468BE
:1017AC00A36823F08003A3600468A36849680B4313
:1017BC00A36080F83D20002380F83C30184630BCF4
:1017CC00704702207047704770470268D36823F453
:1017DC009073D3600268536923F001035361202393
:1017EC0080F83A30704790F83930DBB2212B2AD18F
:1017FC008368B3F5805F16D0036A5A1C02621A78AC
:10180C0003685A60C38C013B9BB2C384EBB902687A
:10181C00D36823F08003D3600268D36843F040039D
:10182C00D36000207047036A1B880268C3F3080367
:10183C00536003691BB9036A02330362E2E7036A6C
:10184C0001330362DEE7022070470020704700007E
:10185C002DE9F84305460268136923F44053C16827
:10186C000B43136183680269134342691343016894
:10187C00CA6822F4B05222F00C021343CB60026807
:10188C00536923F4407381690B4353610268594BCC
:10189C009A4257D0FFF7A8FB00EB800000EB8000CA
:1018AC006C68A400B0FBF4F4534FA7FB0434640938
:1018BC002601FFF799FB00EB800000EB80006C68C1
:1018CC00A400B0FBF4F9FFF78FFB00EB800000EBFA
:1018DC0080006C68A400B0FBF4F4A7FB043464092A
:1018EC004FF0640808FB149424013234A7FB043431
:1018FC00640904F0F0043444FFF776FB00EB80003D
:10190C0000EB80006E68B600B0FBF6F6FFF76CFBE0
:10191C0000EB800000EB80006B689B00B0FBF3F0E9
:10192C00A7FB0030400908FB10684FEA081808F1C3
:10193C003208A7FB0837C7F343172B6827449F606F
:10194C00BDE8F883FFF760FB00EB800000EB800044
:10195C006C68A400B0FBF4F4274FA7FB04346409B3
:10196C002601FFF751FB00EB800000EB80006C6858
:10197C00A400B0FBF4F9FFF747FB00EB800000EB91
:10198C0080006C68A400B0FBF4F4A7FB0434640979
:10199C004FF0640808FB149424013234A7FB043480
:1019AC00640904F0F0043444FFF72EFB00EB8000D4
:1019BC0000EB80006E68B600B0FBF6F6FFF724FB78
:1019CC0000EB800000EB80006B689B00B0FBF3F039
:1019DC00A7FB0030400908FB10684FEA081808F113
:1019EC003208A7FB0837C7F343172B6827449F60BF
:1019FC00A6E700BF003801401F85EB512DE9F041EF
:101A0C0005460F4616469846069C2B681B6837EA17
:101A1C0003030CBF01230023B3421DD1B4F1FF3FDC
:101A2C00F3D02CB1FEF7BCFBA0EB0800A042ECD924
:101A3C002A68D36823F4D073D3602A68536923F0DF
:101A4C0001035361202385F8393085F83A3000239F
:101A5C0085F83830032000E00020BDE8F08158B351
:101A6C0010B5044690F839300BB3242384F8393080
:101A7C002268D36823F40053D3602046FFF7E8FEB6
:101A8C002268136923F4904313612268536923F08D
:101A9C002A0353612268D36843F40053D3600020B7
:101AAC00E063202384F8393084F83A3010BD80F894
:101ABC00383000F06BFCD8E7012070472DE9F0417D
:101ACC0082B01E4690F83930DBB2202B55D104463B
:101ADC000D469046002955D0002A55D090F8383044
:101AEC00012B53D0012380F838300023C36321230A
:101AFC0080F83930FEF754FB0746A4F82480A4F88C
:101B0C00268010E000963B46002280212046FFF7FD
:101B1C0075FF00283CD12B882268C3F3080353605F
:101B2C002369C3B90235E38C9BB2B3B1E38C013B9F
:101B3C009BB2E384A368B3F5805FE3D000963B4689
:101B4C00002280212046FFF759FF18BB2A78236812
:101B5C005A600135E7E70135E5E700963B46002280
:101B6C0040212046FFF74AFF0346A8B9202284F8FB
:101B7C003920002284F8382000E00223184602B0F5
:101B8C00BDE8F0810123F9E70123F7E70223F5E72C
:101B9C000323F3E70323F1E70323EFE7704708B5CB
:101BAC000168CB6823F04003CB60202380F83930E8
:101BBC00FFF7F4FF002008BD704708B590F83A30E5
:101BCC00DBB2222B45D18368B3F5805F0ED003695D
:101BDC0003BB03685A68836A591C81621A70C38DEF
:101BEC00013B9BB2C385F3B1002033E0826A0369E9
:101BFC0043B903685B68C3F308031380836A023339
:101C0C008362ECE703685B68DBB21380836A0133A1
:101C1C008362E4E703685B68826A511C816203F0AB
:101C2C007F031370DBE70268D36823F02003D360D3
:101C3C000268D36823F48073D3600268536923F07D
:101C4C0001035361202380F83A30FFF7B5FF0020E1
:101C5C0000E0022008BD704710B504460268136806
:101C6C00D168526913F00F0005D113F0200F02D088
:101C7C0011F0200F53D1002867D012F0010202D1CD
:101C8C0011F4907F61D013F0010F06D011F4807F16
:101C9C0003D0E06B40F00100E06313F0040F04D0BC
:101CAC001AB1E06B40F00200E06313F0020F04D0B5
:101CBC001AB1E06B40F00400E06313F0080F04D09D
:101CCC001AB1E26B42F00802E263E26B002A48D0E0
:101CDC0013F0200F02D011F0200F24D123685B6980
:101CEC0003F04003E26B12F0080F00D13BB3204627
:101CFC00FFF76BFD23685A6912F0400F1BD05A692D
:101D0C0022F040025A61636B8BB11A4A5A63606BC2
:101D1C00FEF78EFC28B3606B436B984721E020469E
:101D2C00FFF74BFF1DE02046FFF747FFD6E72046A5
:101D3C00FFF791FF15E02046FFF78DFF11E02046DD
:101D4C00FFF789FF0023E3630BE013F0800F02D051
:101D5C0011F0800F06D113F0400F02D011F0400F9C
:101D6C0004D110BD2046FFF73EFDFAE72046FFF7F1
:101D7C0016FFF6E7851D000808B5406A0023C385E9
:101D8C00C384FFF768FF08BD70B586B01B4B9A691A
:101D9C0042F004029A619A6902F004020092009ADD
:101DAC009A6942F008029A619B6903F00803019357
:101DBC00019B134C002204212046FEF70DFE072345
:101DCC000293002603960125049502A90D48FEF7FF
:101DDC001DFD04230293039504960223059302A987
:101DEC002046FEF713FD4FF480730293039604957F
:101DFC0002A92046FEF70AFD06B070BD0010024095
:101E0C00000C01400008014000B583B00A4B5A6930
:101E1C0042F001025A615B6903F001030193019BDB
:101E2C00002211460B20FEF75BFB0B20FEF78CFB10
:101E3C0003B05DF804FB00BF00100240FEE7000099
:101E4C0008B50B480B4B03604FF4E13343600023A0
:101E5C008360C36003610C2242618361C361FFF73D
:101E6C00FEFD00B908BD4FF4B8710348FFF7E6FF5B
:101E7C0084000020003801408425000800B595B08E
:101E8C004748484B036000234360202282604FF692
:101E9C00FF72C260036143618361FFF785FB002819
:101EAC0050D114A94FF4805341F8103D3C48FFF732
:101EBC0002FA00284BD13A48FFF78FFB00284BD190
:101ECC0000230E930F930EA93548FFF753FC0028FF
:101EDC0047D100220792089209920A920B920C9217
:101EEC000D9207A92E48FFF7C3FB00283ED1042210
:101EFC0007A92B48FFF7BCFB00283CD1082207A9F7
:101F0C002748FFF7B5FB00283AD10C2207A9244833
:101F1C00FFF7AEFB002838D1002300930193029306
:101F2C000522039204934FF40052059206936946DE
:101F3C001B48FFF7F3FB68BB194800F0FBF915B021
:101F4C005DF804FB4FF491711748FFF777FF4FF4DE
:101F5C0094711548FFF772FF40F22D111248FFF7EC
:101F6C006DFF4FF49A711048FFF768FF4FF4A071A2
:101F7C000D48FFF763FF40F245110B48FFF75EFF7A
:101F8C004FF4A5710848FFF759FF40F24F1106486E
:101F9C00FFF754FF40F25B110348FFF74FFF00BF00
:101FAC0008010020002C01408425000800B585B0F4
:101FBC0019481A4B036000238360C36043614FF4DC
:101FCC008022C261436001230361FEF7C3F9B0B9FB
:101FDC0004A94FF4C02341F8043D0F48FEF742FA20
:101FEC0088B90323009301230193002302936946CC
:101FFC000948FEF7EDF850B905B05DF804FBD9219E
:10200C000748FFF71BFFE1210548FFF717FFEB21FE
:10201C000348FFF713FF00BF5400002000240140C9
:10202C008425000800B585B01348144B03600023C9
:10203C008360C36043614FF46022C261436001233B
:10204C000361FEF787F968B9042301930123029316
:10205C000023039301A90848FEF7BAF838B905B074
:10206C005DF804FB40F201110548FFF7E7FE40F272
:10207C000B110348FFF7E2FE24000020002801406A
:10208C008425000800B595B002230A9301220E9214
:10209C0010220F921193002312934FF46013139399
:1020AC000AA8FEF7B9FC50BB0F2305930221069139
:1020BC00002307934FF480620892099305A8FEF75A
:1020CC00D1FE00BB022301934FF40043039301A8FC
:1020DC00FEF7AAFFD8B9FEF781FF0F4BA3FB003028
:1020EC008009FEF73DFA0420FEF750FA0022114653
:1020FC004FF0FF30FEF7F4F915B05DF804FBA321A7
:10210C000648FFF79BFEB1210448FFF797FEB82164
:10211C000248FFF793FE00BFD34D621084250008E0
:10212C0000B585B0FEF722F8FFF7ACFFFFF72CFEE9
:10213C00FFF76AFEFFF784FEFFF7A0FEFFF736FFFE
:10214C00FFF770FF0C210C48FFF7D0FA0B4A01ABDC
:10215C0007CA03C31A7004210948FEF743FC4FF663
:10216C00FF73092201A90748FFF7A8FC4FF47A7006
:10217C00FEF71CF8EAE700BF0801002094250008D0
:10218C00000C01408400002000B583B0294B9A69F3
:10219C0042F001029A619A6902F001020092009ADF
:1021AC00DA6942F08052DA61DB6903F08053019303
:1021BC00019B0320FEF782F9002211466FF00B0001
:1021CC00FEF78EF9002211466FF00A00FEF788F92F
:1021DC00002211466FF00900FEF782F90022114629
:1021EC006FF00400FEF77CF9002211466FF003003B
:1021FC00FEF776F9002211466FF00100FEF770F938
:10220C00002211464FF0FF30FEF76AF9002211460A
:10221C000520FEF765F90520FEF796F9064B5A687E
:10222C0022F0E0625A605A6842F000725A6003B0C1
:10223C005DF804FB001002400000014010B586B0B0
:10224C000368254A934204D0244A934230D006B006
:10225C0010BD0446224B9A6942F400729A619B6944
:10226C0003F400730093009B7823029303230393DE
:10227C0002A91C48FEF7CAFA1B481C4B036000233A
:10228C00436083608022C2604FF4807202614FF41D
:10229C00806242618361C361FEF78EF918B9124BFB
:1022AC0023625C62D3E77F211148FFF7C7FDF6E795
:1022BC000B4B9A6942F480629A619B6903F48063C8
:1022CC000193019B702302930323039302A90548F6
:1022DC00FEF79CFABBE700BF002401400028014038
:1022EC000010024000080140C40000200800024019
:1022FC00A025000802680E4B9A4200D0704700B52A
:10230C0083B003F564439A6942F400629A619B6955
:10231C0003F400630193019B002211461920FEF780
:10232C00DFF81920FEF710F903B05DF804FB00BFCD
:10233C00002C01400268114B9A4200D0704710B536
:10234C0084B04FF4F0630093022401940394694623
:10235C000B48FEF75BFA0323009301940394694640
:10236C000848FEF753FA084B5A6822F0C0025A602C
:10237C005A6842F040025A6004B010BD002C014073
:10238C0000080140000C01400000014002681A4B9B
:10239C009A4200D0704730B587B003F558439A691C
:1023AC0042F480429A619B6903F480430193019B40
:1023BC004023029302230393032305930F4D02A999
:1023CC002846FEF723FA80230293002403940494F6
:1023DC0002A92846FEF71AFA094A536843F0040387
:1023EC005360224621462520FEF77AF82520FEF779
:1023FC00ABF807B030BD00BF00380140000C014005
:10240C00000001407047FEE7FEE7FEE7FEE770477D
:10241C007047704708B5FDF7BBFEFEF7C8F808BD5E
:10242C007047000008B50248FEF74EF908BD00BF22
:10243C00C400002008B50248FEF7C6FF08BD00BF67
:10244C000801002008B50248FFF706FC08BD00BFD4
:10245C00840000200F4B1A6842F001021A60596880
:10246C000D4A0A405A601A6822F0847222F48032B3
:10247C001A601A6822F480221A605A6822F4FE024A
:10248C005A604FF41F029A60044B4FF000629A603E
:10249C00704700BF001002400000FFF800ED00E0A4
:1024AC00002103E00B4B5B58435004310A480B4BA3
:1024BC0042189A42F6D30A4A02E0002342F8043B3F
:1024CC00084B9A42F9D3FFF7C5FF00F00FF8FFF75E
:1024DC0027FE7047C42500080000002004000020DF
:1024EC000400002048010020FEE7000070B5002524
:1024FC000C4E0D4CA41BA410A54209D100F01AF8E7
:10250C0000250A4E0A4CA41BA410A54205D170BD8F
:10251C0056F8253098470135EEE756F825309847A0
:10252C000135F2E7BC250008BC250008BC250008D5
:10253C00C0250008F8B500BFF8BC08BC9E46704723
:0C254C00F8B500BFF8BC08BC9E46704704
:1025580002030405060708090A0B0C0D0E0F1010DC
:102568000102000000000000000000000102030456
:102578000607080900000000010203042E2E2F534D
:1025880072632F6D61696E2E630000007465737449
:1025980032310D0A000000002E2E2F5372632F7364
:1025A800746D3332663178785F68616C5F6D737013
:0425B8002E6300008E
:0425BC0031010008E1
:0425C0000D01000801
:0425C40000A24A0423
:04000005080024AD1E
:00000001FF
