:020000040800F2
:10000000002800203D2C0008692B00086B2B0008FD
:100010006D2B00086F2B0008712B000800000000FA
:10002000000000000000000000000000732B00082A
:10003000752B000800000000772B0008792B0008C2
:10004000852C0008852C0008852C0008852C0008CC
:10005000852C0008852B0008852C0008852C0008BD
:10006000852C0008852C0008852C0008892B0008A9
:10007000852C0008852C0008852C0008852C00089C
:10008000852C0008852C0008992B0008852C000879
:10009000852C0008852C0008852C0008852C00087C
:1000A000852C0008B12B0008C12B0008D12B0008BB
:1000B000852C0008852C000800000000852C000815
:1000C000852C00080000000000000000852C0008BE
:1000D00000000000E12B0008852C00080000000053
:1000E000852C0008852C0008852C000800000000E5
:1000F0000000000000000000000000000000000000
:0C01000000000000000000005FF808F1A3
:10010C0010B5054C237833B9044B13B10448AFF345
:10011C0000800123237010BD680000200000000047
:10012C00343B000808B5034B1BB103490348AFF33C
:10013C00008008BD000000006C000020343B00086B
:10014C0010B50446074B1868074BA3FB0030800919
:10015C0000F0C6FC002221464FF0FF3000F080FC7E
:10016C00002010BD00000020D34D621008B5074AD6
:10017C00136843F010031360032000F05FFC0020B1
:10018C00FFF7DEFF02F08AFB002008BD00200240D2
:10019C00024A136801331360704700BF90000020BF
:1001AC00014B1868704700BF9000002030B583B039
:1001BC000190FFF7F5FF0546019CB4F1FF3F00D01D
:1001CC000134FFF7EDFF401BA042FAD303B030BD62
:1001DC007047704710B5044603685A6812F0200F38
:1001EC0018D01A6812F0020F14D0826A12F0100F95
:1001FC0003D1826A42F4007282629A6802F460222D
:10020C00B2F5602F3CD02046FFF7E2FF23686FF079
:10021C0012021A6023685A6812F0800F26D01A68EE
:10022C0012F0040F22D0A26A12F0100F03D1A26AAE
:10023C0042F40052A2629A6802F4E042B2F5E04F36
:10024C0035D05A6812F4806F05D19A6802F4602296
:10025C00B2F5602F28D0204600F0B2FA04212248D3
:10026C0000F080FE23686FF00C021A6023685A6855
:10027C0012F0400F03D01B6813F0010F28D110BDF2
:10028C00E268002ABFD15A6822F020025A60A36AA1
:10029C0023F48073A362A36A13F4805FB3D1A36ABF
:1002AC0043F00103A362AEE7E268002AD3D15A6897
:1002BC0022F080025A60A36A23F48053A362A36ADB
:1002CC0013F4807FC7D1A36A43F00103A362C2E792
:1002DC00A36A43F48033A3622046FFF77AFF2368B6
:1002EC006FF001021A60CAE7000C014030B482B012
:1002FC000023019390F82430012B00F08B800246F0
:10030C00012380F824304B68062B29D80568686BCC
:10031C0003EB8303053B1F249C4020EA04000C687C
:10032C0004FA03F303436B630B68092B38D9156884
:10033C00E86803EB43031E3B07249C4020EA0400BF
:10034C008C6804FA03F30343EB600B68103B012B3E
:10035C0034D90020002382F8243002B030BC70471E
:10036C000C2B0ED80568286B03EB8303233B1F244F
:10037C009C4020EA04000C6804FA03F303432B634B
:10038C00D2E70568E86A03EB8303413B1F249C40DA
:10039C0020EA04000C6804FA03F30343EB62C3E79E
:1003AC001568286903EB430307249C4020EA0400EA
:1003BC008C6804FA03F303432B61C6E713681648F1
:1003CC00834205D0936A43F0200393620120C1E776
:1003DC00986810F4000F1BD1986840F400009860E6
:1003EC000B68102B01D00020B4E70C4B1B680C4998
:1003FC00A1FB03139B0C03EB83035900019102E057
:10040C00019B013B0193019B002BF9D10020A1E73B
:10041C0000209FE70220A0E70024014000000020FC
:10042C0083DE1B4330B583B00023019303689A68C5
:10043C0012F0010F2ED19A6842F001029A60174B0C
:10044C001B68174AA2FB03239B0C019302E0019B40
:10045C00013B0193019B002BF9D10446FFF7A0FE51
:10046C00054623689B6813F0010F11D1FFF798FE26
:10047C00401B0228F5D9A36A43F01003A362E36A78
:10048C0043F00103E362002384F82430012002E0EE
:10049C00002000E0002003B030BD00BF00000020B1
:1004AC0083DE1B4390F82430012B6FD010B504462B
:1004BC00012380F82430FFF7B5FF0246002860D1F5
:1004CC00A36A23F4706323F0010343F48073A362E3
:1004DC00236830498B422CD0A16A21F48011A1628F
:1004EC00596811F4806F05D0A16A21F4405141F490
:1004FC008051A162A16A11F4805F30D0E16A21F0D1
:10050C000601E162002184F824106FF002011960E9
:10051C0021684B6843F020034B602368996801F411
:10052C006021B1F5602F1DD0996841F4801199605C
:10053C002AE0A1F58061496811F4702FCCD0A16A32
:10054C0041F48011A1621449496811F4806FD1D033
:10055C00A16A21F4405141F48051A162CAE7002103
:10056C00E162CFE70B498B4204D0996841F4A001BA
:10057C00996009E0A1F58061496811F4702FD3D11D
:10058C00F3E7002384F82430104610BD02221046F5
:10059C00704700BF002801400024014038B50368B3
:1005AC009A6812F0010F01D1002038BD04469A68F8
:1005BC0022F001029A60FFF7F3FD054623689B6861
:1005CC0013F0010F0ED0FFF7EBFD401B0228F5D9FD
:1005DC00A36A43F01003A362E36A43F00103E362EE
:1005EC000120E2E70020E0E700287FD038B5044680
:1005FC00836A002B33D02046FFF7D0FFA36A13F099
:10060C0010036DD100286BD1A26A22F4885222F01B
:10061C00020242F00202A2626268E1690A43E568E2
:10062C0042EA4502A168B1F5807F21D001291CD096
:10063C00616901291FD02568696821F469410B4360
:10064C006B6021688D682A4B2B4013438B60A36829
:10065C00B3F5807F20D0012B1ED000211FE0C36298
:10066C0080F8243002F074F9C5E74FF48073DFE7AB
:10067C004FF48073DCE735B9A169013943EA4133A2
:10068C0043F40063D7E7A16A41F02001A162E16A5B
:10069C0041F00101E162CEE72369013B19052568B0
:1006AC00EB6A23F470030B43EB6223689968114BDC
:1006BC000B409A420BD0A36A23F0120343F01003B1
:1006CC00A362E36A43F00103E36201200DE000231F
:1006DC00E362A36A23F0030343F00103A36204E083
:1006EC00A36A43F01003A362012038BD01207047B8
:1006FC00FDF7E1FFFE0E1FFF90F82430012B59D0BF
:10070C0010B50446012380F82430FFF78BFE024617
:10071C0000284AD1A36A23F4405323F0010343F485
:10072C008053A3622168254B994224D0A36A23F4F9
:10073C008013A362A36A13F4807F01D10023E362C8
:10074C00002384F824306FF004030B6021684B689D
:10075C0043F080034B602368596811F4806F27D1F4
:10076C00996801F4E041B1F5E04F0FD0996841F47C
:10077C00004199601CE0A3F580635B6813F4702F53
:10078C00D4D0A36A43F48013A362D3E70B498B4202
:10079C0004D0996841F40211996009E0A1F58061D7
:1007AC00496811F4702FE1D1F3E7002384F8243069
:1007BC00104610BD02221046704700BF00280140B1
:1007CC0070470000F0B482B00346002201928068AA
:1007DC0093F82420012A00F0FC80012283F82420C5
:1007EC0000284CD14A68012A3FD09A6A42F0200274
:1007FC009A6201201C68A26812F0010F07D1A2684E
:10080C0022F4E04222F00102CD692A43A2608A69F7
:10081C00012A5ED04A69012A6BD00A68092A76D966
:10082C001E68F46802EB42021E3A0725954024EA42
:10083C0005048D6805FA02F22243F2600A68103A48
:10084C00012A72D94A68022A00F08880032A00F033
:10085C008F80012A6FD01C68226A22F47F6222F0FA
:10086C000F02CD682A4322626EE01868826B920DEB
:10087C0092050C6842EAC43282630020BAE74A68E7
:10088C000C69A24215D81F68BD6B101B00EB8000D1
:10089C000F301F22824042F4401225EA0205621EEC
:1008AC000E6806FA00F040EA02522A43BA630020AE
:1008BC00A0E71E68B56B121B02EB82020F321F20E1
:1008CC0000FA02F242F4401225EA0202B26300205E
:1008DC0090E7CA69B2F5E04F05D09A6A42F020025F
:1008EC009A62012096E71C68626842F4806262603A
:1008FC0090E78A692AB91C68626842F48052626087
:10090C008BE79A6A42F020029A62012085E71E6802
:10091C00346902EB42020725954024EA05048D68F0
:10092C0005FA02F22243326188E71C68A26842F49D
:10093C000002A26086E71C68626922F47F6222F0E2
:10094C000F02CD682A4362610A68103A012A19D94C
:10095C00002283F8242002B0F0BC70471C68A26906
:10096C0022F47F6222F00F02CD682A43A261EBE7EA
:10097C001C68E26922F47F6222F00F02CD682A43E0
:10098C00E261E1E71A68144CA24205D09A6A42F07F
:10099C0020029A620120DBE7946814F4000FD7D18F
:1009AC00946844F4000494600A68102AD0D10B4A6D
:1009BC0012680B49A1FB0212920C02EB820251004D
:1009CC00019102E0019A013A0192019A002AF9D1AF
:1009DC00BEE70220BFE700BF00240140000000205A
:1009EC0083DE1B43034690F82420012A20D00122E9
:1009FC0080F824200268906810F0010F07D10D4890
:100A0C00806810F0010F02D10B48824208D09A6A1C
:100A1C0042F020029A620120002283F824207047C1
:100A2C00506820F470200968014351600020F3E7FE
:100A3C00022070470028014000240140074AD36877
:100A4C0023F4E0631B041B0C000200F4E060184369
:100A5C0040F0BF6040F40030D060704700ED00E023
:100A6C0030B4174BDB68C3F30223C3F10704042C27
:100A7C0028BF04241D1D062D18D9033B4FF0FF354C
:100A8C0005FA04F421EA0401994005FA03F322EA79
:100A9C000303194300280BDB0901C9B200F16040C4
:100AAC0000F5614080F8001330BC70470023E5E787
:100ABC0000F00F000901C9B2024B1954F4E700BF52
:100ACC0000ED00E014ED00E000F01F0240090123EE
:100ADC009340024A42F82030704700BF00E100E02A
:100AEC000138B0F1807F0AD2064B5860064AF021DB
:100AFC0082F823100020986007221A6070470120AA
:100B0C00704700BF10E000E000ED00E0042805D0C5
:100B1C00054A136823F0040313607047024A1368F4
:100B2C0043F004031360704710E000E0704708B511
:100B3C00FFF7FCFF08BD0000002830D010B40346BE
:100B4C000168184A0A441848A0FB020212099200D4
:100B5C001A64164ADA63022283F82120086820F40A
:100B6C007F5020F030005A689C682243DC68224396
:100B7C001C6922435C6922439C692243DC69224341
:100B8C0002430A6000209862D86218635863986325
:100B9C00012283F8212083F8200010BC704701202B
:100BAC00704700BFF8FFFDBFCDCCCCCC000002409D
:100BBC0008B590F82130022B03D004238363012065
:100BCC0008BD0268136823F00E03136002681368F3
:100BDC0023F0010313600368194A934214D01432B2
:100BEC0093421FD0143293421ED0143293421ED023
:100BFC00143293421ED01432934202D04FF08072C2
:100C0C0003E04FF4801200E001220E4B5A600123E6
:100C1C0080F82130002380F82030436B6BB198476B
:100C2C000020CDE71022F0E74FF48072EDE74FF48F
:100C3C008052EAE74FF48032E7E70020C0E700BFBC
:100C4C00080002400000024038B5C36B1A68046803
:100C5C002568016C04238B40134235D015F0040F2A
:100C6C0032D0236813F0200F03D1236823F0040340
:100C7C0023600368434A934214D01432934218D031
:100C8C001432934217D01432934217D01432934239
:100C9C0017D01432934202D04FF0806203E04FF42D
:100CAC00800200E00422384B5A60C36A03B19847B3
:100CBC0038BD4022F7E74FF48062F4E74FF48042EE
:100CCC00F1E74FF48022EEE702238B4013423CD035
:100CDC0015F0020F39D0236813F0200F06D12368CA
:100CEC0023F00A032360012380F821300368254A8E
:100CFC00934214D0143293421CD0143293421BD022
:100D0C00143293421BD0143293421BD014329342B0
:100D1C0002D04FF0007203E04FF4001200E0022208
:100D2C00194B5A60002380F82030836A002BBFD007
:100D3C009847BDE72022F3E74FF40072F0E74FF439
:100D4C000052EDE74FF40032EAE7082303FA01F111
:100D5C001142ADD015F0080FAAD0236823F00E0372
:100D6C002360026CC16B012303FA02F24A608363B5
:100D7C0080F82130002380F82030036B002B97D0B3
:100D8C00984795E70800024000000240F0B482B09A
:100D9C000026354668E0002C00F09680012C00D12E
:100DAC00CE68FF2B00F2A4808446FF2B00F2A380B8
:100DBC00AC00DCF800200F27A74022EA070206FA55
:100DCC0004F42243CCF800204A6812F0805F4AD029
:100DDC005B4A946944F001049461926902F0010247
:100DEC000192019AAC08A71C564A52F8272005F02C
:100DFC000307BF004FF00F0C0CFA07FC22EA0C0C97
:100E0C00514A90427DD002F5806290427BD002F52F
:100E1C008062904273D00322BA4042EA0C02023440
:100E2C00484F47F824204A6812F4803F6DD0474C55
:100E3C0022681A4322604A6812F4003F6BD0434C7C
:100E4C0062681A4362604A6812F4801F69D03F4C92
:100E5C00A2681A43A2604A6812F4001F67D03B4C88
:100E6C00E2681343E36001350F2D66D80122AA40D6
:100E7C000B6813409A42F6D14C68122C2ED009D82C
:100E8C00022C28D087D9032C2ED0112C89D1CE68D6
:100E9C00043686E72E4FBC4216D00CD92D4FBC42DF
:100EAC0012D007F58037BC420ED0A7F58017BC4294
:100EBC007FF477AF08E0A7F58017BC4204D007F5A4
:100ECC008037BC427FF46DAF8C687CB1012C08D0AC
:100EDC004261082665E7CE68083662E7CE680C36B4
:100EEC005FE7026108265CE700265AE7042658E70C
:100EFC0000F1040C59E7A5F10804A40059E70222FB
:100F0C008AE7002288E7012286E7104C226822EA51
:100F1C00030222608FE70D4C626822EA03026260D2
:100F2C0091E70A4CA26822EA0302A26093E7074CFD
:100F3C00E26822EA0303E36095E702B0F0BC704775
:100F4C000010024000000140000801400004014074
:100F5C00000021100000311012B909040161704722
:100F6C0001617047C3685940C160704782B0084B3B
:100F7C001B68084AA2FB03235B0A00FB03F00190E9
:100F8C0000BF019B5A1E0192002BF9D102B0704791
:100F9C0000000020D34D621070B582B00446036887
:100FAC0013F0010F2CD0AB4B5B6803F00C03042B3C
:100FBC001DD0A84B5B6803F00C03082B12D06368A0
:100FCC00B3F5803F41D0002B55D103F1804303F59D
:100FDC0004331A6822F480321A601A6822F48022D0
:100FEC001A6037E09B4B5B6813F4803FE7D0994B5A
:100FFC001B6813F4003F03D06368002B00F0AE8134
:10100C00236813F0020F76D0924B5B6813F00C0F31
:10101C005FD0904B5B6803F00C03082B54D0236912
:10102C00002B00F08A808C4B01221A60FFF7B8F875
:10103C000546884B1B6813F0020F75D1FFF7B0F80B
:10104C00401B0228F5D903208BE1824A136843F434
:10105C0080331360636843B3FFF7A2F805467D4BFA
:10106C001B6813F4003FCBD1FFF79AF8401B6428A0
:10107C00F5D9032075E1B3F5A02F09D0754B1A688B
:10108C0022F480321A601A6822F480221A60E1E796
:10109C0003F18043A3F53C331A6842F480221A60B2
:1010AC001A6842F480321A60D4E7FFF779F80546E3
:1010BC00684B1B6813F4003FA2D0FFF771F8401B7C
:1010CC006428F5D903204CE1624B5B6813F4803F34
:1010DC00A5D1604B1B6813F0020F04D02369012BC0
:1010EC0001D001203DE15B4A136823F0F8036169EC
:1010FC0043EAC1031360236813F0080F32D0A369CD
:10110C00002B5BD0554B01221A60FFF749F80546BE
:10111C00504B5B6A13F0020F21D1FFF741F8401BD3
:10112C000228F5D903201CE14A4A136823F0F8037E
:10113C00616943EAC1031360DDE7474B00221A6083
:10114C00FFF72EF80546434B1B6813F0020FD2D065
:10115C00FFF726F8401B0228F5D9032001E10120F6
:10116C00FFF704FF236813F0040F00F09780394B4E
:10117C00DB6913F0805F33D1364BDA6942F0805271
:10118C00DA61DB6903F080530193019B0125344B39
:10119C001B6813F4807F25D0E368012B36D0002B1D
:1011AC004CD103F1804303F504331A6A22F0010297
:1011BC001A621A6A22F004021A622CE0274B0022EF
:1011CC001A60FEF7EDFF0546224B5B6A13F0020F27
:1011DC00C8D0FEF7E5FF401B0228F5D90320C0E07C
:1011EC000025D4E71E4A136843F480731360FEF79E
:1011FC00D7FF06461A4B1B6813F4807FCCD1FEF741
:10120C00CFFF801B6428F5D90320AAE0114A136A8A
:10121C0043F001031362E36873B3FEF7C1FF0646A4
:10122C000C4B1B6A13F0020F37D1FEF7B9FF801B72
:10123C0041F288339842F3D9032092E0052B11D068
:10124C00044B1A6A22F001021A621A6A22F0040292
:10125C001A62E0E700100240000042428004424261
:10126C0000700040414B1A6A42F004021A621A6A7A
:10127C0042F001021A62CEE7FEF792FF06463B4BA4
:10128C001B6A13F0020F08D0FEF78AFF801B41F295
:10129C0088339842F3D9032063E0E5B9E369002B66
:1012AC005ED0324A526802F00C02082A5BD0022B44
:1012BC0017D02F4B00221A60FEF772FF04462B4BFF
:1012CC001B6813F0007F47D0FEF76AFF001B022853
:1012DC00F5D9032045E0254AD36923F08053D36127
:1012EC00DCE7234B00221A60FEF75AFF05461F4B22
:1012FC001B6813F0007F06D0FEF752FF401B02283C
:10130C00F5D903202DE0236AB3F5803F1AD0174995
:10131C004B6823F47413226A606A024313434B60D4
:10132C00134B01221A60FEF73BFF04460F4B1B6860
:10133C0013F0007F0ED1FEF733FF001B0228F5D906
:10134C0003200EE0094A536823F40033A1680B43D1
:10135C005360DCE7002004E0002002E0012000E004
:10136C00002002B070BD0120FBE700BF001002405E
:10137C006000424210B487B0164C94E80F000DF197
:10138C00180C0CE90F00238AADF80430124B5B6883
:10139C0003F00C02082A1AD1C3F38342624412F8F8
:1013AC00100C13F4803F05D10C4B03FB00F007B07D
:1013BC0010BC7047084B5B68C3F34043634413F89D
:1013CC00142C074BB3FBF2F300FB03F0EFE70448DC
:1013DC00EDE700BF4C3B00080010024000093D0047
:1013EC0000127A00594B1B6803F007038B420CD296
:1013FC00564A136823F007030B431360136803F07A
:10140C0007038B4201D00120704770B5036813F0BD
:10141C00020F06D04E4A536823F0F003846823432E
:10142C0053600C460546036813F0010F52D0436815
:10143C00012B23D0022B28D0454A126812F0020F40
:10144C0000F0828042494A6822F0030213434B6049
:10145C00FEF7A6FE06466B68012B1DD0022B2AD088
:10146C003B4B5B6813F00C0F34D0FEF799FE801BDE
:10147C0041F288339842F3D9032064E0344A12686D
:10148C0012F4003FDED101205DE0314A126812F007
:10149C00007FD7D1012056E02D4B5B6803F00C0385
:1014AC00042B17D0FEF77CFE801B41F28833984248
:1014BC00F2D9032047E0264B5B6803F00C03082BA2
:1014CC0008D0FEF76DFE801B41F288339842F2D9AA
:1014DC00032038E01D4B1B6803F00703A3420CD913
:1014EC001A4A136823F0070323431360136803F0AD
:1014FC000703A34201D0012025E02B6813F0040F51
:10150C0006D0134A536823F4E063E9680B43536035
:10151C002B6813F0080F07D00D4A536823F460535F
:10152C00296943EAC1035360FFF724FF084B5B684A
:10153C00C3F30313074AD35CD840074B1860002051
:10154C00FEF7FEFD002070BD0120FCE700200240EC
:10155C0000100240603B000800000020014B18689E
:10156C00704700BF0000002008B5FFF7F7FF044BE1
:10157C005B68C3F30223034AD35CD84008BD00BFA9
:10158C0000100240703B000808B5FFF7E7FF044B62
:10159C005B68C3F3C223034AD35CD84008BD00BFC9
:1015AC0000100240703B000870B582B0044603681E
:1015BC0013F0010F34D03E4BDB6913F0805F48D140
:1015CC003B4BDA6942F08052DA61DB6903F08053FD
:1015DC000193019B0125374B1B6813F4807F3AD094
:1015EC00334B1B6A13F4407311D0626802F44072DF
:1015FC009A420CD02E4A136A23F440702E490126CD
:10160C000E6000260E60106213F0010F37D1284ACD
:10161C00136A23F4407361680B431362002D3FD1AE
:10162C00236813F0020F06D0214A536823F4404379
:10163C00A1680B435360236813F0100F35D01C4A7C
:10164C00536823F48003E1680B435360002002B01D
:10165C0070BD0025BFE7174A136843F4807313600D
:10166C00FEF79EFD0646134B1B6813F4807FB7D123
:10167C00FEF796FD801B6428F5D90320E7E7FEF7FB
:10168C008FFD06460A4B1B6A13F0020FBFD1FEF703
:10169C0087FD801B41F288339842F3D90320D6E7AB
:1016AC00D36923F08053D361BAE70020CFE700BFA2
:1016BC0000100240007000404004424270B4036AC3
:1016CC0023F001030362036A4268846924F0730403
:1016DC000D6845EA040623F002048B6823430D4D84
:1016EC00A84209D00B4DA8420DD0426086614A68D1
:1016FC004263036270BC704723F00803CC68234339
:10170C0023F00403EEE722F440724C6914438A6917
:10171C002243EAE7002C014030B4036A23F48073BF
:10172C000362036A4268C46924F073040D682C4395
:10173C0023F400738D6843EA05230F4DA84209D0AA
:10174C000D4DA8420ED04260C4614A68C263036268
:10175C0030BC704723F40063CD6843EA052323F4BF
:10176C008063EDE722F440524D6942EA05128D691F
:10177C0042EA0512E7E700BF002C014030B4036ACF
:10178C0023F480530362036A4468C26922F4E6427C
:10179C000D6842EA052223F400538D6843EA0533B1
:1017AC00074DA84206D04460C2614A6802640362D5
:1017BC0030BC704724F480444D6944EA8514F2E748
:1017CC00002C014010B4036A046A24F00104046282
:1017DC00846924F0F00444EA021223F00A030B4358
:1017EC008261036210BC704710B4036A23F01003CB
:1017FC0003628469036A24F4704444EA023223F0DD
:10180C00A00343EA01138261036210BC7047836832
:10181C0023F0700341F0070119438160704710B445
:10182C00846824F47F4442EA03230B4323438360FC
:10183C0010BC70470268D36843F00103D3600268A0
:10184C00136843F00103136000207047704790F851
:10185C003C30012B7DD010B50446012380F83C3080
:10186C00022380F83D300268936823F47F4323F011
:10187C00770393600B68402B57D010D9702B3ED058
:10188C001FD8502B47D0602B32D1CA6849680068EA
:10189C00FFF7AAFF60212068FFF7B9FF28E0102BA3
:1018AC004DD008D9202B4FD0302B21D130210068BE
:1018BC00FFF7ADFF1CE0DBB900210068FFF7A7FFC5
:1018CC0016E0B3F5805F0ED0B3F5005F10D1CB6896
:1018DC004A6889680068FFF7A2FF2268936843F49E
:1018EC008043936004E00268936823F007039360DD
:1018FC00012384F83D30002084F83C0010BDCB68F7
:10190C004A6889680068FFF78AFF2268936843F089
:10191C0077039360ECE7CA6849680068FFF752FFE9
:10192C0050212068FFF773FFE2E7CA684968006836
:10193C00FFF748FF40212068FFF769FFD8E7102127
:10194C000068FFF764FFD3E720210068FFF75FFF13
:10195C00CEE702207047704770477047704710B54C
:10196C00044603681A6912F0020F11D0DA6812F0FB
:10197C00020F0DD06FF002021A6101230377036886
:10198C009B6913F0030F70D0FFF7E7FF0023237759
:10199C0023681A6912F0040F12D0DA6812F0040FDF
:1019AC000ED06FF004021A610223237723689B691F
:1019BC0013F4407F5FD02046FFF7CFFF002323773F
:1019CC0023681A6912F0080F12D0DA6812F0080FA7
:1019DC000ED06FF008021A61042323772368DB69A9
:1019EC0013F0030F4ED02046FFF7B7FF00232377E9
:1019FC0023681A6912F0100F12D0DA6812F0100F67
:101A0C000ED06FF010021A61082323772368DB696C
:101A1C0013F4407F3DD02046FFF79FFF0023237730
:101A2C0023681A6912F0010F03D0DA6812F0010F63
:101A3C0036D123681A6912F0800F03D0DA6812F0DD
:101A4C00800F34D123681A6912F0400F03D0DA6882
:101A5C0012F0400F32D123681A6912F0200F03D014
:101A6C00DA6812F0200F30D110BDFFF775FF204659
:101A7C0000F000FF8AE72046FFF76EFF204600F0DB
:101A8C00F9FE9BE72046FFF767FF204600F0F2FEC9
:101A9C00ACE72046FFF760FF204600F0EBFEBDE709
:101AAC006FF001021A612046FFF755FFC1E76FF096
:101ABC0080021A61204600F093F9C3E76FF04002F0
:101ACC001A612046FFF74AFFC5E76FF020021A6142
:101ADC00204600F084F9C7E70368174A904206D005
:101AEC00B0F1804F03D0A2F59432904203D123F091
:101AFC0070034A681343104A904206D0B0F1804FED
:101B0C0003D0A2F59432904203D123F44073CA68F7
:101B1C00134323F080034A69134303608B68C36249
:101B2C000B688362044B984202D0012343617047D7
:101B3C000B690363F9E700BF002C0140A8B110B595
:101B4C00044690F83D305BB1022384F83D30211DF2
:101B5C002068FFF7C1FF012384F83D30002010BD41
:101B6C0080F83C3000F062FFEEE701207047A8B12E
:101B7C0010B5044690F83D305BB1022384F83D303B
:101B8C00211D2068FFF7A8FF012384F83D300020B9
:101B9C0010BD80F83C30FFF759FEEEE7012070478E
:101BAC0030B4036A23F010030362036A4468826949
:101BBC0022F4E6420D6842EA052223F020038D68E8
:101BCC0043EA05130E4DA84209D00D4DA8420ED084
:101BDC00446082614A688263036230BC704723F0C0
:101BEC008003CD6843EA051323F04003EDE724F4AA
:101BFC0040644D6944EA85048D6944EA8504E7E74D
:101C0C00002C014090F83C30012B28D010B5044634
:101C1C00012380F83C30022380F83D300C2A0BD88D
:101C2C00DFE802F0070A0A0A110A0A0A150A0A0A68
:101C3C0019000068FFF742FD012384F83D300020B5
:101C4C0084F83C0010BD0068FFF7AAFFF4E70068B9
:101C5C00FFF762FDF0E70068FFF790FDECE702206C
:101C6C00704710B4012303FA01F4036A23EA040356
:101C7C000362036A8A401343036210BC704700007E
:101C8C0010B504460C290DD8DFE801F0070C0C0C3C
:101C9C001B0C0C0C210C0C0C27000268D36843F0B5
:101CAC000203D36001222068FFF7DBFF2368104A90
:101CBC00934218D02268136843F00103136000208C
:101CCC0010BD0268D36843F00403D360EAE70268EE
:101CDC00D36843F00803D360E4E70268D36843F0A9
:101CEC001003D360DEE75A6C42F400425A64E1E719
:101CFC00002C014010B4042303FA01F4036A23EA14
:101D0C0004030362036A8A401343036210BC7047E6
:101D1C0010B5044604220068FFF7ECFF2268536CF0
:101D2C0043F4004353642268136843F001031360C7
:101D3C00002010BD90F83C30012B25D0012380F8F9
:101D4C003C30CB6823F440738A68134323F48063DC
:101D5C004A68134323F400630A68134323F4805343
:101D6C000A69134323F400534A69134323F4804351
:101D7C008A69134323F4004313430268536400231A
:101D8C0080F83C30184670470220704790F83C3081
:101D9C00012B22D030B4012280F83C20022380F8A1
:101DAC003D300468636823F0700363600468636803
:101DBC000D682B4363600468A36823F08003A36061
:101DCC000468A36849680B43A36080F83D20002396
:101DDC0080F83C30184630BC704702207047704782
:101DEC0070470268D36823F49073D3600268536918
:101DFC0023F001035361202380F83A30704790F8A8
:101E0C003930DBB2212B2AD18368B3F5805F16D031
:101E1C00036A5A1C02621A7803685A60C38C013B2D
:101E2C009BB2C384EBB90268D36823F08003D36000
:101E3C000268D36843F04003D36000207047036A04
:101E4C001B880268C3F30803536003691BB9036A58
:101E5C0002330362E2E7036A01330362DEE7022026
:101E6C0070470020704700002DE9F84305460268D2
:101E7C00136923F44053C1680B43136183680269EF
:101E8C001343426913430168CA6822F4B05222F02A
:101E9C000C021343CB600268536923F440738169CD
:101EAC000B4353610268594B9A4257D0FFF75CFBC6
:101EBC0000EB800000EB80006C68A400B0FBF4F435
:101ECC00534FA7FB043464092601FFF74DFB00EBCD
:101EDC00800000EB80006C68A400B0FBF4F9FFF705
:101EEC0043FB00EB800000EB80006C68A400B0FBAF
:101EFC00F4F4A7FB043464094FF0640808FB149451
:101F0C0024013234A7FB0434640904F0F004344493
:101F1C00FFF72AFB00EB800000EB80006E68B60038
:101F2C00B0FBF6F6FFF720FB00EB800000EB800027
:101F3C006B689B00B0FBF3F0A7FB0030400908FB7B
:101F4C0010684FEA081808F13208A7FB0837C7F3E6
:101F5C0043172B6827449F60BDE8F883FFF714FBF9
:101F6C0000EB800000EB80006C68A400B0FBF4F484
:101F7C00274FA7FB043464092601FFF705FB00EB90
:101F8C00800000EB80006C68A400B0FBF4F9FFF754
:101F9C00FBFA00EB800000EB80006C68A400B0FB47
:101FAC00F4F4A7FB043464094FF0640808FB1494A0
:101FBC0024013234A7FB0434640904F0F0043444E3
:101FCC00FFF7E2FA00EB800000EB80006E68B600D1
:101FDC00B0FBF6F6FFF7D8FA00EB800000EB8000C0
:101FEC006B689B00B0FBF3F0A7FB0030400908FBCB
:101FFC0010684FEA081808F13208A7FB0837C7F336
:10200C0043172B6827449F60A6E700BF00380140A8
:10201C001F85EB512DE9F04105460F4616469846B3
:10202C00069C2B681B6837EA03030CBF01230023B3
:10203C00B3421DD1B4F1FF3FF3D02CB1FEF7B0F891
:10204C00A0EB0800A042ECD92A68D36823F4D07323
:10205C00D3602A68536923F001035361202385F868
:10206C00393085F83A30002385F83830032000E009
:10207C000020BDE8F08158B310B5044690F8393013
:10208C000BB3242384F839302268D36823F400532B
:10209C00D3602046FFF7E8FE2268136923F49043CF
:1020AC0013612268536923F02A0353612268D368B1
:1020BC0043F40053D3600020E063202384F83930CC
:1020CC0084F83A3010BD80F8383000F00BFDD8E7BA
:1020DC00012070472DE9F04182B01E4690F839304E
:1020EC00DBB2202B55D104460D469046002955D025
:1020FC00002A55D090F83830012B53D0012380F8AA
:10210C0038300023C363212380F83930FEF748F8B8
:10211C000746A4F82480A4F8268010E000963B46DD
:10212C00002280212046FFF775FF00283CD12B8828
:10213C002268C3F3080353602369C3B90235E38CE7
:10214C009BB2B3B1E38C013B9BB2E384A368B3F5C0
:10215C00805FE3D000963B46002280212046FFF7AB
:10216C0059FF18BB2A7823685A600135E7E7013517
:10217C00E5E700963B46002240212046FFF74AFF48
:10218C000346A8B9202284F83920002284F838208C
:10219C0000E00223184602B0BDE8F0810123F9E704
:1021AC000123F7E70223F5E70323F3E70323F1E722
:1021BC000323EFE7704708B50168CB6823F04003B1
:1021CC00CB60202380F83930FFF7F4FF002008BDE6
:1021DC00704708B590F83A30DBB2222B45D18368B2
:1021EC00B3F5805F0ED0036903BB03685A68836A3A
:1021FC00591C81621A70C38D013B9BB2C385F3B12C
:10220C00002033E0826A036943B903685B68C3F357
:10221C0008031380836A02338362ECE703685B680C
:10222C00DBB21380836A01338362E4E703685B6883
:10223C00826A511C816203F07F031370DBE7026832
:10224C00D36823F02003D3600268D36823F480732F
:10225C00D3600268536923F001035361202380F893
:10226C003A30FFF7B5FF002000E0022008BD7047B0
:10227C0010B5044602681368D168526913F00F0058
:10228C0005D113F0200F02D011F0200F53D10028EC
:10229C0067D012F0010202D111F4907F61D013F0DB
:1022AC00010F06D011F4807F03D0E06B40F00100E9
:1022BC00E06313F0040F04D01AB1E06B40F002009D
:1022CC00E06313F0020F04D01AB1E06B40F004008D
:1022DC00E06313F0080F04D01AB1E26B42F008026D
:1022EC00E263E26B002A48D013F0200F02D011F009
:1022FC00200F24D123685B6903F04003E26B12F0DA
:10230C00080F00D13BB32046FFF76BFD23685A69D9
:10231C0012F0400F1BD05A6922F040025A61636BD5
:10232C008BB11A4A5A63606BFEF742FC28B3606BA0
:10233C00436B984721E02046FFF74BFF1DE02046FA
:10234C00FFF747FFD6E72046FFF791FF15E0204641
:10235C00FFF78DFF11E02046FFF789FF0023E363B1
:10236C000BE013F0800F02D011F0800F06D113F0A8
:10237C00400F02D011F0400F04D110BD2046FFF7E2
:10238C003EFDFAE72046FFF716FFF6E79D2300080F
:10239C0008B5406A0023C385C384FFF768FF08BDF6
:1023AC0070B586B01B4B9A6942F004029A619A6927
:1023BC0002F004020092009A9A6942F008029A61B3
:1023CC009B6903F008030193019B134C0022042129
:1023DC002046FEF7C1FD0723029300260396012534
:1023EC00049502A90D48FEF7D1FC04230293039532
:1023FC0004960223059302A92046FEF7C7FC4FF46E
:10240C00807302930396049502A92046FEF7BEFC46
:10241C0006B070BD00100240000C014000080140E5
:10242C0000B583B00A4B5A6942F001025A615B69EC
:10243C0003F001030193019B002211460B20FEF7D0
:10244C000FFB0B20FEF740FB03B05DF804FB00BF55
:10245C0000100240FEE7000008B50B480B4B036070
:10246C004FF4E133436000238360C36003610C22AB
:10247C0042618361C361FFF7FEFD00B908BD4FF4F3
:10248C00DD710348FFF7E6FFF4000020003801403F
:10249C00783B000800B595B04748484B03600023D3
:1024AC004360202282604FF6FF72C2600361436179
:1024BC008361FFF743FB002851D114A94FF48053DB
:1024CC0041F8103D3C48FFF7C2F900284CD13A487E
:1024DC00FFF74DFB00284CD170230E9300230F9374
:1024EC000EA93548FFF752FC002847D1002207926D
:1024FC00089209920A920B920C920D9207A92E48FF
:10250C00FFF780FB00283ED1042207A92A48FFF7D9
:10251C0079FB00283CD1082207A92748FFF772FB5A
:10252C0000283AD10C2207A92348FFF76BFB00289F
:10253C0038D1002300930193029305220392049354
:10254C004FF400520592069369461B48FFF7F2FBC5
:10255C0068BB194800F09AFA15B05DF804FB40F21C
:10256C006B111748FFF776FF40F271111448FFF713
:10257C0071FF4FF4BB711248FFF76CFF4FF4BF7142
:10258C000F48FFF767FF4FF4C5710D48FFF762FF67
:10259C0040F28F110A48FFF75DFF4FF4CA710848EB
:1025AC00FFF758FF40F299110548FFF753FF40F22F
:1025BC00A5110348FFF74EFF78010020002C0140C5
:1025CC00783B000800B58DB02648274B03600023EC
:1025DC008360C36043614FF46022C2614360012396
:1025EC000361FEF701F840BB0CA94FF4803341F8AE
:1025FC00043D1C48FEF7F6F920BB0323039301238B
:10260C0004930793002305934FF4E0420A92099335
:10261C000893069303A91348FEF7D4F8B8B903231B
:10262C000093012301930023029369460D48FDF7A3
:10263C005DFE88B90DB05DF804FB4FF487710B4853
:10264C00FFF708FF4FF48B710848FFF703FF40F2C8
:10265C0025110648FFF7FEFE40F22F110348FFF745
:10266C00F9FE00BFC400002000240140783B0008A4
:10267C0000B589B01548164B036000238360C36016
:10268C0043614FF46022C261436001230361FDF793
:10269C00ABFF88B904230093012301930493002317
:1026AC00029306930593039369460848FEF78AF84C
:1026BC0038B909B05DF804FB40F245110548FFF745
:1026CC00C9FE4FF4AA710348FFF7C4FE9400002022
:1026DC0000280140783B000800B595B002230A930E
:1026EC0001220E9210220F921193002312934FF499
:1026FC00601313930AA8FEF74FFC50BB0F230593EE
:10270C0002210691002307934FF4806208920993EB
:10271C0005A8FEF767FE00BB022301934FF40043AC
:10272C00039301A8FEF740FFD8B9FEF717FF0F4B34
:10273C00A3FB00308009FEF7D3F90420FEF7E6F97D
:10274C00002211464FF0FF30FEF78AF915B05DF804
:10275C0004FBD7210648FFF77DFEE5210448FFF76F
:10276C0079FEEC210248FFF775FE00BFD34D6210D5
:10277C00783B000800B585B0FDF7F8FCFFF7ACFF1F
:10278C00FFF70EFEFFF74CFEFFF766FEFFF782FE2B
:10279C00FFF718FFFFF76CFF2F48FFF74BF818B146
:1027AC007E212E48FFF756FE2D48FDF77BFE18B113
:1027BC0085212A48FFF74EFE2A48FDF773FE18B113
:1027CC008B212648FFF746FE2548FDF795FF18B1EB
:1027DC0092212248FFF73EFE2248FDF78DFF18B1EB
:1027EC0099211E48FFF736FE1B4C00212046FFF7AF
:1027FC0047FA04212046FFF743FA08212046FFF749
:10280C003FFA0C212046FFF73BFA00212046FFF748
:10281C007FFA04212046FFF77BFA08212046FFF7B8
:10282C0077FA236800225A634FF4FA521A640E485E
:10283C0000F050FA0D4B6C460FCB07C423704FF6CB
:10284C00FF730D2269460A48FFF744FC4FF47A7077
:10285C00FDF7ACFCEEE700BF78010020783B0008E8
:10286C00C400002094000020883B0008983B00081E
:10287C00F400002008B5037F082B00D008BD0548E4
:10288C00FDF73AFF0028F9D040F201210248FFF78A
:10289C00E1FD00BFC4000020783B000800B583B008
:1028AC00294B9A6942F001029A619A6902F001027D
:1028BC000092009ADA6942F08052DA61DB6903F027
:1028CC0080530193019B0320FEF7B8F800221146B8
:1028DC006FF00B00FEF7C4F8002211466FF00A00EF
:1028EC00FEF7BEF8002211466FF00900FEF7B8F8AB
:1028FC00002211466FF00400FEF7B2F800221146D8
:10290C006FF00300FEF7ACF8002211466FF00100E7
:10291C00FEF7A6F8002211464FF0FF30FEF7A0F8A4
:10292C00002211460520FEF79BF80520FEF7CCF897
:10293C00064B5A6822F0E0625A605A6842F0007204
:10294C005A6003B05DF804FB001002400000014027
:10295C0010B586B003682E4A934204D02D4A934298
:10296C003AD006B010BD04462B4B9A6942F4007263
:10297C009A619B6903F400730093009B7823029384
:10298C000323039302A92548FEF700FA2448254B9C
:10299C0003600023436083608022C2604FF4807226
:1029AC0002614FF48062426183614FF48053C361D2
:1029BC00FEF7C2F858B91A4B23625C62002211462A
:1029CC001220FEF74DF81220FEF77EF8C9E77F21A2
:1029DC001548FFF73FFDEEE70F4B9A6942F4806212
:1029EC009A619B6903F480630193019B70230293AA
:1029FC000323039302A90948FEF7C8F900221146E4
:102A0C001220FEF72DF81220FEF75EF8A9E700BFA2
:102A1C000024014000280140001002400008014041
:102A2C003401002008000240A83B00080268164B45
:102A3C009A4200D0704700B583B003F564439A699D
:102A4C0042F400629A619B6903F400630193019B59
:102A5C00002211461920FEF703F81920FEF734F86E
:102A6C00002211461A20FDF7FBFF1A20FEF72CF866
:102A7C00002211461B20FDF7F3FF1B20FEF724F864
:102A8C0003B05DF804FB00BF002C01400268114B41
:102A9C009A4200D0704710B584B04FF4F0630093A5
:102AAC0002240194039469460B48FEF76FF9032343
:102ABC0000930194039469460848FEF767F9084BA4
:102ACC005A6822F0C0025A605A6842F040025A60BA
:102ADC0004B010BD002C014000080140000C014066
:102AEC000000014002681A4B9A4200D0704730B582
:102AFC0087B003F558439A6942F480429A619B6906
:102B0C0003F480430193019B40230293022303931C
:102B1C00032305930F4D02A92846FEF737F98023AE
:102B2C00029300240394049402A92846FEF72EF97C
:102B3C00094A536843F0040353602246214625207A
:102B4C00FDF78EFF2520FDF7BFFF07B030BD00BF9E
:102B5C0000380140000C0140000001407047FEE7C6
:102B6C00FEE7FEE7FEE770477047704708B5FDF7D4
:102B7C000FFBFDF7DCFF08BD7047000008B50248ED
:102B8C00FEF762F808BD00BF3401002008B5034809
:102B9C00FDF720FB0248FDF71DFB08BDC40000201B
:102BAC009400002008B50248FEF7D9FE08BD00BF0E
:102BBC007801002008B50248FEF7D1FE08BD00BF21
:102BCC007801002008B50248FEF7C9FE08BD00BF19
:102BDC007801002008B50248FFF74AFB08BD00BF8A
:102BEC00F40000200F4B1A6842F001021A60596879
:102BFC000D4A0A405A601A6822F0847222F480321C
:102C0C001A601A6822F480221A605A6822F4FE02B2
:102C1C005A604FF41F029A60044B4FF000629A60A6
:102C2C00704700BF001002400000FFF800ED00E00C
:102C3C00002103E00B4B5B58435004310A480B4B0B
:102C4C0042189A42F6D30A4A02E0002342F8043BA7
:102C5C00084B9A42F9D3FFF7C5FF00F00FF8FFF7C6
:102C6C0089FD7047643C00080000002068000020CB
:102C7C0068000020BC010020FEE7000070B50025B4
:102C8C000C4E0D4CA41BA410A54209D100F04CFF16
:102C9C0000250A4E0A4CA41BA410A54205D170BDF8
:102CAC0056F8253098470135EEE756F82530984709
:102CBC000135F2E75C3C00085C3C00085C3C000819
:102CCC00603C000803460244934200D1704703F86D
:102CDC00011BF9E70FB40A4B13B51C6824B1A369A7
:102CEC0013B9204600F04EF805AB049AA1682046B3
:102CFC00019300F053F902B0BDE8104004B07047E6
:102D0C0004000020002310B50446C0E900338360A2
:102D1C0081814366C281C0E904338361194608226C
:102D2C005C30FFF7CFFF054B24626362044BA36258
:102D3C00044BE362044B236310BD00BF0135000854
:102D4C00233500085B3500087F350008014900F089
:102D5C0085B800BF5938000870B568254A1E554320
:102D6C000E4605F1740100F097F8044640B10021BD
:102D7C00C0E900160C30A06005F16802FFF7A2FF55
:102D8C00204670BD836910B5044633BBC0E91233CD
:102D9C000365124B124A1B688262984204BF0123DE
:102DAC00836100F01FF86060204600F01BF8A06003
:102DBC00204600F017F80022E06004216068FFF75D
:102DCC00A1FF01220921A068FFF79CFF022212211A
:102DDC00E068FFF797FF0123A36110BDC43B000817
:102DEC00592D0008F8B51B4B07461E68B36913B97B
:102DFC003046FFF7C7FF4836D6E90134013B03D50F
:102E0C00336833B13668F7E7B4F90C506DB16834F8
:102E1C00F4E704213846FFF79FFF30600028F1D11A
:102E2C000C2304463B602046F8BD0B4B6566C4E999
:102E3C000055A560C4E90335C4E9055508222946A7
:102E4C0004F15C00FFF73EFFC4E90D55C4E91255CF
:102E5C00E9E700BFC43B00080100FFFF2DE9F84380
:102E6C0080468946002600F1480414B93046BDE876
:102E7C00F883D4E90175013F01D52468F5E7AB89E6
:102E8C00012B07D9B5F90E30013303D02946404642
:102E9C00C84706436835EEE770B5CD1C25F0030531
:102EAC0008350C2D38BF0C25002D064601DBA94238
:102EBC0003D90C233360002070BD00F075FD214A4E
:102ECC001468214691B9204C23681BB9304600F098
:102EDC0001FB20602946304600F0FCFA431C24D14B
:102EEC000C233046336000F060FDE4E70B685B1B9D
:102EFC0018D40B2B0FD90B60CC18CD50304600F0EA
:102F0C0054FD04F10B00231D20F00700C31AD3D08D
:102F1C005A42E250D0E74B688C4216BF6360136094
:102F2C000C46EBE70C464968CCE7C41C24F00304C0
:102F3C00A04205D0211A304600F0CCFA0130CFD097
:102F4C002560DBE78400002088000020936810B423
:102F5C00013B002B936007DA9469A34201DB0A2939
:102F6C0002D110BC00F00ABB1368581C1060197019
:102F7C00084610BC7047F8B506460F461446D518DF
:102F8C00AC4201D1002007E03A4614F8011B304650
:102F9C00FFF7DCFF431CF3D1F8BD00002DE9F04F27
:102FAC009DB00C4617460393064618B183690BB9BE
:102FBC00FFF7E8FE7B4B9C4257D17468A389180736
:102FCC005DD52369002B5AD00023099320238DF85B
:102FDC00293030234FF0010B8DF82A30B846454686
:102FEC0015F8013B0BB1252B54D1B8EB070A0BD0CC
:102FFC0053463A4621463046FFF7BDFF013000F0FC
:10300C00C280099B5344099398F80030002B00F0C0
:10301C00BA8000234FF0FF32CDE9052304930793C8
:10302C008DF853301A93A846052218F8011B5E48F8
:10303C0000F0ACFC049B78BBD90644BF20228DF871
:10304C0053201A0744BF2B228DF853202A782A2AA2
:10305C002AD0A84600200A25079A414611F8013BC0
:10306C00303B092B69D960B324E0504B9C4201D111
:10307C00B468A3E74E4B9C4208BFF4689EE7214618
:10308C00304600F0DFFA00289ED04FF0FF301DB024
:10309C00BDE8F08FA846A2E7434A4546801A0BFAD2
:1030AC0000F018430490BEE7039A111D12680391B7
:1030BC00002A01DB079204E0524243F0020307921C
:1030CC00049398F800302E2B0ED198F801302A2B4F
:1030DC0038D1039B08F102081A1D1B680392002BC0
:1030EC00B8BF4FF0FF330593324D032298F8001010
:1030FC00284600F04BFC40B14023401B03FA00F083
:10310C00049B08F101080343049398F8001006226D
:10311C00294808F101078DF8281000F037FC002829
:10312C0037D0264B1BBB039B073323F00703083315
:10313C000393099B4B44099350E705FB0232012092
:10314C0088468AE700230A25194608F101080593E9
:10315C00404610F8012B303A092A03D9002BC3D072
:10316C000591C1E705FB012101238046F0E703AB84
:10317C0000932246124B04A93046AFF30080B0F105
:10318C00FF3F8146D5D1A3895B063FF57EAF0998F9
:10319C007DE703AB00932246094B04A9304600F0AF
:1031AC0087F8ECE7E83B0008283C0008083C0008DE
:1031BC00C83B00082E3C0008323C00080000000010
:1031CC00832F00082DE9F04791461F468A680B694A
:1031DC0006469342B8BF1346C9F8003091F8432015
:1031EC000C46DDF8208012B10133C9F80030236899
:1031FC00990642BFD9F800300233C9F8003025686F
:10320C0015F0060507D104F1190AE368D9F8002076
:10321C009B1AAB4229DC94F843302268003318BF68
:10322C00012392062ED404F1430239463046C0479E
:10323C00013021D02368E56803F00603042B18BF86
:10324C000025D9F800204FF0000908BFAD1AA3687B
:10325C00226908BF25EAE5759342C4BF9B1AED1895
:10326C001A344D451AD1002008E001235246394644
:10327C003046C047013003D14FF0FF30BDE8F08736
:10328C000135C2E73020E11881F843005A1C94F84C
:10329C0045102244023382F84310C4E7012322462E
:1032AC0039463046C0470130E6D009F10109D8E76C
:1032BC002DE9F04301F1430C0C46097E85B06E29D3
:1032CC001746064698460C9A00F0B38022D863291C
:1032DC0036D00AD8002900F0B980582900F0838034
:1032EC0004F1420584F8421032E0642901D06929C6
:1032FC00F6D120681368050603F104012AD51B6872
:10330C001160002B03DA2D225B4284F843206F48B6
:10331C000A2239E0732900F09D8008D86F2920D04B
:10332C007029DDD1236843F02003236003E0752965
:10333C0017D07829D4D17823654884F8453055E0E6
:10334C00136804F14205191D1B68116084F84230A2
:10335C0001238CE01B6810F0400F116018BF1BB2EA
:10336C00CFE713682568181D1060280601D51B6867
:10337C0002E06806FBD51B886F2914BF0A220822BD
:10338C005248002184F843106568002DA560C0F2F6
:10339C009580216821F004012160002B3DD1002D86
:1033AC0040F08E806546082A0BD12368DB0708D5D0
:1033BC00236962689A42DEBF302305F8013C05F1AF
:1033CC00FF35ACEB05032361CDF800803B4603AA27
:1033DC0021463046FFF7F6FE01304DD14FF0FF305D
:1033EC0005B0BDE8F083394884F8451013682168AE
:1033FC001D1D1B6815600A060BD5CA0744BF41F09A
:10340C00200121601BB9226822F0200222601022C8
:10341C00B7E74D0648BF9BB2EFE76546B3FBF2F149
:10342C0002FB1133C35C05F8013D0B460029F5D1B5
:10343C00B9E713682568181D6169106028061B68B8
:10344C0001D5196002E06A06FBD519800023654698
:10345C002361B9E71368191D11601D6862680021AA
:10346C00284600F093FA08B1401B60606368236142
:10347C00002384F84330A7E723692A4639463046AF
:10348C00C0470130AAD023689B0713D4E068039B84
:10349C009842B8BF1846A3E701234A46394630463E
:1034AC00C04701309AD00135E368039A9B1AAB42AE
:1034BC00F2DCEBE7002504F11909F5E7002BACD1A0
:1034CC00037804F1420584F842306CE7393C00087B
:1034DC004A3C000838B50023054C054608462360D5
:1034EC0000F00CFB431C02D1236803B12B6038BDE8
:1034FC00B801002010B50C46B1F90E1000F0A2FA7C
:10350C000028ABBF636DA3891B1823F48053ACBF99
:10351C006365A38110BD2DE9F0411F468B890546DB
:10352C00DB050C46164605D502230022B1F90E1018
:10353C0000F0B6F9A389324623F48053A381B4F981
:10354C000E103B462846BDE8F04100F069B810B5B6
:10355C000C46B1F90E1000F0A3F9431CA38915BF5A
:10356C00606523F4805343F48053A38118BFA38177
:10357C0010BDB1F90E1000F0D3B80000F8B50E462E
:10358C001446054618B183690BB9FFF7FBFB214BB9
:10359C009C422AD16C68A369A360A3891A072ED513
:1035AC00236963B323692068F6B2C01A636937468E
:1035BC00834204DC2146284600F048F928BBA36866
:1035CC000130013BA36023685A1C22601E706369A2
:1035DC00834204D0A389DB0719D50A2E17D12146C3
:1035EC00284600F033F990B10FE00B4B9C4201D10F
:1035FC00AC68D0E7094B9C4208BFEC68CBE721468E
:10360C00284600F01FF80028CCD04FF0FF37384682
:10361C00F8BD00BFE83B0008083C0008C83B0008A8
:10362C0038B50546084611460022054C22601A465C
:10363C0000F072FA431C02D1236803B12B6038BD31
:10364C00B8010020324B70B51D6806460C4625B1FA
:10365C00AB6913B92846FFF795FB2E4B9C420FD153
:10366C006C68B4F90C309AB215072CD4D00611D46E
:10367C000922326043F04003A3814FF0FF303EE05B
:10368C00254B9C4201D1AC68EBE7244B9C4208BF14
:10369C00EC68E6E7510712D5616B41B104F14403C4
:1036AC00994202D0304600F081F900236363A3896C
:1036BC0023F02403A3810023636023692360A3897F
:1036CC0043F00803A38123694BB9A38903F4207346
:1036DC00B3F5007F03D02146304600F017F9A289DC
:1036EC0012F001030CD00023A36063695B42A36159
:1036FC00236953B9B4F90C3013F08000BAD170BD02
:10370C00920758BF6369A360F2E70020F7E700BF98
:10371C0004000020E83B0008083C0008C83B0008F7
:10372C0038B50023054C05460846236000F0BEF969
:10373C00431C02D1236803B12B6038BDB8010020B3
:10374C008A892DE9F041054610070C4658D44B6880
:10375C00002B05DC0B6C002B02DC0020BDE8F0819B
:10376C00E66A002EF9D0002312F480522F68216AE9
:10377C002B6032D0606DA3895A0705D56368C01AD7
:10378C00636B0BB1236CC01A00230246E66A216AF4
:10379C002846B047431CA38906D129681D2948D85F
:1037AC00294ACA40D60744D5002262602269D9044E
:1037BC00226004D5421C01D12B6803B96065616B92
:1037CC002F600029C9D004F14403994202D0284645
:1037DC0000F0ECF800206063C0E701232846B047F6
:1037EC00411CC8D12B68002BC5D01D2B01D0162B2A
:1037FC0001D12F60B1E7A38943F04003A381ADE76A
:10380C000F69002FA9D0930718BF00230E6808BFBB
:10381C004B69A6EB07080F608B60B8F1000F9CDDBD
:10382C0043463A46216A2846A66AB047002806DC79
:10383C00A38943F04003A3814FF0FF308EE7074488
:10384C00A8EB0008E9E700BF0100402038B50B6980
:10385C0005460C46DBB118B183690BB9FFF792FA38
:10386C000C4B9C4209D16C68B4F90C307BB12146ED
:10387C002846BDE83840FFF763BF074B9C4201D197
:10388C00AC68F1E7054B9C4208BFEC68ECE7002004
:10389C0038BD00BFE83B0008083C0008C83B0008E6
:1038AC0038B50546084611460022054C22601A46DA
:1038BC0000F014F9431C02D1236803B12B6038BD0E
:1038CC00B801002070B50E46B1F90E1096B0002963
:1038DC0014461D4607DA00232B60B3891A0610D450
:1038EC004FF480630EE06A4600F0BEF80028F2DB6D
:1038FC00019A02F47042A2F500535A425A412A60CE
:10390C00EEE740230020236016B070BD8B8973B5A1
:10391C009D0706460C4607D504F147032360236137
:10392C000123636102B070BD01AB6A46FFF7CAFFA9
:10393C00009905463046FFF7AFFA48B9B4F90C3098
:10394C009A05EFD423F0030343F00203A381E3E7CA
:10395C000D4BB362A389206043F08003A381009BCD
:10396C0020616361019B5BB1B4F90E10304600F02D
:10397C008DF828B1A38923F0030343F00103A3813D
:10398C00A3891D43A581CDE7592D000810B5C9B2F7
:10399C0002449042034601D1002303E01C7801301D
:1039AC008C42F6D1184610BD7047704738B50546A5
:1039BC00002943D051F8043C0C1F002BB8BFE4186D
:1039CC00FFF7F2FF1E4A1368104633B963601460A8
:1039DC002846BDE83840FFF7E8BFA3420BD9216861
:1039EC006218934201BF1A685B68521822606360C8
:1039FC000460EDE713465A680AB1A242FAD9196875
:103A0C005818A0420BD12068014458188242196002
:103A1C00DED110685268014419605A60D8E702D9A7
:103A2C000C232B60D4E7206821188A4201BF11684F
:103A3C0052680918216062605C60C9E738BD00BF3C
:103A4C008400002038B50546084611460022054C76
:103A5C0022601A4600F04AF8431C02D1236803B1D5
:103A6C002B6038BDB801002038B50023064C054644
:103A7C0008461146236000F021F8431C02D123684C
:103A8C0003B12B6038BD00BFB801002038B500234E
:103A9C00054C05460846236000F018F8431C02D17B
:103AAC00236803B12B6038BDB80100205822024BAB
:103ABC004FF0FF301A607047B80100205822024BBB
:103ACC004FF0FF301A607047B80100205822024BAB
:103ADC0000201A60704700BFB80100205822024B2A
:103AEC004FF0FF301A607047B80100205822024B8B
:103AFC004FF0FF301A607047B8010020044A0549A6
:103B0C001368002B08BF0B4618441060184670470A
:103B1C008C000020C00100205822024B4FF0FF30D7
:103B2C001A607047B8010020F8B500BFF8BC08BC9B
:103B3C009E467047F8B500BFF8BC08BC9E4670475F
:103B4C0002030405060708090A0B0C0D0E0F1010D2
:103B5C00010200000000000000000000010203044C
:103B6C000607080900000000010203042E2E2F5343
:103B7C0072632F6D61696E2E6300000068656C6C5A
:103B8C006F20776F726C64210000000061626364C7
:103B9C0065666768696A0D0A000000002E2E2F53B7
:103BAC0072632F73746D3332663178785F68616C31
:103BBC005F6D73702E630000080000200000000091
:103BCC0000000000000000000000000000000000E9
:103BDC0000000000000000000000000000000000D9
:103BEC0000000000000000000000000000000000C9
:103BFC0000000000000000000000000000000000B9
:103C0C0000000000000000000000000000000000A8
:103C1C00000000000000000000000000232D302BED
:103C2C002000686C4C0065666745464700303132B1
:103C3C003334353637383941424344454600303108
:103C4C003233343536373839616263646566000067
:043C5C00310100082A
:043C60000D0100084A
:103C640000A24A040800002000000000E83B00080D
:103C7400083C0008C83B00080000000000000000E9
:103C84000000000000000000000000000000000030
:103C94000000000000000000000000000000000020
:103CA4000000000000000000000000000000000010
:103CB4000000000000000000000000000000000000
:083CC4000000000000000000F8
:0400000508002C3D86
:00000001FF
