:020000040800F2
:100000000028002091300008912F0008932F00084D
:10001000952F0008972F0008992F00080000000076
:100020000000000000000000000000009B2F0008FE
:100030009D2F0008000000009F2F0008A12F00083E
:10004000D9300008D9300008D9300008D93000086C
:10005000D9300008AD2F0008AF2F0008B92F0008D5
:10006000C32F0008D9300008D9300008CD2F000870
:10007000D9300008D9300008D9300008D93000083C
:10008000D9300008D9300008DD2F0008D930000829
:10009000D9300008D9300008D9300008D93000081C
:1000A000D9300008F52F0008053000081530000889
:1000B00025300008D930000800000000D9300008C1
:1000C000D93000080000000000000000D93000080E
:1000D0000000000035300008D930000800000000A2
:1000E000D9300008D9300008D930000800000000DD
:1000F0000000000000000000000000000000000000
:0C01000000000000000000005FF808F1A3
:10010C0010B5054C237833B9044B13B10448AFF345
:10011C0000800123237010BD0400002000000000AB
:10012C002431000808B5034B1BB103490348AFF356
:10013C00008008BD000000000800002024310008E9
:10014C0010B50446074B1868074BA3FB0030800919
:10015C0000F0D0FC002221464FF0FF3000F08AFC6A
:10016C00002010BD00000020D34D621008B5074AD6
:10017C00136843F010031360032000F069FC0020A7
:10018C00FFF7DEFF02F086FD002008BD00200240D4
:10019C00024A136801331360704700BF340000201B
:1001AC00014B1868704700BF3400002030B583B095
:1001BC000190FFF7F5FF0546019CB4F1FF3F00D01D
:1001CC000134FFF7EDFF401BA042FAD303B030BD62
:1001DC007047704710B5044603685A6812F0200F38
:1001EC0018D01A6812F0020F14D0826A12F0100F95
:1001FC0003D1826A42F4007282629A6802F460222D
:10020C00B2F5602F38D02046FFF7E2FF23686FF07D
:10021C0012021A6023685A6812F0800F22D01A68F2
:10022C0012F0040F1ED0A26A12F0100F03D1A26AB2
:10023C0042F40052A2629A6802F4E042B2F5E04F36
:10024C0031D05A6812F4806F05D19A6802F460229A
:10025C00B2F5602F24D0204602F044F923686FF0E9
:10026C000C021A6023685A6812F0400F03D01B6806
:10027C0013F0010F28D110BDE268002AC3D15A68CF
:10028C0022F020025A60A36A23F48073A362A36A4B
:10029C0013F4805FB7D1A36A43F00103A362B2E702
:1002AC00E268002AD7D15A6822F080025A60A36A09
:1002BC0023F48053A362A36A13F4807FCBD1A36A87
:1002CC0043F00103A362C6E7A36A43F48033A3623D
:1002DC002046FFF77EFF23686FF001021A60CAE721
:1002EC0030B482B00023019390F82430012B00F03D
:1002FC008B800246012380F824304B68062B29D8CA
:10030C000568686B03EB8303053B1F249C4020EAC4
:10031C0004000C6804FA03F303436B630B68092BAA
:10032C0038D91568E86803EB43031E3B07249C404F
:10033C0020EA04008C6804FA03F30343EB600B68B7
:10034C00103B012B34D90020002382F8243002B05A
:10035C0030BC70470C2B0ED80568286B03EB83035D
:10036C00233B1F249C4020EA04000C6804FA03F38E
:10037C0003432B63D2E70568E86A03EB8303413B35
:10038C001F249C4020EA04000C6804FA03F3034386
:10039C00EB62C3E71568286903EB430307249C4011
:1003AC0020EA04008C6804FA03F303432B61C6E7CC
:1003BC0013681648834205D0936A43F02003936276
:1003CC000120C1E7986810F4000F1BD1986840F425
:1003DC00000098600B68102B01D00020B4E70C4B88
:1003EC001B680C49A1FB03139B0C03EB8303590003
:1003FC00019102E0019B013B0193019B002BF9D180
:10040C000020A1E700209FE70220A0E70024014084
:10041C000000002083DE1B4330B583B00023019322
:10042C0003689A6812F0010F2ED19A6842F001020B
:10043C009A60174B1B68174AA2FB03239B0C019372
:10044C0002E0019B013B0193019B002BF9D1044677
:10045C00FFF7A6FE054623689B6813F0010F11D128
:10046C00FFF79EFE401B0228F5D9A36A43F0100348
:10047C00A362E36A43F00103E362002384F82430AF
:10048C00012002E0002000E0002003B030BD00BFDE
:10049C000000002083DE1B4390F82430012B6FD02A
:1004AC0010B50446012380F82430FFF7B5FF02464F
:1004BC00002860D1A36A23F4706323F0010343F492
:1004CC008073A362236830498B422CD0A16A21F43B
:1004DC008011A162596811F4806F05D0A16A21F4D2
:1004EC00405141F48051A162A16A11F4805F30D077
:1004FC00E16A21F00601E162002184F824106FF01A
:10050C000201196021684B6843F020034B6023689B
:10051C00996801F46021B1F5602F1DD0996841F400
:10052C00801199602AE0A1F58061496811F4702F5F
:10053C00CCD0A16A41F48011A1621449496811F42C
:10054C00806FD1D0A16A21F4405141F48051A16255
:10055C00CAE70021E162CFE70B498B4204D09968CE
:10056C0041F4A001996009E0A1F58061496811F49A
:10057C00702FD3D1F3E7002384F82430104610BD3C
:10058C0002221046704700BF0028014000240140A1
:10059C0038B503689A6812F0010F01D1002038BDFC
:1005AC0004469A6822F001029A60FFF7F9FD0546AD
:1005BC0023689B6813F0010F0ED0FFF7F1FD401B71
:1005CC000228F5D9A36A43F01003A362E36A43F04F
:1005DC000103E3620120E2E70020E0E700287FD07E
:1005EC0038B50446836A002B33D02046FFF7D0FF82
:1005FC00A36A13F010036DD100286BD1A26A22F408
:10060C00885222F0020242F00202A2626268E169A0
:10061C000A43E56842EA4502A168B1F5807F21D022
:10062C0001291CD0616901291FD02568696821F452
:10063C0069410B436B6021688D682A4B2B40134337
:10064C008B60A368B3F5807F20D0012B1ED00021D6
:10065C001FE0C36280F8243002F076FBC5E74FF44C
:10066C008073DFE74FF48073DCE735B9A16901399A
:10067C0043EA413343F40063D7E7A16A41F0200118
:10068C00A162E16A41F00101E162CEE72369013B1D
:10069C0019052568EB6A23F470030B43EB6223689E
:1006AC009968114B0B409A420BD0A36A23F01203AA
:1006BC0043F01003A362E36A43F00103E3620120F9
:1006CC000DE00023E362A36A23F0030343F001036C
:1006DC00A36204E0A36A43F01003A362012038BDB7
:1006EC0001207047FDF7E1FFFE0E1FFF90F824304C
:1006FC00012B59D010B50446012380F82430FFF7A4
:10070C008BFE024600284AD1A36A23F4405323F0FF
:10071C00010343F48053A3622168254B994224D0F2
:10072C00A36A23F48013A362A36A13F4807F01D11C
:10073C000023E362002384F824306FF004030B6081
:10074C0021684B6843F080034B602368596811F4AF
:10075C00806F27D1996801F4E041B1F5E04F0FD0DB
:10076C00996841F4004199601CE0A3F580635B68D3
:10077C0013F4702FD4D0A36A43F48013A362D3E78D
:10078C000B498B4204D0996841F40211996009E03D
:10079C00A1F58061496811F4702FE1D1F3E70023D2
:1007AC0084F82430104610BD02221046704700BF5A
:1007BC0000280140032909D0042904D0022908D0BB
:1007CC000368D86B70470368986C70470368586C63
:1007DC0070470368186C7047F0B482B0034600226F
:1007EC000192806893F82420012A00F0FC800122F9
:1007FC0083F8242000284CD14A68012A3FD09A6AF9
:10080C0042F020029A6201201C68A26812F0010FCB
:10081C0007D1A26822F4E04222F00102CD692A43FA
:10082C00A2608A69012A5ED04A69012A6BD00A68E3
:10083C00092A76D91E68F46802EB42021E3A072593
:10084C00954024EA05048D6805FA02F22243F26011
:10085C000A68103A012A72D94A68022A00F0888084
:10086C00032A00F08F80012A6FD01C68226A22F4C0
:10087C007F6222F00F02CD682A4322626EE0186874
:10088C00826B920D92050C6842EAC432826300209E
:10089C00BAE74A680C69A24215D81F68BD6B101BD9
:1008AC0000EB80000F301F22824042F4401225EAF8
:1008BC000205621E0E6806FA00F040EA02522A4354
:1008CC00BA630020A0E71E68B56B121B02EB820214
:1008DC000F321F2000FA02F242F4401225EA020203
:1008EC00B263002090E7CA69B2F5E04F05D09A6A6E
:1008FC0042F020029A62012096E71C68626842F47A
:10090C008062626090E78A692AB91C68626842F466
:10091C00805262608BE79A6A42F020029A62012050
:10092C0085E71E68346902EB42020725954024EAEC
:10093C0005048D6805FA02F22243326188E71C68CF
:10094C00A26842F40002A26086E71C68626922F485
:10095C007F6222F00F02CD682A4362610A68103A66
:10096C00012A19D9002283F8242002B0F0BC704768
:10097C001C68A26922F47F6222F00F02CD682A4320
:10098C00A261EBE71C68E26922F47F6222F00F029D
:10099C00CD682A43E261E1E71A68144CA24205D003
:1009AC009A6A42F020029A620120DBE7946814F400
:1009BC00000FD7D1946844F4000494600A68102A9C
:1009CC00D0D10B4A12680B49A1FB0212920C02EB1C
:1009DC0082025100019102E0019A013A0192019ABE
:1009EC00002AF9D1BEE70220BFE700BF0024014076
:1009FC000000002083DE1B43034690F82420012ACC
:100A0C0020D0012280F824200268906810F0010F99
:100A1C0007D10D48806810F0010F02D10B488242BB
:100A2C0008D09A6A42F020029A620120002283F8D0
:100A3C0024207047506820F47020096801435160ED
:100A4C000020F3E7022070470028014000240140F9
:100A5C00074AD36823F4E0631B041B0C000200F468
:100A6C00E060184340F0BF6040F40030D060704745
:100A7C0000ED00E030B4174BDB68C3F30223C3F185
:100A8C000704042C28BF04241D1D062D18D9033B74
:100A9C004FF0FF3505FA04F421EA0401994005FAF8
:100AAC0003F322EA0303194300280BDB0901C9B243
:100ABC0000F1604000F5614080F8001330BC7047D5
:100ACC000023E5E700F00F000901C9B2024B1954ED
:100ADC00F4E700BF00ED00E014ED00E000F01F02B1
:100AEC00400901239340024A42F82030704700BF6E
:100AFC0000E100E00138B0F1807F0AD2064B58606B
:100B0C00064AF02182F823100020986007221A6010
:100B1C0070470120704700BF10E000E000ED00E0DE
:100B2C00042805D0054A136823F0040313607047AA
:100B3C00024A136843F004031360704710E000E0AE
:100B4C00704708B5FFF7FCFF08BD0000002830D047
:100B5C0010B403460168184A0A441848A0FB020264
:100B6C00120992001A64164ADA63022283F82120D1
:100B7C00086820F47F5020F030005A689C682243AB
:100B8C00DC6822431C6922435C6922439C69224332
:100B9C00DC69224302430A6000209862D862186321
:100BAC0058639863012283F8212083F8200010BC3D
:100BBC0070470120704700BFF8FFFDBFCDCCCCCCF7
:100BCC000000024008B590F82130022B03D004231A
:100BDC008363012008BD0268136823F00E031360C1
:100BEC000268136823F0010313600368194A9342E7
:100BFC0014D0143293421FD0143293421ED01432AC
:100C0C0093421ED0143293421ED01432934202D01F
:100C1C004FF0807203E04FF4801200E001220E4B83
:100C2C005A60012380F82130002380F82030436B78
:100C3C006BB198470020CDE71022F0E74FF480729B
:100C4C00EDE74FF48052EAE74FF48032E7E70020FB
:100C5C00C0E700BF080002400000024038B5C36B7B
:100C6C001A6804682568016C04238B40134235D044
:100C7C0015F0040F32D0236813F0200F03D1236832
:100C8C0023F0040323600368434A934214D01432C4
:100C9C00934218D01432934217D01432934217D087
:100CAC001432934217D01432934202D04FF0806228
:100CBC0003E04FF4800200E00422384B5A60C36A10
:100CCC0003B1984738BD4022F7E74FF48062F4E750
:100CDC004FF48042F1E74FF48022EEE702238B4081
:100CEC0013423CD015F0020F39D0236813F0200FBB
:100CFC0006D1236823F00A032360012380F82130F6
:100D0C000368254A934214D0143293421CD01432F7
:100D1C0093421BD0143293421BD0143293421BD0FB
:100D2C001432934202D04FF0007203E04FF40012E1
:100D3C0000E00222194B5A60002380F82030836AAD
:100D4C00002BBFD09847BDE72022F3E74FF4007289
:100D5C00F0E74FF40052EDE74FF40032EAE70823D6
:100D6C0003FA01F11142ADD015F0080FAAD0236897
:100D7C0023F00E032360026CC16B012303FA02F211
:100D8C004A60836380F82130002380F82030036BA5
:100D9C00002B97D0984795E70800024000000240CE
:100DAC00F0B482B00026354668E0002C00F0968046
:100DBC00012C00D1CE68FF2B00F2A4808446FF2BBF
:100DCC0000F2A380AC00DCF800200F27A74022EA39
:100DDC00070206FA04F42243CCF800204A6812F009
:100DEC00805F4AD05B4A946944F001049461926933
:100DFC0002F001020192019AAC08A71C564A52F863
:100E0C00272005F00307BF004FF00F0C0CFA07FC6E
:100E1C0022EA0C0C514A90427DD002F5806290423D
:100E2C007BD002F58062904273D00322BA4042EA32
:100E3C000C020234484F47F824204A6812F4803FD1
:100E4C006DD0474C22681A4322604A6812F4003F66
:100E5C006BD0434C62681A4362604A6812F4801F7C
:100E6C0069D03F4CA2681A43A2604A6812F4001F72
:100E7C0067D03B4CE2681343E36001350F2D66D815
:100E8C000122AA400B6813409A42F6D14C68122CEE
:100E9C002ED009D8022C28D087D9032C2ED0112C77
:100EAC0089D1CE68043686E72E4FBC4216D00CD9B9
:100EBC002D4FBC4212D007F58037BC420ED0A7F59F
:100ECC008017BC427FF477AF08E0A7F58017BC42CF
:100EDC0004D007F58037BC427FF46DAF8C687CB1D1
:100EEC00012C08D04261082665E7CE68083662E717
:100EFC00CE680C365FE7026108265CE700265AE7ED
:100F0C00042658E700F1040C59E7A5F10804A400E5
:100F1C0059E702228AE7002288E7012286E7104C73
:100F2C00226822EA030222608FE70D4C626822EAF3
:100F3C000302626091E70A4CA26822EA0302A260F3
:100F4C0093E7074CE26822EA0303E36095E702B0FB
:100F5C00F0BC704700100240000001400008014046
:100F6C0000040140000021100000311012B90904E6
:100F7C000161704701617047C3685940C160704797
:100F8C0008B5054B5B69034200D108BD024B5861A3
:100F9C0001F0C2FAF9E700BF0004014082B0084B2F
:100FAC001B68084AA2FB03235B0A00FB03F00190B9
:100FBC0000BF019B5A1E0192002BF9D102B0704761
:100FCC0000000020D34D621070B582B00446036857
:100FDC0013F0010F2CD0AB4B5B6803F00C03042B0C
:100FEC001DD0A84B5B6803F00C03082B12D0636870
:100FFC00B3F5803F41D0002B55D103F1804303F56D
:10100C0004331A6822F480321A601A6822F480229F
:10101C001A6037E09B4B5B6813F4803FE7D0994B29
:10102C001B6813F4003F03D06368002B00F0AE8103
:10103C00236813F0020F76D0924B5B6813F00C0F01
:10104C005FD0904B5B6803F00C03082B54D02369E2
:10105C00002B00F08A808C4B01221A60FFF7A0F85D
:10106C000546884B1B6813F0020F75D1FFF798F8F3
:10107C00401B0228F5D903208BE1824A136843F404
:10108C0080331360636843B3FFF78AF805467D4BE2
:10109C001B6813F4003FCBD1FFF782F8401B642888
:1010AC00F5D9032075E1B3F5A02F09D0754B1A685B
:1010BC0022F480321A601A6822F480221A60E1E766
:1010CC0003F18043A3F53C331A6842F480221A6082
:1010DC001A6842F480321A60D4E7FFF761F80546CB
:1010EC00684B1B6813F4003FA2D0FFF759F8401B64
:1010FC006428F5D903204CE1624B5B6813F4803F04
:10110C00A5D1604B1B6813F0020F04D02369012B8F
:10111C0001D001203DE15B4A136823F0F8036169BB
:10112C0043EAC1031360236813F0080F32D0A3699C
:10113C00002B5BD0554B01221A60FFF731F80546A6
:10114C00504B5B6A13F0020F21D1FFF729F8401BBB
:10115C000228F5D903201CE14A4A136823F0F8034E
:10116C00616943EAC1031360DDE7474B00221A6053
:10117C00FFF716F80546434B1B6813F0020FD2D04D
:10118C00FFF70EF8401B0228F5D9032001E10120DE
:10119C00FFF704FF236813F0040F00F09780394B1E
:1011AC00DB6913F0805F33D1364BDA6942F0805241
:1011BC00DA61DB6903F080530193019B0125344B09
:1011CC001B6813F4807F25D0E368012B36D0002BED
:1011DC004CD103F1804303F504331A6A22F0010267
:1011EC001A621A6A22F004021A622CE0274B0022BF
:1011FC001A60FEF7D5FF0546224B5B6A13F0020F0F
:10120C00C8D0FEF7CDFF401B0228F5D90320C0E063
:10121C000025D4E71E4A136843F480731360FEF76D
:10122C00BFFF06461A4B1B6813F4807FCCD1FEF728
:10123C00B7FF801B6428F5D90320AAE0114A136A72
:10124C0043F001031362E36873B3FEF7A9FF06468C
:10125C000C4B1B6A13F0020F37D1FEF7A1FF801B5A
:10126C0041F288339842F3D9032092E0052B11D038
:10127C00044B1A6A22F001021A621A6A22F0040262
:10128C001A62E0E700100240000042428004424231
:10129C0000700040414B1A6A42F004021A621A6A4A
:1012AC0042F001021A62CEE7FEF77AFF06463B4B8C
:1012BC001B6A13F0020F08D0FEF772FF801B41F27D
:1012CC0088339842F3D9032063E0E5B9E369002B36
:1012DC005ED0324A526802F00C02082A5BD0022B14
:1012EC0017D02F4B00221A60FEF75AFF04462B4BE7
:1012FC001B6813F0007F47D0FEF752FF001B02283B
:10130C00F5D9032045E0254AD36923F08053D361F6
:10131C00DCE7234B00221A60FEF742FF05461F4B09
:10132C001B6813F0007F06D0FEF73AFF401B022823
:10133C00F5D903202DE0236AB3F5803F1AD0174965
:10134C004B6823F47413226A606A024313434B60A4
:10135C00134B01221A60FEF723FF04460F4B1B6848
:10136C0013F0007F0ED1FEF71BFF001B0228F5D9EE
:10137C0003200EE0094A536823F40033A1680B43A1
:10138C005360DCE7002004E0002002E0012000E0D4
:10139C00002002B070BD0120FBE700BF001002402E
:1013AC006000424210B487B0164C94E80F000DF167
:1013BC00180C0CE90F00238AADF80430124B5B6853
:1013CC0003F00C02082A1AD1C3F38342624412F8C8
:1013DC00100C13F4803F05D10C4B03FB00F007B04D
:1013EC0010BC7047084B5B68C3F34043634413F86D
:1013FC00142C074BB3FBF2F300FB03F0EFE70448AC
:10140C00EDE700BF3C3100080010024000093D0030
:10141C0000127A00594B1B6803F007038B420CD265
:10142C00564A136823F007030B431360136803F049
:10143C0007038B4201D00120704770B5036813F08D
:10144C00020F06D04E4A536823F0F00384682343FE
:10145C0053600C460546036813F0010F52D04368E5
:10146C00012B23D0022B28D0454A126812F0020F10
:10147C0000F0828042494A6822F0030213434B6019
:10148C00FEF78EFE06466B68012B1DD0022B2AD070
:10149C003B4B5B6813F00C0F34D0FEF781FE801BC6
:1014AC0041F288339842F3D9032064E0344A12683D
:1014BC0012F4003FDED101205DE0314A126812F0D7
:1014CC00007FD7D1012056E02D4B5B6803F00C0355
:1014DC00042B17D0FEF764FE801B41F28833984230
:1014EC00F2D9032047E0264B5B6803F00C03082B72
:1014FC0008D0FEF755FE801B41F288339842F2D992
:10150C00032038E01D4B1B6803F00703A3420CD9E2
:10151C001A4A136823F0070323431360136803F07C
:10152C000703A34201D0012025E02B6813F0040F20
:10153C0006D0134A536823F4E063E9680B43536005
:10154C002B6813F0080F07D00D4A536823F460532F
:10155C00296943EAC1035360FFF724FF084B5B681A
:10156C00C3F30313074AD35CD840074B1860002021
:10157C00FEF7E6FD002070BD0120FCE700200240D4
:10158C00001002405031000800000020014B186888
:10159C00704700BF0000002008B5FFF7F7FF044BB1
:1015AC005B68C3F30223034AD35CD84008BD00BF79
:1015BC00001002406031000808B5FFF7E7FF044B4C
:1015CC005B68C3F3C223034AD35CD84008BD00BF99
:1015DC00001002406031000870B582B00446036808
:1015EC0013F0010F34D03E4BDB6913F0805F48D110
:1015FC003B4BDA6942F08052DA61DB6903F08053CD
:10160C000193019B0125374B1B6813F4807F3AD063
:10161C00334B1B6A13F4407311D0626802F44072AE
:10162C009A420CD02E4A136A23F440702E4901269C
:10163C000E6000260E60106213F0010F37D1284A9D
:10164C00136A23F4407361680B431362002D3FD17E
:10165C00236813F0020F06D0214A536823F4404349
:10166C00A1680B435360236813F0100F35D01C4A4C
:10167C00536823F48003E1680B435360002002B0ED
:10168C0070BD0025BFE7174A136843F480731360DD
:10169C00FEF786FD0646134B1B6813F4807FB7D10B
:1016AC00FEF77EFD801B6428F5D90320E7E7FEF7E3
:1016BC0077FD06460A4B1B6A13F0020FBFD1FEF7EB
:1016CC006FFD801B41F288339842F3D90320D6E793
:1016DC00D36923F08053D361BAE70020CFE700BF72
:1016EC0000100240007000404004424270B4036A93
:1016FC0023F001030362036A4268846924F07304D3
:10170C000D6845EA040623F002048B6823430D4D53
:10171C00A84209D00B4DA8420DD0426086614A68A0
:10172C004263036270BC704723F00803CC68234308
:10173C0023F00403EEE722F440724C6914438A69E7
:10174C002243EAE7002C014030B4036A23F480738F
:10175C000362036A4268C46924F073040D682C4365
:10176C0023F400738D6843EA05230F4DA84209D07A
:10177C000D4DA8420ED04260C4614A68C263036238
:10178C0030BC704723F40063CD6843EA052323F48F
:10179C008063EDE722F440524D6942EA05128D69EF
:1017AC0042EA0512E7E700BF002C014030B4036A9F
:1017BC0023F480530362036A4468C26922F4E6424C
:1017CC000D6842EA052223F400538D6843EA053381
:1017DC00074DA84206D04460C2614A6802640362A5
:1017EC0030BC704724F480444D6944EA8514F2E718
:1017FC00002C014010B4036A046A24F00104046252
:10180C00846924F0F00444EA021223F00A030B4327
:10181C008261036210BC704710B4036A23F010039A
:10182C0003628469036A24F4704444EA023223F0AC
:10183C00A00343EA01138261036210BC7047836802
:10184C0023F0700341F0070119438160704710B415
:10185C00846824F47F4442EA03230B4323438360CC
:10186C0010BC70470268D36843F00103D360026870
:10187C00136843F00103136000207047704790F821
:10188C003C30012B7DD010B50446012380F83C3050
:10189C00022380F83D300268936823F47F4323F0E1
:1018AC00770393600B68402B57D010D9702B3ED028
:1018BC001FD8502B47D0602B32D1CA6849680068BA
:1018CC00FFF7AAFF60212068FFF7B9FF28E0102B73
:1018DC004DD008D9202B4FD0302B21D1302100688E
:1018EC00FFF7ADFF1CE0DBB900210068FFF7A7FF95
:1018FC0016E0B3F5805F0ED0B3F5005F10D1CB6866
:10190C004A6889680068FFF7A2FF2268936843F46D
:10191C008043936004E00268936823F007039360AC
:10192C00012384F83D30002084F83C0010BDCB68C6
:10193C004A6889680068FFF78AFF2268936843F059
:10194C0077039360ECE7CA6849680068FFF752FFB9
:10195C0050212068FFF773FFE2E7CA684968006806
:10196C00FFF748FF40212068FFF769FFD8E71021F7
:10197C000068FFF764FFD3E720210068FFF75FFFE3
:10198C00CEE70220704770477047704710B5044689
:10199C0003681A6912F0020F11D0DA6812F0020F04
:1019AC000DD06FF002021A610123037703689B6963
:1019BC0013F0030F70D0FFF7E7FF002323772368A2
:1019CC001A6912F0040F12D0DA6812F0040F0ED05C
:1019DC006FF004021A610223237723689B6913F4C6
:1019EC00407F5FD02046FFF7CFFF0023237723688B
:1019FC001A6912F0080F12D0DA6812F0080F0ED024
:101A0C006FF008021A61042323772368DB6913F053
:101A1C00030F4ED02046FFF7B7FF00232377236830
:101A2C001A6912F0100F12D0DA6812F0100F0ED0E3
:101A3C006FF010021A61082323772368DB6913F413
:101A4C00407F3DD02046FFF79FFF0023237723687C
:101A5C001A6912F0010F03D0DA6812F0010F36D1B7
:101A6C0023681A6912F0800F03D0DA6812F0800F25
:101A7C0034D123681A6912F0400F03D0DA6812F0DF
:101A8C00400F32D123681A6912F0200F03D0DA68A4
:101A9C0012F0200F30D110BDFFF775FF204600F07B
:101AAC00A9FF8AE72046FFF76EFF204600F0A2FF51
:101ABC009BE72046FFF767FF204600F09BFFACE753
:101ACC002046FFF760FF204600F094FFBDE76FF063
:101ADC0001021A61204600F0F1FCC1E76FF08002B0
:101AEC001A61204600F094F9C3E76FF040021A61C6
:101AFC002046FFF74AFFC5E76FF020021A61204627
:101B0C0000F085F9C7E700000368174A904206D039
:101B1C00B0F1804F03D0A2F59432904203D123F060
:101B2C0070034A681343104A904206D0B0F1804FBC
:101B3C0003D0A2F59432904203D123F44073CA68C7
:101B4C00134323F080034A69134303608B68C36219
:101B5C000B688362044B984202D0012343617047A7
:101B6C000B690363F9E700BF002C0140A8B110B565
:101B7C00044690F83D305BB1022384F83D30211DC2
:101B8C002068FFF7C1FF012384F83D30002010BD11
:101B9C0080F83C3001F046F9EEE701207047A8B11F
:101BAC0010B5044690F83D305BB1022384F83D300B
:101BBC00211D2068FFF7A8FF012384F83D30002089
:101BCC0010BD80F83C30FFF759FEEEE7012070475E
:101BDC0030B4036A23F010030362036A4468826919
:101BEC0022F4E6420D6842EA052223F020038D68B8
:101BFC0043EA05130E4DA84209D00D4DA8420ED054
:101C0C00446082614A688263036230BC704723F08F
:101C1C008003CD6843EA051323F04003EDE724F479
:101C2C0040644D6944EA85048D6944EA8504E7E71C
:101C3C00002C014090F83C30012B28D010B5044604
:101C4C00012380F83C30022380F83D300C2A0BD85D
:101C5C00DFE802F0070A0A0A110A0A0A150A0A0A38
:101C6C0019000068FFF742FD012384F83D30002085
:101C7C0084F83C0010BD0068FFF7AAFFF4E7006889
:101C8C00FFF762FDF0E70068FFF790FDECE702203C
:101C9C00704710B4012303FA01F4036A23EA040326
:101CAC000362036A8A401343036210BC704700004E
:101CBC0010B504460C290DD8DFE801F0070C0C0C0C
:101CCC001B0C0C0C210C0C0C27000268D36843F085
:101CDC000203D36001222068FFF7DBFF2368104A60
:101CEC00934218D02268136843F00103136000205C
:101CFC0010BD0268D36843F00403D360EAE70268BE
:101D0C00D36843F00803D360E4E70268D36843F078
:101D1C001003D360DEE75A6C42F400425A64E1E7E8
:101D2C00002C014010B4042303FA01F4036A23EAE3
:101D3C0004030362036A8A401343036210BC7047B6
:101D4C0010B5044604220068FFF7ECFF2268536CC0
:101D5C0043F4004353642268136843F00103136097
:101D6C00002010BD90F83C30012B25D0012380F8C9
:101D7C003C30CB6823F440738A68134323F48063AC
:101D8C004A68134323F400630A68134323F4805313
:101D9C000A69134323F400534A69134323F4804321
:101DAC008A69134323F400431343026853640023EA
:101DBC0080F83C30184670470220704790F83C3051
:101DCC00012B22D030B4012280F83C20022380F871
:101DDC003D300468636823F07003636004686368D3
:101DEC000D682B4363600468A36823F08003A36031
:101DFC000468A36849680B43A36080F83D20002366
:101E0C0080F83C30184630BC704702207047704751
:101E1C0070470268D36823F49073D36002685369E7
:101E2C0023F001035361202380F83A30704790F877
:101E3C003930DBB2212B2AD18368B3F5805F16D001
:101E4C00036A5A1C02621A7803685A60C38C013BFD
:101E5C009BB2C384EBB90268D36823F08003D360D0
:101E6C000268D36843F04003D36000207047036AD4
:101E7C001B880268C3F30803536003691BB9036A28
:101E8C0002330362E2E7036A01330362DEE70220F6
:101E9C0070470020704700002DE9F84305460268A2
:101EAC00136923F44053C1680B43136183680269BF
:101EBC001343426913430168CA6822F4B05222F0FA
:101ECC000C021343CB600268536923F4407381699D
:101EDC000B4353610268594B9A4257D0FFF75CFB96
:101EEC0000EB800000EB80006C68A400B0FBF4F405
:101EFC00534FA7FB043464092601FFF74DFB00EB9D
:101F0C00800000EB80006C68A400B0FBF4F9FFF7D4
:101F1C0043FB00EB800000EB80006C68A400B0FB7E
:101F2C00F4F4A7FB043464094FF0640808FB149420
:101F3C0024013234A7FB0434640904F0F004344463
:101F4C00FFF72AFB00EB800000EB80006E68B60008
:101F5C00B0FBF6F6FFF720FB00EB800000EB8000F7
:101F6C006B689B00B0FBF3F0A7FB0030400908FB4B
:101F7C0010684FEA081808F13208A7FB0837C7F3B6
:101F8C0043172B6827449F60BDE8F883FFF714FBC9
:101F9C0000EB800000EB80006C68A400B0FBF4F454
:101FAC00274FA7FB043464092601FFF705FB00EB60
:101FBC00800000EB80006C68A400B0FBF4F9FFF724
:101FCC00FBFA00EB800000EB80006C68A400B0FB17
:101FDC00F4F4A7FB043464094FF0640808FB149470
:101FEC0024013234A7FB0434640904F0F0043444B3
:101FFC00FFF7E2FA00EB800000EB80006E68B600A1
:10200C00B0FBF6F6FFF7D8FA00EB800000EB80008F
:10201C006B689B00B0FBF3F0A7FB0030400908FB9A
:10202C0010684FEA081808F13208A7FB0837C7F305
:10203C0043172B6827449F60A6E700BF0038014078
:10204C001F85EB512DE9F04105460F461646984683
:10205C00069C2B681B6837EA03030CBF0123002383
:10206C00B3421DD1B4F1FF3FF3D02CB1FEF798F879
:10207C00A0EB0800A042ECD92A68D36823F4D073F3
:10208C00D3602A68536923F001035361202385F838
:10209C00393085F83A30002385F83830032000E0D9
:1020AC000020BDE8F08158B310B5044690F83930E3
:1020BC000BB3242384F839302268D36823F40053FB
:1020CC00D3602046FFF7E8FE2268136923F490439F
:1020DC0013612268536923F02A0353612268D36881
:1020EC0043F40053D3600020E063202384F839309C
:1020FC0084F83A3010BD80F8383000F007FFD8E78C
:10210C00012070472DE9F04182B01E4690F839301D
:10211C00DBB2202B55D104460D469046002955D0F4
:10212C00002A55D090F83830012B53D0012380F879
:10213C0038300023C363212380F83930FEF730F8A0
:10214C000746A4F82480A4F8268010E000963B46AD
:10215C00002280212046FFF775FF00283CD12B88F8
:10216C002268C3F3080353602369C3B90235E38CB7
:10217C009BB2B3B1E38C013B9BB2E384A368B3F590
:10218C00805FE3D000963B46002280212046FFF77B
:10219C0059FF18BB2A7823685A600135E7E70135E7
:1021AC00E5E700963B46002240212046FFF74AFF18
:1021BC000346A8B9202284F83920002284F838205C
:1021CC0000E00223184602B0BDE8F0810123F9E7D4
:1021DC000123F7E70223F5E70323F3E70323F1E7F2
:1021EC000323EFE7704708B50168CB6823F0400381
:1021FC00CB60202380F83930FFF7F4FF002008BDB6
:10220C00704708B590F83A30DBB2222B45D1836881
:10221C00B3F5805F0ED0036903BB03685A68836A09
:10222C00591C81621A70C38D013B9BB2C385F3B1FB
:10223C00002033E0826A036943B903685B68C3F327
:10224C0008031380836A02338362ECE703685B68DC
:10225C00DBB21380836A01338362E4E703685B6853
:10226C00826A511C816203F07F031370DBE7026802
:10227C00D36823F02003D3600268D36823F48073FF
:10228C00D3600268536923F001035361202380F863
:10229C003A30FFF7B5FF002000E0022008BD704780
:1022AC0010B5044602681368D168526913F00F0028
:1022BC0005D113F0200F02D011F0200F53D10028BC
:1022CC0067D012F0010202D111F4907F61D013F0AB
:1022DC00010F06D011F4807F03D0E06B40F00100B9
:1022EC00E06313F0040F04D01AB1E06B40F002006D
:1022FC00E06313F0020F04D01AB1E06B40F004005D
:10230C00E06313F0080F04D01AB1E26B42F008023C
:10231C00E263E26B002A48D013F0200F02D011F0D8
:10232C00200F24D123685B6903F04003E26B12F0A9
:10233C00080F00D13BB32046FFF76BFD23685A69A9
:10234C0012F0400F1BD05A6922F040025A61636BA5
:10235C008BB11A4A5A63606BFEF734FC28B3606B7E
:10236C00436B984721E02046FFF74BFF1DE02046CA
:10237C00FFF747FFD6E72046FFF791FF15E0204611
:10238C00FFF78DFF11E02046FFF789FF0023E36381
:10239C000BE013F0800F02D011F0800F06D113F078
:1023AC00400F02D011F0400F04D110BD2046FFF7B2
:1023BC003EFDFAE72046FFF716FFF6E7CD230008AF
:1023CC0008B5406A0023C385C384FFF768FF08BDC6
:1023DC00F0B587B0284B9A6942F004029A619A6969
:1023EC0002F004020092009A9A6942F008029A6183
:1023FC009B6903F008030193019B204E00220421EA
:10240C003046FEF7B3FD072502951D4B03930127BC
:10241C00049702A91B48FEF7C3FC042302930397FD
:10242C00002404940223059302A93046FEF7B8FC5D
:10243C004FF4807302930394049702A93046FEF77D
:10244C00AFFC224621460620FEF714FB0620FEF7C1
:10245C0045FB224621462846FEF70CFB2846FEF794
:10246C003DFB224621460820FEF704FB0820FEF720
:10247C0035FB07B0F0BD00BF00100240000C01405E
:10248C00000031100008014000B583B00A4B5A69B6
:10249C0042F001025A615B6903F001030193019B55
:1024AC00002211460B20FEF7E5FA0B20FEF716FB77
:1024BC0003B05DF804FB00BF0010024008B5064BEA
:1024CC00834200D008BD04210448FEF755FD044AA0
:1024DC00136801331360F5E75C010020000C014028
:1024EC002000002010B501210748FEF763F9074CC6
:1024FC00206001210648FEF75DF96060054A5368CB
:10250C000133536010BD00BF680000209C01002007
:10251C003800002020000020431E9BB2012B01D963
:10252C0004280ED1074B9A6802F00702064B1A7268
:10253C00064A1268526A92B25A819989511AD98103
:10254C009A81704700080140200000205C010020A7
:10255C00FEE7000008B50B480B4B03604FF4E1336A
:10256C00436000238360C36003610C22426183617A
:10257C00C361FFF798FD00B908BD40F2E9110348AB
:10258C00FFF7E6FF98000020003801406831000892
:10259C0000B595B04748484B0360002343602022A8
:1025AC0082604FF4FA62C260036143618361FFF79A
:1025BC00DDFA002851D114A94FF4805341F8103D95
:1025CC003C48FFF75CF900284CD13A48FFF7E7FA92
:1025DC0000284CD170230E9300230F930EA935487D
:1025EC00FFF7ECFB002847D10022079208920992D2
:1025FC000A920B920C920D9207A92E48FFF71AFB28
:10260C0000283ED1042207A92A48FFF713FB002813
:10261C003CD1082207A92748FFF70CFB00283AD128
:10262C000C2207A92348FFF705FB002838D100230B
:10263C000093019302930522039204934FF40052EA
:10264C000592069369461B48FFF78CFB68BB19483B
:10265C0000F030FC15B05DF804FB4FF4BD71174869
:10266C00FFF776FF4FF4C0711448FFF771FF40F28B
:10267C0085111248FFF76CFF4FF4C6710F48FFF736
:10268C0067FF4FF4CC710D48FFF762FF40F29D11CC
:10269C000A48FFF75DFF4FF4D1710848FFF758FF68
:1026AC0040F2A7110548FFF753FF40F2B31103485E
:1026BC00FFF74EFF1C010020002C01406831000880
:1026CC0000B58DB02648274B036000238360C360A0
:1026DC0043614FF46022C261436001230361FDF743
:1026EC007DFF40BB0CA94FF4803341F8043D1C48DE
:1026FC00FEF782F920BB0423039301230493079371
:10270C00002305934FF4E0420A9209930893069331
:10271C0003A91348FEF760F8B8B90323009301230B
:10272C0001930023029369460D48FDF7D9FD88B942
:10273C000DB05DF804FB4FF48F710B48FFF708FFE9
:10274C004FF493710848FFF703FF40F23511064828
:10275C00FFF7FEFE40F23F110348FFF7F9FE00BF02
:10276C0068000020002401406831000800B589B0E1
:10277C001548164B036000238360C36043614FF41C
:10278C006022C261436001230361FDF727FF88B912
:10279C0005230093012301930493002302930693D2
:1027AC000593039369460848FEF716F838B909B043
:1027BC005DF804FB40F255110548FFF7C9FE40F2E5
:1027CC0063110348FFF7C4FE3800002000280140C5
:1027DC006831000800B587B018484FF0804303609B
:1027EC000023436083604FF47A62C26003618361AB
:1027FC00FFF7BCF998B906A94FF4805341F8103D86
:10280C000E48FFF73CF878B9002300930193694612
:10281C000A48FFF7D3FA60B907B05DF804FB40F241
:10282C00C9110748FFF794FE40F2CF110448FFF797
:10283C008FFE4FF4EB710248FFF78AFE5C0100201B
:10284C006831000800B595B002230A9301220E925C
:10285C0010220F921193002312934FF460131393D1
:10286C000AA8FEF7B1FB50BB0F230593022106917A
:10287C00002307934FF480620892099305A8FEF792
:10288C00C9FD00BB022301934FF40043039301A83D
:10289C00FEF7A2FED8B9FEF779FE0F4BA3FB003072
:1028AC008009FEF727F90420FEF73AF900221146B9
:1028BC004FF0FF30FEF7DEF815B05DF804FBE721B2
:1028CC000648FFF745FEF5210448FFF741FEFC21C1
:1028DC000248FFF73DFE00BFD34D6210683100087F
:1028EC0000B59BB0FDF742FCFFF7ACFFFFF770FDA6
:1028FC00FFF7CAFDFFF72EFEFFF74AFEFFF7E0FEDB
:10290C00FFF734FFFFF766FF3248FEF7ABFF18B155
:10291C0088213148FFF71CFE2E4C00212046FFF782
:10292C00C7F904212046FFF7C3F908212046FFF719
:10293C00BFF90C212046FFF7BBF900212046FFF719
:10294C00FFF904212046FFF7FBF908212046FFF789
:10295C00F7F9236800225A634FF4FA521A641F489D
:10296C00FEF780FF18B19C211B48FFF7F1FD1C48B6
:10297C00FDF7BCFE18B1A4211748FFF7E9FD194873
:10298C0000F05EF918E00132174B1A82164B1A8AC6
:10299C001AAB134413F8643C002BF4D14FF6FF73BD
:1029AC0001A91248FFF7AEFB0D48FDF775FD68B99C
:1029BC004FF47A70FDF7FAFB0B4C236862680C49F4
:1029CC0001A800F04FF900232382DFE7C62102485B
:1029DC00FFF7BEFD1C010020683100085C010020DF
:1029EC0068000020783100082000002098000020AA
:1029FC008831000808B5037F082B00D008BD0548B6
:102A0C00FDF774FE0028F9D040F239210248FFF797
:102A1C009FFD00BF68000020683100080A2807D01D
:102A2C00084B1B6813F0800FFAD0064B58607047A8
:102A3C00044B1B6813F0800FFAD0024B0D225A6026
:102A4C00EEE700BF00380140034B1A6810701A689B
:102A5C0001321A60704700BFA40100202DE9F0413B
:102A6C0086B01D46002909DB4FF00008002A0FDB59
:102A7C004FF0200E142A47DC002618E049420028AB
:102A8C0002DB4FF00008F1E740424FF02D08EDE774
:102A9C0052424FF0300EEDE73030C0B2741C06AB32
:102AAC00334403F8140CBCFBF7F060B126468446A3
:102ABC000F46B0FBF1F301FB1300C0B20928EBD9B0
:102ACC003730C0B2EAE7B8F1000F0DD0BEF1300FCD
:102ADC000AD006AB1C4404F8148CB41C04E006ABFE
:102AEC00234403F814EC0134A242F8DCB8F1000FD3
:102AFC0002D0BEF1300F0AD0013C06AB234413F8D0
:102B0C00140CA847002CF7D106B0BDE8F08106AB39
:102B1C00234403F8148C0134EEE770B582B00646FA
:102B2C000C460192651C2078002800F08680252830
:102B3C0002D0B0472C46F5E7A21C60780346252846
:102B4C0007D1B047A3780334302B04D000250022E2
:102B5C000DE01446F8E7237801340125F7E702EB82
:102B6C0082004100303B0B441A4423780134A3F11A
:102B7C0030010929F3D905B15242732B07D0632BCD
:102B8C000FD1019B1A1D01921878B047CAE7019B1F
:102B9C001A1D01921D6828780028C3D00135B04752
:102BAC00F9E7752B13D000216C2B14D00020002BCF
:102BBC0043D0752B19D0642B14D0692B12D0582B01
:102BCC0022D0782B22D0622B22D0013C0BE0237830
:102BDC0001340A21E8E709B96FF0090123780134BF
:102BEC000120E4E769B109B99CE70A21D0B90029B1
:102BFC0010DD0198031D019333460068FFF72EFF8B
:102C0C0090E76FF00901F1E71021EFE71021EDE7F4
:102C1C000221EBE70198031D019333460068FFF78F
:102C2C001DFF7FE700283FF47DAF0198031D019342
:102C3C0033460068FFF712FF74E7002002B070BD46
:102C4C000FB400B583B004AA52F8041B01920448D7
:102C5C00FFF763FF002003B05DF804EB04B070478E
:102C6C00292A00080EB410B583B005AA52F8041B2B
:102C7C00064C206001920648FFF74FFF23680020A6
:102C8C00187003B0BDE8104003B07047A4010020D9
:102C9C00552A000800B583B0294B9A6942F001020D
:102CAC009A619A6902F001020092009ADA6942F084
:102CBC008052DA61DB6903F080530193019B03209E
:102CCC00FDF7C6FE002211466FF00B00FDF7D2FE99
:102CDC00002211466FF00A00FDF7CCFE00221146CF
:102CEC006FF00900FDF7C6FE002211466FF00400DC
:102CFC00FDF7C0FE002211466FF00300FDF7BAFE8F
:102D0C00002211466FF00100FDF7B4FE00221146BF
:102D1C004FF0FF30FDF7AEFE002211460520FDF707
:102D2C00A9FE0520FDF7DAFE064B5A6822F0E06298
:102D3C005A605A6842F000725A6003B05DF804FBA6
:102D4C00001002400000014010B586B003682E4A06
:102D5C00934204D02D4A93423AD006B010BD04469B
:102D6C002B4B9A6942F400729A619B6903F40073CD
:102D7C000093009B782302930323039302A9254815
:102D8C00FEF70EF82448254B036000234360836054
:102D9C008022C2604FF4807202614FF48062426103
:102DAC0083614FF48053C361FDF7D0FE58B91A4BC1
:102DBC0023625C62002211461220FDF75BFE12209A
:102DCC00FDF78CFEC9E77F211548FFF7C1FBEEE745
:102DDC000F4B9A6942F480629A619B6903F4806399
:102DEC000193019B702302930323039302A90948C7
:102DFC00FDF7D6FF002211461220FDF73BFE1220F4
:102E0C00FDF76CFEA9E700BF00240140002801403B
:102E1C000010024000080140D800002008000240C9
:102E2C00A031000800B583B00368204A934205D056
:102E3C00B3F1804F25D003B05DF804FB1C4B9A69AD
:102E4C0042F400629A619B6903F400630093009B57
:102E5C00002211461920FDF70DFE1920FDF73EFE4C
:102E6C00002211461A20FDF705FE1A20FDF736FE4A
:102E7C00002211461B20FDF7FDFD1B20FDF72EFE49
:102E8C00D9E703F50433DA6942F00102DA61DB6950
:102E9C0003F001030193019B002211461C20FDF756
:102EAC00E9FD1C20FDF71AFEC5E700BF002C014010
:102EBC00001002400268114B9A4200D0704710B5C6
:102ECC0084B04FF4F0630093022401940394694698
:102EDC000B48FDF765FF03230093019403946946A7
:102EEC000848FDF75DFF084B5A6822F0C0025A6093
:102EFC005A6842F040025A6004B010BD002C0140E8
:102F0C0000080140000C01400000014002681A4B0F
:102F1C009A4200D0704730B587B003F558439A6990
:102F2C0042F480429A619B6903F480430193019BB4
:102F3C004023029302230393032305930F4D02A90D
:102F4C002846FDF72DFF802302930024039404945C
:102F5C0002A92846FDF724FF094A536843F00403ED
:102F6C005360224621462520FDF784FD2520FDF7E0
:102F7C00B5FD07B030BD00BF00380140000C01406A
:102F8C00000001407047FEE7FEE7FEE7FEE77047F2
:102F9C007047704708B5FDF7FBF8FDF7D2FD08BD8B
:102FAC00704708B50120FDF7EBFF08BD08B50220FE
:102FBC00FDF7E6FF08BD08B50420FDF7E1FF08BDED
:102FCC0008B50248FDF74AFE08BD00BFD800002036
:102FDC0008B50348FDF7FEF80248FDF7FBF808BDFD
:102FEC00680000203800002008B50248FEF7CEFC2F
:102FFC0008BD00BF1C01002008B50248FEF7C6FC46
:10300C0008BD00BF1C01002008B50248FEF7BEFC3D
:10301C0008BD00BF1C01002008B50248FEF7B6FC35
:10302C0008BD00BF5C01002008B50248FFF738F965
:10303C0008BD00BF980000200F4B1A6842F0010237
:10304C001A6059680D4A0A405A601A6822F0847254
:10305C0022F480321A601A6822F480221A605A68AC
:10306C0022F4FE025A604FF41F029A60044B4FF098
:10307C0000629A60704700BF001002400000FFF829
:10308C0000ED00E0002103E00B4B5B584350043192
:10309C000A480B4B42189A42F6D30A4A02E0002324
:1030AC0042F8043B084B9A42F9D3FFF7C5FF00F0F6
:1030BC000FF8FFF715FC7047C43100080000002022
:1030CC000400002004000020A8010020FEE70000FE
:1030DC0070B500250C4E0D4CA41BA410A54209D1B3
:1030EC0000F01AF800250A4E0A4CA41BA410A542A5
:1030FC0005D170BD56F8253098470135EEE756F8E6
:10310C00253098470135F2E7BC310008BC31000886
:10311C00BC310008C0310008F8B500BFF8BC08BCD1
:10312C009E467047F8B500BFF8BC08BC9E46704779
:10313C0002030405060708090A0B0C0D0E0F1010EC
:10314C000102000000000000000000000102030466
:10315C000607080900000000010203042E2E2F535D
:10316C0072632F6D61696E2E6300000048656C6C94
:10317C006F20576F726C64200D0A000048656C6CF0
:10318C006F20576F726C6420256C642C20256C6446
:10319C00200D0A002E2E2F5372632F73746D333251
:1031AC00663178785F68616C5F6D73702E630000B8
:0431BC0031010008D5
:0431C0000D010008F5
:0431C40000A24A0417
:04000005080030912E
:00000001FF
